{
  "contractName": "AccessControl",
  "abi": [
    {
      "inputs": [],
      "stateMutability": "nonpayable",
      "type": "constructor"
    },
    {
      "anonymous": false,
      "inputs": [
        {
          "indexed": true,
          "internalType": "address",
          "name": "user",
          "type": "address"
        },
        {
          "indexed": false,
          "internalType": "enum AccessControl.Role",
          "name": "role",
          "type": "uint8"
        },
        {
          "indexed": false,
          "internalType": "string",
          "name": "accessId",
          "type": "string"
        }
      ],
      "name": "UserAdded",
      "type": "event"
    },
    {
      "inputs": [],
      "name": "owner",
      "outputs": [
        {
          "internalType": "address",
          "name": "",
          "type": "address"
        }
      ],
      "stateMutability": "view",
      "type": "function",
      "constant": true
    },
    {
      "inputs": [
        {
          "internalType": "address",
          "name": "",
          "type": "address"
        }
      ],
      "name": "users",
      "outputs": [
        {
          "internalType": "enum AccessControl.Role",
          "name": "role",
          "type": "uint8"
        },
        {
          "internalType": "string",
          "name": "accessId",
          "type": "string"
        }
      ],
      "stateMutability": "view",
      "type": "function",
      "constant": true
    },
    {
      "inputs": [
        {
          "internalType": "address",
          "name": "_user",
          "type": "address"
        },
        {
          "internalType": "enum AccessControl.Role",
          "name": "_role",
          "type": "uint8"
        },
        {
          "internalType": "string",
          "name": "_accessId",
          "type": "string"
        }
      ],
      "name": "addUser",
      "outputs": [],
      "stateMutability": "nonpayable",
      "type": "function"
    },
    {
      "inputs": [
        {
          "internalType": "address",
          "name": "_user",
          "type": "address"
        }
      ],
      "name": "getUser",
      "outputs": [
        {
          "internalType": "enum AccessControl.Role",
          "name": "",
          "type": "uint8"
        },
        {
          "internalType": "string",
          "name": "",
          "type": "string"
        }
      ],
      "stateMutability": "view",
      "type": "function",
      "constant": true
    }
  ],
  "bytecode": "0x608060405234801561001057600080fd5b50600180546001600160a01b03191633178155604080518082019091529081908152604080518082018252600981526841444d494e2d30303160b81b6020828101919091529283015233600090815291829052902081518154829060ff19166001836005811115610083576100836100a5565b02179055506020820151600182019061009c908261015a565b50905050610218565b634e487b7160e01b600052602160045260246000fd5b634e487b7160e01b600052604160045260246000fd5b600181811c908216806100e557607f821691505b60208210810361010557634e487b7160e01b600052602260045260246000fd5b50919050565b601f82111561015557806000526020600020601f840160051c810160208510156101325750805b601f840160051c820191505b81811015610152576000815560010161013e565b50505b505050565b81516001600160401b03811115610173576101736100bb565b6101878161018184546100d1565b8461010b565b6020601f8211600181146101bb57600083156101a35750848201515b600019600385901b1c1916600184901b178455610152565b600084815260208120601f198516915b828110156101eb57878501518255602094850194600190920191016101cb565b50848210156102095786840151600019600387901b60f8161c191681555b50505050600190811b01905550565b6106d3806102276000396000f3fe608060405234801561001057600080fd5b506004361061004c5760003560e01c80633d7dc4c1146100515780636f77926b146100665780638da5cb5b14610090578063a87430ba146100bb575b600080fd5b61006461005f3660046103ca565b6100ce565b005b6100796100743660046104aa565b6101f2565b6040516100879291906104e2565b60405180910390f35b6001546100a3906001600160a01b031681565b6040516001600160a01b039091168152602001610087565b6100796100c93660046104aa565b6102ef565b60013360009081526020819052604090205460ff1660058111156100f4576100f46104cc565b146101315760405162461bcd60e51b81526020600482015260096024820152682737ba1030b236b4b760b91b604482015260640160405180910390fd5b604051806040016040528083600581111561014e5761014e6104cc565b815260209081018390526001600160a01b0385166000908152908190526040902081518154829060ff1916600183600581111561018d5761018d6104cc565b0217905550602082015160018201906101a690826105de565b50905050826001600160a01b03167f2da8a5fdc6914ee2e19c4007316e91d9ac474729407dbf0f094c908c4c9c9d1b83836040516101e59291906104e2565b60405180910390a2505050565b6001600160a01b0381166000908152602081905260408082208151808301909252805460609284929091829060ff166005811115610232576102326104cc565b6005811115610243576102436104cc565b815260200160018201805461025790610555565b80601f016020809104026020016040519081016040528092919081815260200182805461028390610555565b80156102d05780601f106102a5576101008083540402835291602001916102d0565b820191906000526020600020905b8154815290600101906020018083116102b357829003601f168201915b5050505050815250509050806000015181602001519250925050915091565b6000602081905290815260409020805460018201805460ff909216929161031590610555565b80601f016020809104026020016040519081016040528092919081815260200182805461034190610555565b801561038e5780601f106103635761010080835404028352916020019161038e565b820191906000526020600020905b81548152906001019060200180831161037157829003601f168201915b5050505050905082565b80356001600160a01b03811681146103af57600080fd5b919050565b634e487b7160e01b600052604160045260246000fd5b6000806000606084860312156103df57600080fd5b6103e884610398565b92506020840135600681106103fc57600080fd5b9150604084013567ffffffffffffffff81111561041857600080fd5b8401601f8101861361042957600080fd5b803567ffffffffffffffff811115610443576104436103b4565b604051601f8201601f19908116603f0116810167ffffffffffffffff81118282101715610472576104726103b4565b60405281815282820160200188101561048a57600080fd5b816020840160208301376000602083830101528093505050509250925092565b6000602082840312156104bc57600080fd5b6104c582610398565b9392505050565b634e487b7160e01b600052602160045260246000fd5b60006006841061050257634e487b7160e01b600052602160045260246000fd5b83825260406020830152825180604084015260005b818110156105345760208186018101516060868401015201610517565b506000606082850101526060601f19601f8301168401019150509392505050565b600181811c9082168061056957607f821691505b60208210810361058957634e487b7160e01b600052602260045260246000fd5b50919050565b601f8211156105d957806000526020600020601f840160051c810160208510156105b65750805b601f840160051c820191505b818110156105d657600081556001016105c2565b50505b505050565b815167ffffffffffffffff8111156105f8576105f86103b4565b61060c816106068454610555565b8461058f565b6020601f82116001811461064057600083156106285750848201515b600019600385901b1c1916600184901b1784556105d6565b600084815260208120601f198516915b828110156106705787850151825560209485019460019092019101610650565b508482101561068e5786840151600019600387901b60f8161c191681555b50505050600190811b0190555056fea2646970667358221220cbfff0b9cc47728117f877a7a156e0131c5266e1013b6ae422c4318b515fbd5264736f6c634300081c0033",
  "immutableReferences": {},
  "source": "// SPDX-License-Identifier: MIT\npragma solidity ^0.8.28;\n\ncontract AccessControl {\n    enum Role { None, Admin, Doctor, Pharmacy, Logistics, Patient }\n\n    struct User {\n        Role role;\n        string accessId;\n    }\n\n    mapping(address => User) public users;\n    address public owner;\n\n    event UserAdded(address indexed user, Role role, string accessId);\n\n\n    constructor() {\n    owner = msg.sender;\n    users[msg.sender] = User({ role: Role.Admin, accessId: \"ADMIN-001\" });\n    }\n\n\n\n    modifier onlyAdmin() {\n        require(users[msg.sender].role == Role.Admin, \"Not admin\");\n        _;\n    }\n\n    function addUser(address _user, Role _role, string memory _accessId) external onlyAdmin {\n        users[_user] = User(_role, _accessId);\n        emit UserAdded(_user, _role, _accessId);\n    }\n\n    function getUser(address _user) external view returns (Role, string memory) {\n        User memory u = users[_user];\n        return (u.role, u.accessId);\n    }\n}\n",
  "sourcePath": "/Users/ftoon/Documents/TrustDose/contracts/AccessControl.sol",
  "compiler": {
    "name": "solc",
    "version": "0.8.28+commit.7893614a.Emscripten.clang"
  },
  "schemaVersion": "3.4.16",
  "updatedAt": "2025-10-05T21:57:32.265Z",
  "networkType": "ethereum",
  "devdoc": {
    "kind": "dev",
    "methods": {},
    "version": 1
  },
  "userdoc": {
    "kind": "user",
    "methods": {},
    "version": 1
  }
}