{
  "contractName": "DeliveryAccept",
  "abi": [
    {
      "inputs": [
        {
          "internalType": "address",
          "name": "_prescriptionAddress",
          "type": "address"
        }
      ],
      "stateMutability": "nonpayable",
      "type": "constructor"
    },
    {
      "anonymous": false,
      "inputs": [
        {
          "indexed": true,
          "internalType": "uint256",
          "name": "prescriptionId",
          "type": "uint256"
        },
        {
          "indexed": true,
          "internalType": "address",
          "name": "courier",
          "type": "address"
        },
        {
          "indexed": false,
          "internalType": "uint256",
          "name": "timestamp",
          "type": "uint256"
        }
      ],
      "name": "Accepted",
      "type": "event"
    },
    {
      "anonymous": false,
      "inputs": [
        {
          "indexed": true,
          "internalType": "address",
          "name": "newAddress",
          "type": "address"
        }
      ],
      "name": "PrescriptionAddressUpdated",
      "type": "event"
    },
    {
      "anonymous": false,
      "inputs": [
        {
          "indexed": true,
          "internalType": "uint256",
          "name": "prescriptionId",
          "type": "uint256"
        },
        {
          "indexed": true,
          "internalType": "address",
          "name": "by",
          "type": "address"
        }
      ],
      "name": "Unaccepted",
      "type": "event"
    },
    {
      "inputs": [
        {
          "internalType": "uint256",
          "name": "",
          "type": "uint256"
        }
      ],
      "name": "accepts",
      "outputs": [
        {
          "internalType": "uint256",
          "name": "prescriptionId",
          "type": "uint256"
        },
        {
          "internalType": "address",
          "name": "courier",
          "type": "address"
        },
        {
          "internalType": "uint256",
          "name": "timestamp",
          "type": "uint256"
        }
      ],
      "stateMutability": "view",
      "type": "function",
      "constant": true
    },
    {
      "inputs": [],
      "name": "admin",
      "outputs": [
        {
          "internalType": "address",
          "name": "",
          "type": "address"
        }
      ],
      "stateMutability": "view",
      "type": "function",
      "constant": true
    },
    {
      "inputs": [
        {
          "internalType": "uint256",
          "name": "",
          "type": "uint256"
        }
      ],
      "name": "isAccepted",
      "outputs": [
        {
          "internalType": "bool",
          "name": "",
          "type": "bool"
        }
      ],
      "stateMutability": "view",
      "type": "function",
      "constant": true
    },
    {
      "inputs": [],
      "name": "prescription",
      "outputs": [
        {
          "internalType": "contract IPrescription",
          "name": "",
          "type": "address"
        }
      ],
      "stateMutability": "view",
      "type": "function",
      "constant": true
    },
    {
      "inputs": [
        {
          "internalType": "address",
          "name": "_newAddress",
          "type": "address"
        }
      ],
      "name": "setPrescriptionContract",
      "outputs": [],
      "stateMutability": "nonpayable",
      "type": "function"
    },
    {
      "inputs": [
        {
          "internalType": "uint256",
          "name": "_prescriptionId",
          "type": "uint256"
        }
      ],
      "name": "accept",
      "outputs": [],
      "stateMutability": "nonpayable",
      "type": "function"
    },
    {
      "inputs": [
        {
          "internalType": "uint256",
          "name": "_prescriptionId",
          "type": "uint256"
        }
      ],
      "name": "unaccept",
      "outputs": [],
      "stateMutability": "nonpayable",
      "type": "function"
    },
    {
      "inputs": [
        {
          "internalType": "uint256",
          "name": "_prescriptionId",
          "type": "uint256"
        }
      ],
      "name": "getAcceptInfo",
      "outputs": [
        {
          "components": [
            {
              "internalType": "uint256",
              "name": "prescriptionId",
              "type": "uint256"
            },
            {
              "internalType": "address",
              "name": "courier",
              "type": "address"
            },
            {
              "internalType": "uint256",
              "name": "timestamp",
              "type": "uint256"
            }
          ],
          "internalType": "struct DeliveryAccept.AcceptRecord",
          "name": "rec",
          "type": "tuple"
        },
        {
          "internalType": "bool",
          "name": "accepted",
          "type": "bool"
        }
      ],
      "stateMutability": "view",
      "type": "function",
      "constant": true
    }
  ],
  "bytecode": "0x608060405234801561001057600080fd5b5060405161075c38038061075c83398101604081905261002f916100aa565b6001600160a01b0381166100775760405162461bcd60e51b815260206004820152600b60248201526a426164206164647265737360a81b604482015260640160405180910390fd5b60018054336001600160a01b031991821617909155600080549091166001600160a01b03929092169190911790556100da565b6000602082840312156100bc57600080fd5b81516001600160a01b03811681146100d357600080fd5b9392505050565b610673806100e96000396000f3fe608060405234801561001057600080fd5b50600436106100885760003560e01c8063af151ccc1161005b578063af151ccc14610132578063ce5ce7231461015d578063e5866c2f146101ba578063f851a440146101cd57600080fd5b80630fc968951461008d57806319b05f49146100d757806329bc3b85146100ec5780639995c2051461011f575b600080fd5b6100a061009b3660046105d2565b6101e0565b60408051835181526020808501516001600160a01b0316908201529281015190830152151560608201526080015b60405180910390f35b6100ea6100e53660046105d2565b61025e565b005b61010f6100fa3660046105d2565b60036020526000908152604090205460ff1681565b60405190151581526020016100ce565b6100ea61012d3660046105eb565b610406565b600054610145906001600160a01b031681565b6040516001600160a01b0390911681526020016100ce565b61019761016b3660046105d2565b60026020819052600091825260409091208054600182015491909201546001600160a01b039091169083565b604080519384526001600160a01b039092166020840152908201526060016100ce565b6100ea6101c83660046105d2565b6104d8565b600154610145906001600160a01b031681565b61020d60405180606001604052806000815260200160006001600160a01b03168152602001600081525090565b50600090815260026020818152604080842060038352938190205481516060810183528554815260018601546001600160a01b0316938101939093529390920154918101919091529160ff90911690565b60008181526003602052604090205460ff16156102b55760405162461bcd60e51b815260206004820152601060248201526f105b1c9958591e481858d8d95c1d195960821b60448201526064015b60405180910390fd5b60005460405162f577a560e81b8152600481018390526001600160a01b039091169063f577a50090602401602060405180830381865afa1580156102fd573d6000803e3d6000fd5b505050506040513d601f19601f82011682018060405250810190610321919061061b565b61035f5760405162461bcd60e51b815260206004820152600f60248201526e125b9d985b1a590bd95e1c1a5c9959608a1b60448201526064016102ac565b604080516060810182528281523360208083018281524284860181815260008881526002808652888220975188559351600180890180546001600160a01b0319166001600160a01b0390931692909217909155915196909301959095556003835290859020805460ff191690941790935592519182529183917fac20b1ff5ea3a21c49e3062cbd56ba02dcc15a512d9ed38ea811bfadbdc06ce5910160405180910390a350565b6001546001600160a01b0316331461044c5760405162461bcd60e51b81526020600482015260096024820152682737ba1030b236b4b760b91b60448201526064016102ac565b6001600160a01b0381166104905760405162461bcd60e51b815260206004820152600b60248201526a426164206164647265737360a81b60448201526064016102ac565b600080546001600160a01b0319166001600160a01b038316908117825560405190917fb4f468c2483a81030ead82f325271c9ef237a840a48869d2fdc7c7e346776b4f91a250565b6001546001600160a01b0316331461051e5760405162461bcd60e51b81526020600482015260096024820152682737ba1030b236b4b760b91b60448201526064016102ac565b60008181526003602052604090205460ff1661056b5760405162461bcd60e51b815260206004820152600c60248201526b139bdd081858d8d95c1d195960a21b60448201526064016102ac565b60008181526002602081815260408084208481556001810180546001600160a01b031916905590920183905560039052808220805460ff1916905551339183917f439eb82df5a0a9988c74edced983402410172bba27c84e70c107ab796b2ffa8c9190a350565b6000602082840312156105e457600080fd5b5035919050565b6000602082840312156105fd57600080fd5b81356001600160a01b038116811461061457600080fd5b9392505050565b60006020828403121561062d57600080fd5b8151801515811461061457600080fdfea2646970667358221220dbd2cb8b7871c5094e809a8b7b47a089c99fd43a59c44603cd18a3397654d08e64736f6c63430008130033",
  "immutableReferences": {},
  "source": "// SPDX-License-Identifier: MIT\r\npragma solidity ^0.8.19;\r\n\r\ninterface IPrescription {\r\n    function isValid(uint256 id) external view returns (bool);\r\n}\r\n\r\n/// @title DeliveryAccept\r\n/// @notice           .\r\n///            \"\"    .\r\n///                 .\r\ncontract DeliveryAccept {\r\n    IPrescription public prescription;\r\n    address public admin;\r\n\r\n    struct AcceptRecord {\r\n        uint256 prescriptionId;\r\n        address courier;       //     (   )\r\n        uint256 timestamp;     //  \r\n    }\r\n\r\n    // prescriptionId =>  \r\n    mapping(uint256 => AcceptRecord) public accepts;\r\n    // prescriptionId =>   \r\n    mapping(uint256 => bool) public isAccepted;\r\n\r\n    event PrescriptionAddressUpdated(address indexed newAddress);\r\n    event Accepted(uint256 indexed prescriptionId, address indexed courier, uint256 timestamp);\r\n    event Unaccepted(uint256 indexed prescriptionId, address indexed by);\r\n\r\n    modifier onlyAdmin() {\r\n        require(msg.sender == admin, \"Not admin\");\r\n        _;\r\n    }\r\n\r\n    constructor(address _prescriptionAddress) {\r\n        require(_prescriptionAddress != address(0), \"Bad address\");\r\n        admin = msg.sender;\r\n        prescription = IPrescription(_prescriptionAddress);\r\n    }\r\n\r\n    /// @notice      \r\n    function setPrescriptionContract(address _newAddress) external onlyAdmin {\r\n        require(_newAddress != address(0), \"Bad address\");\r\n        prescription = IPrescription(_newAddress);\r\n        emit PrescriptionAddressUpdated(_newAddress);\r\n    }\r\n\r\n    /// @notice    (  )\r\n    function accept(uint256 _prescriptionId) external {\r\n        require(!isAccepted[_prescriptionId], \"Already accepted\");\r\n        require(prescription.isValid(_prescriptionId), \"Invalid/expired\");\r\n\r\n        accepts[_prescriptionId] = AcceptRecord({\r\n            prescriptionId: _prescriptionId,\r\n            courier: msg.sender,\r\n            timestamp: block.timestamp\r\n        });\r\n\r\n        isAccepted[_prescriptionId] = true;\r\n        emit Accepted(_prescriptionId, msg.sender, block.timestamp);\r\n    }\r\n\r\n    /// @notice   ( )     \r\n    function unaccept(uint256 _prescriptionId) external onlyAdmin {\r\n        require(isAccepted[_prescriptionId], \"Not accepted\");\r\n        delete accepts[_prescriptionId];\r\n        isAccepted[_prescriptionId] = false;\r\n        emit Unaccepted(_prescriptionId, msg.sender);\r\n    }\r\n\r\n    /// @notice    \r\n    function getAcceptInfo(uint256 _prescriptionId)\r\n        external\r\n        view\r\n        returns (AcceptRecord memory rec, bool accepted)\r\n    {\r\n        return (accepts[_prescriptionId], isAccepted[_prescriptionId]);\r\n    }\r\n}\r\n",
  "sourcePath": "C:\\Users\\hp\\Desktop\\2025_GP_G29\\contracts\\contracts\\AcceptDelivery.sol",
  "compiler": {
    "name": "solc",
    "version": "0.8.19+commit.7dd6d404.Emscripten.clang"
  },
  "schemaVersion": "3.4.16",
  "updatedAt": "2025-11-22T20:04:11.054Z",
  "networkType": "ethereum",
  "devdoc": {
    "kind": "dev",
    "methods": {},
    "title": "DeliveryAccept",
    "version": 1
  },
  "userdoc": {
    "kind": "user",
    "methods": {
      "accept(uint256)": {
        "notice": "   (  )"
      },
      "getAcceptInfo(uint256)": {
        "notice": "   "
      },
      "setPrescriptionContract(address)": {
        "notice": "     "
      },
      "unaccept(uint256)": {
        "notice": "  ( )     "
      }
    },
    "notice": "          .            \"\"    .                 .",
    "version": 1
  }
}