{
  "contractName": "DeliveryConfirmation",
  "abi": [
    {
      "inputs": [
        {
          "internalType": "address[]",
          "name": "logisticsList",
          "type": "address[]"
        }
      ],
      "stateMutability": "nonpayable",
      "type": "constructor"
    },
    {
      "anonymous": false,
      "inputs": [
        {
          "indexed": true,
          "internalType": "uint256",
          "name": "prescriptionId",
          "type": "uint256"
        },
        {
          "indexed": true,
          "internalType": "address",
          "name": "logistics",
          "type": "address"
        }
      ],
      "name": "DeliveryConfirmed",
      "type": "event"
    },
    {
      "inputs": [
        {
          "internalType": "uint256",
          "name": "",
          "type": "uint256"
        }
      ],
      "name": "deliveries",
      "outputs": [
        {
          "internalType": "bool",
          "name": "delivered",
          "type": "bool"
        },
        {
          "internalType": "address",
          "name": "logistics",
          "type": "address"
        },
        {
          "internalType": "uint256",
          "name": "deliveredAt",
          "type": "uint256"
        }
      ],
      "stateMutability": "view",
      "type": "function",
      "constant": true
    },
    {
      "inputs": [
        {
          "internalType": "address",
          "name": "",
          "type": "address"
        }
      ],
      "name": "isLogistics",
      "outputs": [
        {
          "internalType": "bool",
          "name": "",
          "type": "bool"
        }
      ],
      "stateMutability": "view",
      "type": "function",
      "constant": true
    },
    {
      "inputs": [
        {
          "internalType": "uint256",
          "name": "prescriptionId",
          "type": "uint256"
        }
      ],
      "name": "confirmDelivery",
      "outputs": [],
      "stateMutability": "nonpayable",
      "type": "function"
    }
  ],
  "bytecode": "0x608060405234801561001057600080fd5b5060405161044c38038061044c83398101604081905261002f916100cf565b60005b815181101561009657600160008084848151811061005257610052610193565b6020908102919091018101516001600160a01b03168252810191909152604001600020805460ff19169115159190911790558061008e816101a9565b915050610032565b50506101d0565b634e487b7160e01b600052604160045260246000fd5b80516001600160a01b03811681146100ca57600080fd5b919050565b600060208083850312156100e257600080fd5b82516001600160401b03808211156100f957600080fd5b818501915085601f83011261010d57600080fd5b81518181111561011f5761011f61009d565b8060051b604051601f19603f830116810181811085821117156101445761014461009d565b60405291825284820192508381018501918883111561016257600080fd5b938501935b8285101561018757610178856100b3565b84529385019392850192610167565b98975050505050505050565b634e487b7160e01b600052603260045260246000fd5b6000600182016101c957634e487b7160e01b600052601160045260246000fd5b5060010190565b61026d806101df6000396000f3fe608060405234801561001057600080fd5b50600436106100415760003560e01c80638305866f14610046578063a9e4a3241461007e578063fd84cb97146100de575b600080fd5b6100696100543660046101ee565b60006020819052908152604090205460ff1681565b60405190151581526020015b60405180910390f35b6100b961008c36600461021e565b6001602081905260009182526040909120805491015460ff82169161010090046001600160a01b03169083565b6040805193151584526001600160a01b03909216602084015290820152606001610075565b6100f16100ec36600461021e565b6100f3565b005b3360009081526020819052604090205460ff166101475760405162461bcd60e51b815260206004820152600d60248201526c4e6f74206c6f6769737469637360981b60448201526064015b60405180910390fd5b6000818152600160205260409020805460ff161561019b5760405162461bcd60e51b8152602060048201526011602482015270105b1c9958591e4819195b1a5d995c9959607a1b604482015260640161013e565b80543361010081026001600160a81b03199092169190911760019081178355429083015560405183907f64a783c6150854ae756454311c7625a965c757996ba8cc1a8c6205380f33725090600090a35050565b60006020828403121561020057600080fd5b81356001600160a01b038116811461021757600080fd5b9392505050565b60006020828403121561023057600080fd5b503591905056fea26469706673582212201d310d0166e6178383058ae46f97c266f39d38e8950e05d3c6422e43f12046b664736f6c63430008130033",
  "immutableReferences": {},
  "source": "// SPDX-License-Identifier: MIT\r\npragma solidity ^0.8.19;\r\n\r\ncontract DeliveryConfirmation {\r\n    struct Delivery {\r\n        bool delivered;\r\n        address logistics;\r\n        uint256 deliveredAt;\r\n    }\r\n\r\n    mapping(address => bool) public isLogistics;\r\n    mapping(uint256 => Delivery) public deliveries;\r\n\r\n    event DeliveryConfirmed(uint256 indexed prescriptionId, address indexed logistics);\r\n\r\n    constructor(address[] memory logisticsList) {\r\n        for (uint256 i = 0; i < logisticsList.length; i++) {\r\n            isLogistics[logisticsList[i]] = true;\r\n        }\r\n    }\r\n\r\n    function confirmDelivery(uint256 prescriptionId) external {\r\n        require(isLogistics[msg.sender], \"Not logistics\");\r\n        Delivery storage d = deliveries[prescriptionId];\r\n        require(!d.delivered, \"Already delivered\");\r\n\r\n        d.delivered = true;\r\n        d.logistics = msg.sender;\r\n        d.deliveredAt = block.timestamp;\r\n\r\n        emit DeliveryConfirmed(prescriptionId, msg.sender);\r\n    }\r\n}\r\n",
  "sourcePath": "C:\\Users\\hp\\Desktop\\2025_GP_G29\\contracts\\DeliveryConfirmation.sol",
  "compiler": {
    "name": "solc",
    "version": "0.8.19+commit.7dd6d404.Emscripten.clang"
  },
  "schemaVersion": "3.4.16",
  "updatedAt": "2025-11-22T17:52:55.643Z",
  "networkType": "ethereum",
  "devdoc": {
    "kind": "dev",
    "methods": {},
    "version": 1
  },
  "userdoc": {
    "kind": "user",
    "methods": {},
    "version": 1
  }
}