{
  "contractName": "DeliveryAccept",
  "abi": [
    {
      "inputs": [
        {
          "internalType": "address",
          "name": "_prescriptionAddress",
          "type": "address"
        }
      ],
      "stateMutability": "nonpayable",
      "type": "constructor"
    },
    {
      "anonymous": false,
      "inputs": [
        {
          "indexed": true,
          "internalType": "uint256",
          "name": "prescriptionId",
          "type": "uint256"
        },
        {
          "indexed": true,
          "internalType": "address",
          "name": "courier",
          "type": "address"
        },
        {
          "indexed": false,
          "internalType": "uint256",
          "name": "timestamp",
          "type": "uint256"
        }
      ],
      "name": "Accepted",
      "type": "event"
    },
    {
      "anonymous": false,
      "inputs": [
        {
          "indexed": false,
          "internalType": "uint256[]",
          "name": "prescriptionIds",
          "type": "uint256[]"
        },
        {
          "indexed": true,
          "internalType": "address",
          "name": "courier",
          "type": "address"
        },
        {
          "indexed": false,
          "internalType": "uint256",
          "name": "timestamp",
          "type": "uint256"
        }
      ],
      "name": "AcceptedMany",
      "type": "event"
    },
    {
      "anonymous": false,
      "inputs": [
        {
          "indexed": true,
          "internalType": "address",
          "name": "newAddress",
          "type": "address"
        }
      ],
      "name": "PrescriptionAddressUpdated",
      "type": "event"
    },
    {
      "anonymous": false,
      "inputs": [
        {
          "indexed": true,
          "internalType": "uint256",
          "name": "prescriptionId",
          "type": "uint256"
        },
        {
          "indexed": true,
          "internalType": "address",
          "name": "by",
          "type": "address"
        }
      ],
      "name": "Unaccepted",
      "type": "event"
    },
    {
      "inputs": [
        {
          "internalType": "uint256",
          "name": "",
          "type": "uint256"
        }
      ],
      "name": "accepts",
      "outputs": [
        {
          "internalType": "uint256",
          "name": "prescriptionId",
          "type": "uint256"
        },
        {
          "internalType": "address",
          "name": "courier",
          "type": "address"
        },
        {
          "internalType": "uint256",
          "name": "timestamp",
          "type": "uint256"
        }
      ],
      "stateMutability": "view",
      "type": "function",
      "constant": true
    },
    {
      "inputs": [],
      "name": "admin",
      "outputs": [
        {
          "internalType": "address",
          "name": "",
          "type": "address"
        }
      ],
      "stateMutability": "view",
      "type": "function",
      "constant": true
    },
    {
      "inputs": [
        {
          "internalType": "uint256",
          "name": "",
          "type": "uint256"
        }
      ],
      "name": "isAccepted",
      "outputs": [
        {
          "internalType": "bool",
          "name": "",
          "type": "bool"
        }
      ],
      "stateMutability": "view",
      "type": "function",
      "constant": true
    },
    {
      "inputs": [],
      "name": "prescription",
      "outputs": [
        {
          "internalType": "contract IPrescription",
          "name": "",
          "type": "address"
        }
      ],
      "stateMutability": "view",
      "type": "function",
      "constant": true
    },
    {
      "inputs": [
        {
          "internalType": "address",
          "name": "_newAddress",
          "type": "address"
        }
      ],
      "name": "setPrescriptionContract",
      "outputs": [],
      "stateMutability": "nonpayable",
      "type": "function"
    },
    {
      "inputs": [
        {
          "internalType": "uint256",
          "name": "_prescriptionId",
          "type": "uint256"
        }
      ],
      "name": "accept",
      "outputs": [],
      "stateMutability": "nonpayable",
      "type": "function"
    },
    {
      "inputs": [
        {
          "internalType": "uint256[]",
          "name": "_prescriptionIds",
          "type": "uint256[]"
        }
      ],
      "name": "acceptMany",
      "outputs": [],
      "stateMutability": "nonpayable",
      "type": "function"
    },
    {
      "inputs": [
        {
          "internalType": "uint256[]",
          "name": "_prescriptionIds",
          "type": "uint256[]"
        }
      ],
      "name": "acceptMultiple",
      "outputs": [],
      "stateMutability": "nonpayable",
      "type": "function"
    },
    {
      "inputs": [
        {
          "internalType": "uint256",
          "name": "_prescriptionId",
          "type": "uint256"
        }
      ],
      "name": "unaccept",
      "outputs": [],
      "stateMutability": "nonpayable",
      "type": "function"
    },
    {
      "inputs": [
        {
          "internalType": "uint256",
          "name": "_prescriptionId",
          "type": "uint256"
        }
      ],
      "name": "getAcceptInfo",
      "outputs": [
        {
          "components": [
            {
              "internalType": "uint256",
              "name": "prescriptionId",
              "type": "uint256"
            },
            {
              "internalType": "address",
              "name": "courier",
              "type": "address"
            },
            {
              "internalType": "uint256",
              "name": "timestamp",
              "type": "uint256"
            }
          ],
          "internalType": "struct DeliveryAccept.AcceptRecord",
          "name": "rec",
          "type": "tuple"
        },
        {
          "internalType": "bool",
          "name": "accepted",
          "type": "bool"
        }
      ],
      "stateMutability": "view",
      "type": "function",
      "constant": true
    }
  ],
  "bytecode": "0x608060405234801561001057600080fd5b50604051610ae7380380610ae783398101604081905261002f916100aa565b6001600160a01b0381166100775760405162461bcd60e51b815260206004820152600b60248201526a426164206164647265737360a81b604482015260640160405180910390fd5b60018054336001600160a01b031991821617909155600080549091166001600160a01b03929092169190911790556100da565b6000602082840312156100bc57600080fd5b81516001600160a01b03811681146100d357600080fd5b9392505050565b6109fe806100e96000396000f3fe608060405234801561001057600080fd5b506004361061009e5760003560e01c80639995c205116100665780639995c20514610148578063af151ccc1461015b578063ce5ce72314610186578063e5866c2f146101e3578063f851a440146101f657600080fd5b80630fc96895146100a3578063186c11a1146100ed57806319b05f491461010257806329bc3b85146101155780633c0d0503146100ed575b600080fd5b6100b66100b136600461086d565b610209565b60408051835181526020808501516001600160a01b0316908201529281015190830152151560608201526080015b60405180910390f35b6101006100fb366004610886565b610287565b005b61010061011036600461086d565b610295565b61013861012336600461086d565b60036020526000908152604090205460ff1681565b60405190151581526020016100e4565b6101006101563660046108fb565b61043d565b60005461016e906001600160a01b031681565b6040516001600160a01b0390911681526020016100e4565b6101c061019436600461086d565b60026020819052600091825260409091208054600182015491909201546001600160a01b039091169083565b604080519384526001600160a01b039092166020840152908201526060016100e4565b6101006101f136600461086d565b61050f565b60015461016e906001600160a01b031681565b61023660405180606001604052806000815260200160006001600160a01b03168152602001600081525090565b50600090815260026020818152604080842060038352938190205481516060810183528554815260018601546001600160a01b0316938101939093529390920154918101919091529160ff90911690565b6102918282610609565b5050565b60008181526003602052604090205460ff16156102ec5760405162461bcd60e51b815260206004820152601060248201526f105b1c9958591e481858d8d95c1d195960821b60448201526064015b60405180910390fd5b60005460405162f577a560e81b8152600481018390526001600160a01b039091169063f577a50090602401602060405180830381865afa158015610334573d6000803e3d6000fd5b505050506040513d601f19601f82011682018060405250810190610358919061092b565b6103965760405162461bcd60e51b815260206004820152600f60248201526e125b9d985b1a590bd95e1c1a5c9959608a1b60448201526064016102e3565b604080516060810182528281523360208083018281524284860181815260008881526002808652888220975188559351600180890180546001600160a01b0319166001600160a01b0390931692909217909155915196909301959095556003835290859020805460ff191690941790935592519182529183917fac20b1ff5ea3a21c49e3062cbd56ba02dcc15a512d9ed38ea811bfadbdc06ce5910160405180910390a350565b6001546001600160a01b031633146104835760405162461bcd60e51b81526020600482015260096024820152682737ba1030b236b4b760b91b60448201526064016102e3565b6001600160a01b0381166104c75760405162461bcd60e51b815260206004820152600b60248201526a426164206164647265737360a81b60448201526064016102e3565b600080546001600160a01b0319166001600160a01b038316908117825560405190917fb4f468c2483a81030ead82f325271c9ef237a840a48869d2fdc7c7e346776b4f91a250565b6001546001600160a01b031633146105555760405162461bcd60e51b81526020600482015260096024820152682737ba1030b236b4b760b91b60448201526064016102e3565b60008181526003602052604090205460ff166105a25760405162461bcd60e51b815260206004820152600c60248201526b139bdd081858d8d95c1d195960a21b60448201526064016102e3565b60008181526002602081815260408084208481556001810180546001600160a01b031916905590920183905560039052808220805460ff1916905551339183917f439eb82df5a0a9988c74edced983402410172bba27c84e70c107ab796b2ffa8c9190a350565b806106435760405162461bcd60e51b815260206004820152600a602482015269115b5c1d1e481b1a5cdd60b21b60448201526064016102e3565b4260005b828110156108225760008484838181106106635761066361094d565b60209081029290920135600081815260039093526040909220549192505060ff16156106c45760405162461bcd60e51b815260206004820152601060248201526f105b1c9958591e481858d8d95c1d195960821b60448201526064016102e3565b60005460405162f577a560e81b8152600481018390526001600160a01b039091169063f577a50090602401602060405180830381865afa15801561070c573d6000803e3d6000fd5b505050506040513d601f19601f82011682018060405250810190610730919061092b565b61076e5760405162461bcd60e51b815260206004820152600f60248201526e125b9d985b1a590bd95e1c1a5c9959608a1b60448201526064016102e3565b6040805160608101825282815233602080830182815283850188815260008781526002808552878220965187559251600180880180546001600160a01b0319166001600160a01b03909316929092179091559151959092019490945560038252849020805460ff1916909317909255915185815283917fac20b1ff5ea3a21c49e3062cbd56ba02dcc15a512d9ed38ea811bfadbdc06ce5910160405180910390a3508061081a81610963565b915050610647565b50336001600160a01b03167f6cdd03f10527535b3348d1a2c88bce9d7ac931458073eb3c7054e58aef83285a8484846040516108609392919061098a565b60405180910390a2505050565b60006020828403121561087f57600080fd5b5035919050565b6000806020838503121561089957600080fd5b823567ffffffffffffffff808211156108b157600080fd5b818501915085601f8301126108c557600080fd5b8135818111156108d457600080fd5b8660208260051b85010111156108e957600080fd5b60209290920196919550909350505050565b60006020828403121561090d57600080fd5b81356001600160a01b038116811461092457600080fd5b9392505050565b60006020828403121561093d57600080fd5b8151801515811461092457600080fd5b634e487b7160e01b600052603260045260246000fd5b60006001820161098357634e487b7160e01b600052601160045260246000fd5b5060010190565b6040808252810183905260006001600160fb1b038411156109aa57600080fd5b8360051b80866060850137602083019390935250016060019291505056fea2646970667358221220d8697fbc88ffd1320ef7a0b213994665347a4db964ae10d8afad6c5bbea22acd64736f6c63430008130033",
  "immutableReferences": {},
  "source": "// SPDX-License-Identifier: MIT\r\npragma solidity ^0.8.19;\r\n\r\ninterface IPrescription {\r\n    function isValid(uint256 id) external view returns (bool);\r\n}\r\n\r\ncontract DeliveryAccept {\r\n    IPrescription public prescription;\r\n    address public admin;\r\n\r\n    struct AcceptRecord {\r\n        uint256 prescriptionId;\r\n        address courier;\r\n        uint256 timestamp;\r\n    }\r\n\r\n    mapping(uint256 => AcceptRecord) public accepts;\r\n    mapping(uint256 => bool) public isAccepted;\r\n\r\n    event PrescriptionAddressUpdated(address indexed newAddress);\r\n    event Accepted(uint256 indexed prescriptionId, address indexed courier, uint256 timestamp);\r\n    event Unaccepted(uint256 indexed prescriptionId, address indexed by);\r\n    event AcceptedMany(uint256[] prescriptionIds, address indexed courier, uint256 timestamp);\r\n\r\n    modifier onlyAdmin() {\r\n        require(msg.sender == admin, \"Not admin\");\r\n        _;\r\n    }\r\n\r\n    constructor(address _prescriptionAddress) {\r\n        require(_prescriptionAddress != address(0), \"Bad address\");\r\n        admin = msg.sender;\r\n        prescription = IPrescription(_prescriptionAddress);\r\n    }\r\n\r\n    function setPrescriptionContract(address _newAddress) external onlyAdmin {\r\n        require(_newAddress != address(0), \"Bad address\");\r\n        prescription = IPrescription(_newAddress);\r\n        emit PrescriptionAddressUpdated(_newAddress);\r\n    }\r\n\r\n    function accept(uint256 _prescriptionId) external {\r\n        require(!isAccepted[_prescriptionId], \"Already accepted\");\r\n        require(prescription.isValid(_prescriptionId), \"Invalid/expired\");\r\n\r\n        accepts[_prescriptionId] = AcceptRecord({\r\n            prescriptionId: _prescriptionId,\r\n            courier: msg.sender,\r\n            timestamp: block.timestamp\r\n        });\r\n\r\n        isAccepted[_prescriptionId] = true;\r\n        emit Accepted(_prescriptionId, msg.sender, block.timestamp);\r\n    }\r\n\r\n    function acceptMany(uint256[] calldata _prescriptionIds) external {\r\n        _acceptBatch(_prescriptionIds);\r\n    }\r\n\r\n    function acceptMultiple(uint256[] calldata _prescriptionIds) external {\r\n        _acceptBatch(_prescriptionIds);\r\n    }\r\n\r\n    function _acceptBatch(uint256[] calldata _prescriptionIds) internal {\r\n        require(_prescriptionIds.length > 0, \"Empty list\");\r\n\r\n        uint256 ts = block.timestamp;\r\n\r\n        for (uint256 i = 0; i < _prescriptionIds.length; i++) {\r\n            uint256 id = _prescriptionIds[i];\r\n\r\n            require(!isAccepted[id], \"Already accepted\");\r\n            require(prescription.isValid(id), \"Invalid/expired\");\r\n\r\n            accepts[id] = AcceptRecord({\r\n                prescriptionId: id,\r\n                courier: msg.sender,\r\n                timestamp: ts\r\n            });\r\n\r\n            isAccepted[id] = true;\r\n            emit Accepted(id, msg.sender, ts);\r\n        }\r\n\r\n        emit AcceptedMany(_prescriptionIds, msg.sender, ts);\r\n    }\r\n\r\n    function unaccept(uint256 _prescriptionId) external onlyAdmin {\r\n        require(isAccepted[_prescriptionId], \"Not accepted\");\r\n        delete accepts[_prescriptionId];\r\n        isAccepted[_prescriptionId] = false;\r\n        emit Unaccepted(_prescriptionId, msg.sender);\r\n    }\r\n\r\n    function getAcceptInfo(uint256 _prescriptionId)\r\n        external\r\n        view\r\n        returns (AcceptRecord memory rec, bool accepted)\r\n    {\r\n        return (accepts[_prescriptionId], isAccepted[_prescriptionId]);\r\n    }\r\n}",
  "sourcePath": "C:\\Users\\aljaw\\2025_GP_G29-5\\contracts\\contracts\\AcceptDelivery.sol",
  "compiler": {
    "name": "solc",
    "version": "0.8.19+commit.7dd6d404.Emscripten.clang"
  },
  "schemaVersion": "3.4.16",
  "updatedAt": "2026-04-03T19:19:37.524Z",
  "networkType": "ethereum",
  "devdoc": {
    "kind": "dev",
    "methods": {},
    "version": 1
  },
  "userdoc": {
    "kind": "user",
    "methods": {},
    "version": 1
  }
}