{
  "contractName": "DeliveryConfirmation",
  "abi": [
    {
      "inputs": [
        {
          "internalType": "address",
          "name": "_prescriptionAddress",
          "type": "address"
        },
        {
          "internalType": "address[]",
          "name": "logisticsList",
          "type": "address[]"
        }
      ],
      "stateMutability": "nonpayable",
      "type": "constructor"
    },
    {
      "anonymous": false,
      "inputs": [
        {
          "indexed": true,
          "internalType": "uint256",
          "name": "prescriptionId",
          "type": "uint256"
        },
        {
          "indexed": true,
          "internalType": "address",
          "name": "logistics",
          "type": "address"
        }
      ],
      "name": "DeliveryConfirmed",
      "type": "event"
    },
    {
      "inputs": [
        {
          "internalType": "uint256",
          "name": "",
          "type": "uint256"
        }
      ],
      "name": "deliveries",
      "outputs": [
        {
          "internalType": "bool",
          "name": "delivered",
          "type": "bool"
        },
        {
          "internalType": "address",
          "name": "logistics",
          "type": "address"
        },
        {
          "internalType": "uint256",
          "name": "deliveredAt",
          "type": "uint256"
        }
      ],
      "stateMutability": "view",
      "type": "function",
      "constant": true
    },
    {
      "inputs": [
        {
          "internalType": "address",
          "name": "",
          "type": "address"
        }
      ],
      "name": "isLogistics",
      "outputs": [
        {
          "internalType": "bool",
          "name": "",
          "type": "bool"
        }
      ],
      "stateMutability": "view",
      "type": "function",
      "constant": true
    },
    {
      "inputs": [],
      "name": "prescription",
      "outputs": [
        {
          "internalType": "contract IPrescription",
          "name": "",
          "type": "address"
        }
      ],
      "stateMutability": "view",
      "type": "function",
      "constant": true
    },
    {
      "inputs": [
        {
          "internalType": "uint256",
          "name": "prescriptionId",
          "type": "uint256"
        }
      ],
      "name": "confirmDelivery",
      "outputs": [],
      "stateMutability": "nonpayable",
      "type": "function"
    },
    {
      "inputs": [
        {
          "internalType": "uint256[]",
          "name": "prescriptionIds",
          "type": "uint256[]"
        }
      ],
      "name": "confirmMultipleDeliveries",
      "outputs": [],
      "stateMutability": "nonpayable",
      "type": "function"
    }
  ],
  "bytecode": "0x608060405234801561001057600080fd5b5060405161092138038061092183398101604081905261002f91610136565b6001600160a01b03821661007c5760405162461bcd60e51b815260206004820152601060248201526f2130b210383932b9b1b934b83a34b7b760811b604482015260640160405180910390fd5b600080546001600160a01b0319166001600160a01b0384161781555b81518110156100fc5760018060008484815181106100b8576100b861020f565b6020908102919091018101516001600160a01b03168252810191909152604001600020805460ff1916911515919091179055806100f481610225565b915050610098565b50505061024c565b80516001600160a01b038116811461011b57600080fd5b919050565b634e487b7160e01b600052604160045260246000fd5b6000806040838503121561014957600080fd5b61015283610104565b602084810151919350906001600160401b038082111561017157600080fd5b818601915086601f83011261018557600080fd5b81518181111561019757610197610120565b8060051b604051601f19603f830116810181811085821117156101bc576101bc610120565b6040529182528482019250838101850191898311156101da57600080fd5b938501935b828510156101ff576101f085610104565b845293850193928501926101df565b8096505050505050509250929050565b634e487b7160e01b600052603260045260246000fd5b60006001820161024557634e487b7160e01b600052601160045260246000fd5b5060010190565b6106c68061025b6000396000f3fe608060405234801561001057600080fd5b50600436106100575760003560e01c80632bde24151461005c5780638305866f14610071578063a9e4a324146100a9578063af151ccc14610109578063fd84cb9714610134575b600080fd5b61006f61006a36600461052a565b610147565b005b61009461007f3660046105e8565b60016020526000908152604090205460ff1681565b60405190151581526020015b60405180910390f35b6100e46100b7366004610618565b6002602052600090815260409020805460019091015460ff82169161010090046001600160a01b03169083565b6040805193151584526001600160a01b039092166020840152908201526060016100a0565b60005461011c906001600160a01b031681565b6040516001600160a01b0390911681526020016100a0565b61006f610142366004610618565b610374565b3360009081526001602052604090205460ff1661019b5760405162461bcd60e51b815260206004820152600d60248201526c4e6f74206c6f6769737469637360981b60448201526064015b60405180910390fd5b60008151116101e25760405162461bcd60e51b8152602060048201526013602482015272456d70747920707265736372697074696f6e7360681b6044820152606401610192565b60005b815181101561037057600082828151811061020257610202610631565b602090810291909101015160005460405162f577a560e81b8152600481018390529192506001600160a01b03169063f577a50090602401602060405180830381865afa158015610256573d6000803e3d6000fd5b505050506040513d601f19601f8201168201806040525081019061027a9190610647565b6102b85760405162461bcd60e51b815260206004820152600f60248201526e125b9d985b1a590bd95e1c1a5c9959608a1b6044820152606401610192565b6000818152600260205260409020805460ff161561030c5760405162461bcd60e51b8152602060048201526011602482015270105b1c9958591e4819195b1a5d995c9959607a1b6044820152606401610192565b80543361010081026001600160a81b03199092169190911760019081178355429083015560405183907f64a783c6150854ae756454311c7625a965c757996ba8cc1a8c6205380f33725090600090a35050808061036890610669565b9150506101e5565b5050565b3360009081526001602052604090205460ff166103c35760405162461bcd60e51b815260206004820152600d60248201526c4e6f74206c6f6769737469637360981b6044820152606401610192565b60005460405162f577a560e81b8152600481018390526001600160a01b039091169063f577a50090602401602060405180830381865afa15801561040b573d6000803e3d6000fd5b505050506040513d601f19601f8201168201806040525081019061042f9190610647565b61046d5760405162461bcd60e51b815260206004820152600f60248201526e125b9d985b1a590bd95e1c1a5c9959608a1b6044820152606401610192565b6000818152600260205260409020805460ff16156104c15760405162461bcd60e51b8152602060048201526011602482015270105b1c9958591e4819195b1a5d995c9959607a1b6044820152606401610192565b80543361010081026001600160a81b03199092169190911760019081178355429083015560405183907f64a783c6150854ae756454311c7625a965c757996ba8cc1a8c6205380f33725090600090a35050565b634e487b7160e01b600052604160045260246000fd5b6000602080838503121561053d57600080fd5b823567ffffffffffffffff8082111561055557600080fd5b818501915085601f83011261056957600080fd5b81358181111561057b5761057b610514565b8060051b604051601f19603f830116810181811085821117156105a0576105a0610514565b6040529182528482019250838101850191888311156105be57600080fd5b938501935b828510156105dc578435845293850193928501926105c3565b98975050505050505050565b6000602082840312156105fa57600080fd5b81356001600160a01b038116811461061157600080fd5b9392505050565b60006020828403121561062a57600080fd5b5035919050565b634e487b7160e01b600052603260045260246000fd5b60006020828403121561065957600080fd5b8151801515811461061157600080fd5b60006001820161068957634e487b7160e01b600052601160045260246000fd5b506001019056fea2646970667358221220e2f8720a72ca5b46f641104d5d2269aa4522efe7ce956bdaefcc5616410a47ba64736f6c63430008130033",
  "immutableReferences": {},
  "source": "// SPDX-License-Identifier: MIT\npragma solidity ^0.8.19;\n\ninterface IPrescription {\n    function isValid(uint256 id) external view returns (bool);\n}\n\ncontract DeliveryConfirmation {\n    struct Delivery {\n        bool delivered;\n        address logistics;\n        uint256 deliveredAt;\n    }\n\n    IPrescription public prescription;\n\n    mapping(address => bool) public isLogistics;\n    mapping(uint256 => Delivery) public deliveries;\n\n    event DeliveryConfirmed(uint256 indexed prescriptionId, address indexed logistics);\n\n    constructor(address _prescriptionAddress, address[] memory logisticsList) {\n        require(_prescriptionAddress != address(0), \"Bad prescription\");\n        prescription = IPrescription(_prescriptionAddress);\n\n        for (uint256 i = 0; i < logisticsList.length; i++) {\n            isLogistics[logisticsList[i]] = true;\n        }\n    }\n\n    function confirmDelivery(uint256 prescriptionId) external {\n        require(isLogistics[msg.sender], \"Not logistics\");\n        require(prescription.isValid(prescriptionId), \"Invalid/expired\");\n\n        Delivery storage d = deliveries[prescriptionId];\n        require(!d.delivered, \"Already delivered\");\n\n        d.delivered = true;\n        d.logistics = msg.sender;\n        d.deliveredAt = block.timestamp;\n\n        emit DeliveryConfirmed(prescriptionId, msg.sender);\n    }\n\n    function confirmMultipleDeliveries(uint256[] memory prescriptionIds) external {\n        require(isLogistics[msg.sender], \"Not logistics\");\n        require(prescriptionIds.length > 0, \"Empty prescriptions\");\n\n        for (uint256 i = 0; i < prescriptionIds.length; i++) {\n            uint256 prescriptionId = prescriptionIds[i];\n\n            require(prescription.isValid(prescriptionId), \"Invalid/expired\");\n\n            Delivery storage d = deliveries[prescriptionId];\n            require(!d.delivered, \"Already delivered\");\n\n            d.delivered = true;\n            d.logistics = msg.sender;\n            d.deliveredAt = block.timestamp;\n\n            emit DeliveryConfirmed(prescriptionId, msg.sender);\n        }\n    }\n}",
  "sourcePath": "/Users/ftoon/Documents/TrustDose/contracts/DeliveryConfirmation.sol",
  "compiler": {
    "name": "solc",
    "version": "0.8.19+commit.7dd6d404.Emscripten.clang"
  },
  "schemaVersion": "3.4.16",
  "updatedAt": "2026-04-04T00:37:38.216Z",
  "networkType": "ethereum",
  "devdoc": {
    "kind": "dev",
    "methods": {},
    "version": 1
  },
  "userdoc": {
    "kind": "user",
    "methods": {},
    "version": 1
  }
}