{
  "contractName": "DeliveryConfirmation",
  "abi": [
    {
      "inputs": [
        {
          "internalType": "address",
          "name": "_prescriptionAddress",
          "type": "address"
        },
        {
          "internalType": "address[]",
          "name": "logisticsList",
          "type": "address[]"
        }
      ],
      "stateMutability": "nonpayable",
      "type": "constructor"
    },
    {
      "anonymous": false,
      "inputs": [
        {
          "indexed": true,
          "internalType": "uint256",
          "name": "prescriptionId",
          "type": "uint256"
        },
        {
          "indexed": true,
          "internalType": "address",
          "name": "logistics",
          "type": "address"
        }
      ],
      "name": "DeliveryConfirmed",
      "type": "event"
    },
    {
      "inputs": [
        {
          "internalType": "uint256",
          "name": "",
          "type": "uint256"
        }
      ],
      "name": "deliveries",
      "outputs": [
        {
          "internalType": "bool",
          "name": "delivered",
          "type": "bool"
        },
        {
          "internalType": "address",
          "name": "logistics",
          "type": "address"
        },
        {
          "internalType": "uint256",
          "name": "deliveredAt",
          "type": "uint256"
        }
      ],
      "stateMutability": "view",
      "type": "function",
      "constant": true
    },
    {
      "inputs": [
        {
          "internalType": "address",
          "name": "",
          "type": "address"
        }
      ],
      "name": "isLogistics",
      "outputs": [
        {
          "internalType": "bool",
          "name": "",
          "type": "bool"
        }
      ],
      "stateMutability": "view",
      "type": "function",
      "constant": true
    },
    {
      "inputs": [],
      "name": "prescription",
      "outputs": [
        {
          "internalType": "contract IPrescription",
          "name": "",
          "type": "address"
        }
      ],
      "stateMutability": "view",
      "type": "function",
      "constant": true
    },
    {
      "inputs": [
        {
          "internalType": "uint256",
          "name": "prescriptionId",
          "type": "uint256"
        }
      ],
      "name": "confirmDelivery",
      "outputs": [],
      "stateMutability": "nonpayable",
      "type": "function"
    }
  ],
  "bytecode": "0x608060405234801561001057600080fd5b506040516105ca3803806105ca83398101604081905261002f91610136565b6001600160a01b03821661007c5760405162461bcd60e51b815260206004820152601060248201526f2130b210383932b9b1b934b83a34b7b760811b604482015260640160405180910390fd5b600080546001600160a01b0319166001600160a01b0384161781555b81518110156100fc5760018060008484815181106100b8576100b861020f565b6020908102919091018101516001600160a01b03168252810191909152604001600020805460ff1916911515919091179055806100f481610225565b915050610098565b50505061024c565b80516001600160a01b038116811461011b57600080fd5b919050565b634e487b7160e01b600052604160045260246000fd5b6000806040838503121561014957600080fd5b61015283610104565b602084810151919350906001600160401b038082111561017157600080fd5b818601915086601f83011261018557600080fd5b81518181111561019757610197610120565b8060051b604051601f19603f830116810181811085821117156101bc576101bc610120565b6040529182528482019250838101850191898311156101da57600080fd5b938501935b828510156101ff576101f085610104565b845293850193928501926101df565b8096505050505050509250929050565b634e487b7160e01b600052603260045260246000fd5b60006001820161024557634e487b7160e01b600052601160045260246000fd5b5060010190565b61036f8061025b6000396000f3fe608060405234801561001057600080fd5b506004361061004c5760003560e01c80638305866f14610051578063a9e4a32414610089578063af151ccc146100e9578063fd84cb9714610114575b600080fd5b61007461005f3660046102ce565b60016020526000908152604090205460ff1681565b60405190151581526020015b60405180910390f35b6100c46100973660046102fe565b6002602052600090815260409020805460019091015460ff82169161010090046001600160a01b03169083565b6040805193151584526001600160a01b03909216602084015290820152606001610080565b6000546100fc906001600160a01b031681565b6040516001600160a01b039091168152602001610080565b6101276101223660046102fe565b610129565b005b3360009081526001602052604090205460ff1661017d5760405162461bcd60e51b815260206004820152600d60248201526c4e6f74206c6f6769737469637360981b60448201526064015b60405180910390fd5b60005460405162f577a560e81b8152600481018390526001600160a01b039091169063f577a50090602401602060405180830381865afa1580156101c5573d6000803e3d6000fd5b505050506040513d601f19601f820116820180604052508101906101e99190610317565b6102275760405162461bcd60e51b815260206004820152600f60248201526e125b9d985b1a590bd95e1c1a5c9959608a1b6044820152606401610174565b6000818152600260205260409020805460ff161561027b5760405162461bcd60e51b8152602060048201526011602482015270105b1c9958591e4819195b1a5d995c9959607a1b6044820152606401610174565b80543361010081026001600160a81b03199092169190911760019081178355429083015560405183907f64a783c6150854ae756454311c7625a965c757996ba8cc1a8c6205380f33725090600090a35050565b6000602082840312156102e057600080fd5b81356001600160a01b03811681146102f757600080fd5b9392505050565b60006020828403121561031057600080fd5b5035919050565b60006020828403121561032957600080fd5b815180151581146102f757600080fdfea2646970667358221220091dae2c6d3ebff28d3cc09e66df2a1692666225e173f0601d65bfe6c89dfe9864736f6c63430008130033",
  "immutableReferences": {},
  "source": "// SPDX-License-Identifier: MIT\r\npragma solidity ^0.8.19;\r\n\r\ninterface IPrescription {\r\n    function isValid(uint256 id) external view returns (bool);\r\n}\r\n\r\ncontract DeliveryConfirmation {\r\n    struct Delivery {\r\n        bool delivered;\r\n        address logistics;\r\n        uint256 deliveredAt;\r\n    }\r\n\r\n    IPrescription public prescription;\r\n\r\n    mapping(address => bool) public isLogistics;\r\n    mapping(uint256 => Delivery) public deliveries;\r\n\r\n    event DeliveryConfirmed(uint256 indexed prescriptionId, address indexed logistics);\r\n\r\n    constructor(address _prescriptionAddress, address[] memory logisticsList) {\r\n        require(_prescriptionAddress != address(0), \"Bad prescription\");\r\n        prescription = IPrescription(_prescriptionAddress);\r\n\r\n        for (uint256 i = 0; i < logisticsList.length; i++) {\r\n            isLogistics[logisticsList[i]] = true;\r\n        }\r\n    }\r\n\r\n    function confirmDelivery(uint256 prescriptionId) external {\r\n        require(isLogistics[msg.sender], \"Not logistics\");\r\n\r\n        require(prescription.isValid(prescriptionId), \"Invalid/expired\");\r\n\r\n        Delivery storage d = deliveries[prescriptionId];\r\n        require(!d.delivered, \"Already delivered\");\r\n\r\n        d.delivered = true;\r\n        d.logistics = msg.sender;\r\n        d.deliveredAt = block.timestamp;\r\n\r\n        emit DeliveryConfirmed(prescriptionId, msg.sender);\r\n    }\r\n}\r\n",
  "sourcePath": "C:\\Users\\hp\\Desktop\\2025_GP_G29\\contracts\\DeliveryConfirmation.sol",
  "compiler": {
    "name": "solc",
    "version": "0.8.19+commit.7dd6d404.Emscripten.clang"
  },
  "schemaVersion": "3.4.16",
  "updatedAt": "2026-02-07T12:46:31.538Z",
  "networkType": "ethereum",
  "devdoc": {
    "kind": "dev",
    "methods": {},
    "version": 1
  },
  "userdoc": {
    "kind": "user",
    "methods": {},
    "version": 1
  }
}