{
  "contractName": "Dispense",
  "abi": [
    {
      "inputs": [
        {
          "internalType": "address",
          "name": "_prescriptionAddress",
          "type": "address"
        }
      ],
      "stateMutability": "nonpayable",
      "type": "constructor"
    },
    {
      "anonymous": false,
      "inputs": [
        {
          "indexed": true,
          "internalType": "uint256",
          "name": "prescriptionId",
          "type": "uint256"
        },
        {
          "indexed": true,
          "internalType": "address",
          "name": "pharmacist",
          "type": "address"
        },
        {
          "indexed": false,
          "internalType": "uint256",
          "name": "timestamp",
          "type": "uint256"
        }
      ],
      "name": "Dispensed",
      "type": "event"
    },
    {
      "anonymous": false,
      "inputs": [
        {
          "indexed": true,
          "internalType": "address",
          "name": "account",
          "type": "address"
        },
        {
          "indexed": false,
          "internalType": "bool",
          "name": "enabled",
          "type": "bool"
        }
      ],
      "name": "PharmacistUpdated",
      "type": "event"
    },
    {
      "anonymous": false,
      "inputs": [
        {
          "indexed": true,
          "internalType": "address",
          "name": "newAddress",
          "type": "address"
        }
      ],
      "name": "PrescriptionAddressUpdated",
      "type": "event"
    },
    {
      "inputs": [],
      "name": "admin",
      "outputs": [
        {
          "internalType": "address",
          "name": "",
          "type": "address"
        }
      ],
      "stateMutability": "view",
      "type": "function",
      "constant": true
    },
    {
      "inputs": [
        {
          "internalType": "uint256",
          "name": "",
          "type": "uint256"
        }
      ],
      "name": "dispenses",
      "outputs": [
        {
          "internalType": "uint256",
          "name": "prescriptionId",
          "type": "uint256"
        },
        {
          "internalType": "address",
          "name": "pharmacist",
          "type": "address"
        },
        {
          "internalType": "uint256",
          "name": "timestamp",
          "type": "uint256"
        }
      ],
      "stateMutability": "view",
      "type": "function",
      "constant": true
    },
    {
      "inputs": [
        {
          "internalType": "uint256",
          "name": "",
          "type": "uint256"
        }
      ],
      "name": "isDispensed",
      "outputs": [
        {
          "internalType": "bool",
          "name": "",
          "type": "bool"
        }
      ],
      "stateMutability": "view",
      "type": "function",
      "constant": true
    },
    {
      "inputs": [
        {
          "internalType": "address",
          "name": "",
          "type": "address"
        }
      ],
      "name": "isPharmacist",
      "outputs": [
        {
          "internalType": "bool",
          "name": "",
          "type": "bool"
        }
      ],
      "stateMutability": "view",
      "type": "function",
      "constant": true
    },
    {
      "inputs": [],
      "name": "prescription",
      "outputs": [
        {
          "internalType": "contract IPrescription",
          "name": "",
          "type": "address"
        }
      ],
      "stateMutability": "view",
      "type": "function",
      "constant": true
    },
    {
      "inputs": [
        {
          "internalType": "address",
          "name": "_newAddress",
          "type": "address"
        }
      ],
      "name": "setPrescriptionContract",
      "outputs": [],
      "stateMutability": "nonpayable",
      "type": "function"
    },
    {
      "inputs": [
        {
          "internalType": "address",
          "name": "account",
          "type": "address"
        },
        {
          "internalType": "bool",
          "name": "enabled",
          "type": "bool"
        }
      ],
      "name": "setPharmacist",
      "outputs": [],
      "stateMutability": "nonpayable",
      "type": "function"
    },
    {
      "inputs": [
        {
          "internalType": "uint256",
          "name": "_prescriptionId",
          "type": "uint256"
        }
      ],
      "name": "dispense",
      "outputs": [],
      "stateMutability": "nonpayable",
      "type": "function"
    },
    {
      "inputs": [
        {
          "internalType": "uint256",
          "name": "_prescriptionId",
          "type": "uint256"
        }
      ],
      "name": "getDispenseInfo",
      "outputs": [
        {
          "components": [
            {
              "internalType": "uint256",
              "name": "prescriptionId",
              "type": "uint256"
            },
            {
              "internalType": "address",
              "name": "pharmacist",
              "type": "address"
            },
            {
              "internalType": "uint256",
              "name": "timestamp",
              "type": "uint256"
            }
          ],
          "internalType": "struct Dispense.DispenseRecord",
          "name": "rec",
          "type": "tuple"
        },
        {
          "internalType": "bool",
          "name": "dispensed",
          "type": "bool"
        }
      ],
      "stateMutability": "view",
      "type": "function",
      "constant": true
    }
  ],
  "bytecode": "0x608060405234801561001057600080fd5b5060405161081a38038061081a83398101604081905261002f916100aa565b6001600160a01b0381166100775760405162461bcd60e51b815260206004820152600b60248201526a426164206164647265737360a81b604482015260640160405180910390fd5b60018054336001600160a01b031991821617909155600080549091166001600160a01b03929092169190911790556100da565b6000602082840312156100bc57600080fd5b81516001600160a01b03811681146100d357600080fd5b9392505050565b610731806100e96000396000f3fe608060405234801561001057600080fd5b50600436106100935760003560e01c80638946d5bb116100665780638946d5bb1461014d5780639995c20514610160578063af151ccc14610173578063e48bb6291461019e578063f851a440146101f957600080fd5b80630c5cb77e146100985780632f7b196a146100ad578063748c3d10146100e557806382946ee21461012a575b600080fd5b6100ab6100a636600461066c565b61020c565b005b6100d06100bb3660046106a3565b60046020526000908152604090205460ff1681565b60405190151581526020015b60405180910390f35b6100f86100f33660046106a3565b6102fd565b60408051835181526020808501516001600160a01b0316908201529281015190830152151560608201526080016100dc565b6100d06101383660046106bc565b60026020526000908152604090205460ff1681565b6100ab61015b3660046106a3565b610379565b6100ab61016e3660046106bc565b61056d565b600054610186906001600160a01b031681565b6040516001600160a01b0390911681526020016100dc565b6101d66101ac3660046106a3565b60036020526000908152604090208054600182015460029092015490916001600160a01b03169083565b604080519384526001600160a01b039092166020840152908201526060016100dc565b600154610186906001600160a01b031681565b6001546001600160a01b031633146102575760405162461bcd60e51b81526020600482015260096024820152682737ba1030b236b4b760b91b60448201526064015b60405180910390fd5b6001600160a01b03821661029e5760405162461bcd60e51b815260206004820152600e60248201526d109859081c1a185c9b5858da5cdd60921b604482015260640161024e565b6001600160a01b038216600081815260026020908152604091829020805460ff191685151590811790915591519182527fbe64598a939706db335f4e6297d224d8164ff6e2dc57533a40b6d077c38c0267910160405180910390a25050565b61032a60405180606001604052806000815260200160006001600160a01b03168152602001600081525090565b50600090815260036020908152604080832060048352928190205481516060810183528454815260018501546001600160a01b031693810193909352600290930154908201529160ff90911690565b3360009081526002602052604090205460ff166103c95760405162461bcd60e51b815260206004820152600e60248201526d139bdd081c1a185c9b5858da5cdd60921b604482015260640161024e565b60008181526004602052604090205460ff161561041c5760405162461bcd60e51b8152602060048201526011602482015270105b1c9958591e48191a5cdc195b9cd959607a1b604482015260640161024e565b60005460405162f577a560e81b8152600481018390526001600160a01b039091169063f577a50090602401602060405180830381865afa158015610464573d6000803e3d6000fd5b505050506040513d601f19601f8201168201806040525081019061048891906106de565b6104c65760405162461bcd60e51b815260206004820152600f60248201526e125b9d985b1a590bd95e1c1a5c9959608a1b604482015260640161024e565b6040805160608101825282815233602080830182815242848601818152600088815260038552878120965187559251600180880180546001600160a01b0319166001600160a01b039093169290921790915590516002909601959095556004835290859020805460ff191690941790935592519182529183917f5090c0d99c539f2206344ef13cc87f9df0e35f34039578008f1a6c0e1fa19018910160405180910390a350565b6001546001600160a01b031633146105b35760405162461bcd60e51b81526020600482015260096024820152682737ba1030b236b4b760b91b604482015260640161024e565b6001600160a01b0381166105f75760405162461bcd60e51b815260206004820152600b60248201526a426164206164647265737360a81b604482015260640161024e565b600080546001600160a01b0319166001600160a01b038316908117825560405190917fb4f468c2483a81030ead82f325271c9ef237a840a48869d2fdc7c7e346776b4f91a250565b80356001600160a01b038116811461065657600080fd5b919050565b801515811461066957600080fd5b50565b6000806040838503121561067f57600080fd5b6106888361063f565b915060208301356106988161065b565b809150509250929050565b6000602082840312156106b557600080fd5b5035919050565b6000602082840312156106ce57600080fd5b6106d78261063f565b9392505050565b6000602082840312156106f057600080fd5b81516106d78161065b56fea264697066735822122017e71f4a7956523ebbd1728289684c477535142d3f2df58385b9568cd70d34ea64736f6c63430008130033",
  "immutableReferences": {},
  "source": "// SPDX-License-Identifier: MIT\r\npragma solidity ^0.8.19;\r\n\r\n\r\ninterface IPrescription {\r\n    function isValid(uint256 id) external view returns (bool);\r\n}\r\n\r\ncontract Dispense {\r\n    IPrescription public prescription;\r\n    address public admin;\r\n\r\n    mapping(address => bool) public isPharmacist;\r\n\r\n    struct DispenseRecord {\r\n        uint256 prescriptionId;\r\n        address pharmacist;\r\n        uint256 timestamp;\r\n    }\r\n\r\n    mapping(uint256 => DispenseRecord) public dispenses;\r\n    mapping(uint256 => bool) public isDispensed;\r\n\r\n    event PharmacistUpdated(address indexed account, bool enabled);\r\n    event PrescriptionAddressUpdated(address indexed newAddress);\r\n    event Dispensed(uint256 indexed prescriptionId, address indexed pharmacist, uint256 timestamp);\r\n\r\n    modifier onlyAdmin() {\r\n        require(msg.sender == admin, \"Not admin\");\r\n        _;\r\n    }\r\n\r\n    modifier onlyPharmacist() {\r\n        require(isPharmacist[msg.sender], \"Not pharmacist\");\r\n        _;\r\n    }\r\n\r\n    constructor(address _prescriptionAddress) {\r\n        require(_prescriptionAddress != address(0), \"Bad address\");\r\n        admin = msg.sender;\r\n        prescription = IPrescription(_prescriptionAddress);\r\n    }\r\n\r\n    function setPrescriptionContract(address _newAddress) external onlyAdmin {\r\n        require(_newAddress != address(0), \"Bad address\");\r\n        prescription = IPrescription(_newAddress);\r\n        emit PrescriptionAddressUpdated(_newAddress);\r\n    }\r\n\r\n    function setPharmacist(address account, bool enabled) external onlyAdmin {\r\n        require(account != address(0), \"Bad pharmacist\");\r\n        isPharmacist[account] = enabled;\r\n        emit PharmacistUpdated(account, enabled);\r\n    }\r\n\r\n    function dispense(uint256 _prescriptionId) external onlyPharmacist {\r\n        require(!isDispensed[_prescriptionId], \"Already dispensed\");\r\n        require(prescription.isValid(_prescriptionId), \"Invalid/expired\");\r\n\r\n        dispenses[_prescriptionId] = DispenseRecord({\r\n            prescriptionId: _prescriptionId,\r\n            pharmacist: msg.sender,\r\n            timestamp: block.timestamp\r\n        });\r\n\r\n        isDispensed[_prescriptionId] = true;\r\n        emit Dispensed(_prescriptionId, msg.sender, block.timestamp);\r\n    }\r\n\r\n    function getDispenseInfo(uint256 _prescriptionId)\r\n        external\r\n        view\r\n        returns (DispenseRecord memory rec, bool dispensed)\r\n    {\r\n        return (dispenses[_prescriptionId], isDispensed[_prescriptionId]);\r\n    }\r\n}\r\n",
  "sourcePath": "C:\\Users\\hp\\Desktop\\2025_GP_G29\\contracts\\contracts\\Dispense.sol",
  "compiler": {
    "name": "solc",
    "version": "0.8.19+commit.7dd6d404.Emscripten.clang"
  },
  "schemaVersion": "3.4.16",
  "updatedAt": "2025-11-20T11:20:40.625Z",
  "networkType": "ethereum",
  "devdoc": {
    "kind": "dev",
    "methods": {},
    "version": 1
  },
  "userdoc": {
    "kind": "user",
    "methods": {},
    "version": 1
  }
}