{
  "contractName": "DoctorRegistry",
  "abi": [
    {
      "inputs": [],
      "stateMutability": "nonpayable",
      "type": "constructor"
    },
    {
      "anonymous": false,
      "inputs": [
        {
          "indexed": true,
          "internalType": "bytes32",
          "name": "idHash",
          "type": "bytes32"
        },
        {
          "indexed": false,
          "internalType": "string",
          "name": "accessId",
          "type": "string"
        }
      ],
      "name": "AccessIdReleased",
      "type": "event"
    },
    {
      "anonymous": false,
      "inputs": [
        {
          "indexed": true,
          "internalType": "address",
          "name": "doctor",
          "type": "address"
        },
        {
          "indexed": false,
          "internalType": "bool",
          "name": "active",
          "type": "bool"
        }
      ],
      "name": "DoctorActiveSet",
      "type": "event"
    },
    {
      "anonymous": false,
      "inputs": [
        {
          "indexed": true,
          "internalType": "address",
          "name": "doctor",
          "type": "address"
        },
        {
          "indexed": false,
          "internalType": "string",
          "name": "accessId",
          "type": "string"
        },
        {
          "indexed": false,
          "internalType": "bytes32",
          "name": "tempPassHash",
          "type": "bytes32"
        }
      ],
      "name": "DoctorUpserted",
      "type": "event"
    },
    {
      "inputs": [
        {
          "internalType": "address",
          "name": "",
          "type": "address"
        }
      ],
      "name": "doctors",
      "outputs": [
        {
          "internalType": "string",
          "name": "accessId",
          "type": "string"
        },
        {
          "internalType": "bytes32",
          "name": "tempPassHash",
          "type": "bytes32"
        },
        {
          "internalType": "bool",
          "name": "active",
          "type": "bool"
        }
      ],
      "stateMutability": "view",
      "type": "function",
      "constant": true
    },
    {
      "inputs": [],
      "name": "owner",
      "outputs": [
        {
          "internalType": "address",
          "name": "",
          "type": "address"
        }
      ],
      "stateMutability": "view",
      "type": "function",
      "constant": true
    },
    {
      "inputs": [
        {
          "internalType": "address",
          "name": "_doctor",
          "type": "address"
        },
        {
          "internalType": "string",
          "name": "_accessId",
          "type": "string"
        },
        {
          "internalType": "bytes32",
          "name": "_tempPassHash",
          "type": "bytes32"
        }
      ],
      "name": "addDoctor",
      "outputs": [],
      "stateMutability": "nonpayable",
      "type": "function"
    },
    {
      "inputs": [
        {
          "internalType": "address",
          "name": "_doctor",
          "type": "address"
        },
        {
          "internalType": "bool",
          "name": "_active",
          "type": "bool"
        }
      ],
      "name": "setDoctorActive",
      "outputs": [],
      "stateMutability": "nonpayable",
      "type": "function"
    },
    {
      "inputs": [
        {
          "internalType": "string",
          "name": "_accessId",
          "type": "string"
        }
      ],
      "name": "isAccessIdUsed",
      "outputs": [
        {
          "internalType": "bool",
          "name": "",
          "type": "bool"
        }
      ],
      "stateMutability": "view",
      "type": "function",
      "constant": true
    },
    {
      "inputs": [
        {
          "internalType": "address",
          "name": "_doctor",
          "type": "address"
        }
      ],
      "name": "getDoctor",
      "outputs": [
        {
          "internalType": "string",
          "name": "accessId",
          "type": "string"
        },
        {
          "internalType": "bytes32",
          "name": "tempPassHash",
          "type": "bytes32"
        },
        {
          "internalType": "bool",
          "name": "active",
          "type": "bool"
        }
      ],
      "stateMutability": "view",
      "type": "function",
      "constant": true
    },
    {
      "inputs": [
        {
          "internalType": "string",
          "name": "_accessId",
          "type": "string"
        }
      ],
      "name": "releaseAccessId",
      "outputs": [],
      "stateMutability": "nonpayable",
      "type": "function"
    }
  ],
  "bytecode": "0x608060405234801561001057600080fd5b50600080546001600160a01b03191633179055610b0b806100326000396000f3fe608060405234801561001057600080fd5b506004361061007d5760003560e01c80638da5cb5b1161005b5780638da5cb5b146100e15780639ae7143a1461010c578063a9583c221461011f578063dffa34c11461013257600080fd5b8063017297351461008257806317da72f2146100975780632f04e064146100bf575b600080fd5b610095610090366004610765565b610145565b005b6100aa6100a5366004610765565b61023b565b60405190151581526020015b60405180910390f35b6100d26100cd3660046107c3565b610275565b6040516100b6939291906107e5565b6000546100f4906001600160a01b031681565b6040516001600160a01b0390911681526020016100b6565b61009561011a366004610843565b610372565b6100d261012d3660046107c3565b610538565b61009561014036600461089d565b6105e6565b6000546001600160a01b031633146101785760405162461bcd60e51b815260040161016f906108d9565b60405180910390fd5b6000828260405161018a9291906108fc565b604080519182900390912060008181526002602052919091205490915060ff166101e45760405162461bcd60e51b815260206004820152600b60248201526a1251081b9bdd081d5cd95960aa1b604482015260640161016f565b60008181526002602052604090819020805460ff191690555181907f7cb62e70e1eea6ada97511b7602a4bded422b727423fbd97cd5fdb1cd7c5bede9061022e9086908690610935565b60405180910390a2505050565b60006002600084846040516102519291906108fc565b604080519182900390912082526020820192909252016000205460ff169392505050565b6060600080600060016000866001600160a01b03166001600160a01b031681526020019081526020016000206040518060600160405290816000820180546102bc90610951565b80601f01602080910402602001604051908101604052809291908181526020018280546102e890610951565b80156103355780601f1061030a57610100808354040283529160200191610335565b820191906000526020600020905b81548152906001019060200180831161031857829003601f168201915b5050509183525050600182015460208083019190915260029092015460ff1615156040918201528251918301519201519097919650945092505050565b6000546001600160a01b0316331461039c5760405162461bcd60e51b815260040161016f906108d9565b6001600160a01b0384166103e15760405162461bcd60e51b815260206004820152600c60248201526b5a65726f206164647265737360a01b604482015260640161016f565b8161041f5760405162461bcd60e51b815260206004820152600e60248201526d115b5c1d1e481858d8d95cdcd25960921b604482015260640161016f565b600083836040516104319291906108fc565b604080519182900390912060008181526002602052919091205490915060ff16156104905760405162461bcd60e51b815260206004820152600f60248201526e20a1a1a2a9a9afa4a22faa20a5a2a760891b604482015260640161016f565b6001600160a01b0385166000908152600160205260409020806104b48587836109f0565b5060018082018490556002808301805460ff19908116841790915560008581526020929092526040918290208054909116909217909155516001600160a01b038716907fe4f5c545a650efe24a7f2ceae72bb87b24c48598776ee37d6f7cf3c5f9c3fcce9061052890889088908890610ab1565b60405180910390a2505050505050565b60016020526000908152604090208054819061055390610951565b80601f016020809104026020016040519081016040528092919081815260200182805461057f90610951565b80156105cc5780601f106105a1576101008083540402835291602001916105cc565b820191906000526020600020905b8154815290600101906020018083116105af57829003601f168201915b50505050600183015460029093015491929160ff16905083565b6000546001600160a01b031633146106105760405162461bcd60e51b815260040161016f906108d9565b6001600160a01b0382166106555760405162461bcd60e51b815260206004820152600c60248201526b5a65726f206164647265737360a01b604482015260640161016f565b6001600160a01b0382166000908152600160205260409020805461067890610951565b90506000036106ba5760405162461bcd60e51b815260206004820152600e60248201526d27379039bab1b4103237b1ba37b960911b604482015260640161016f565b6001600160a01b038216600081815260016020908152604091829020600201805460ff191685151590811790915591519182527f91234ee47507f36bea64c3b75694596c4fa4185f21de10001b4deabc3f3013cf910160405180910390a25050565b60008083601f84011261072e57600080fd5b50813567ffffffffffffffff81111561074657600080fd5b60208301915083602082850101111561075e57600080fd5b9250929050565b6000806020838503121561077857600080fd5b823567ffffffffffffffff81111561078f57600080fd5b61079b8582860161071c565b90969095509350505050565b80356001600160a01b03811681146107be57600080fd5b919050565b6000602082840312156107d557600080fd5b6107de826107a7565b9392505050565b606081526000845180606084015260005b8181101561081357602081880181015160808684010152016107f6565b506000608082850101526080601f19601f8301168401019150508360208301528215156040830152949350505050565b6000806000806060858703121561085957600080fd5b610862856107a7565b9350602085013567ffffffffffffffff81111561087e57600080fd5b61088a8782880161071c565b9598909750949560400135949350505050565b600080604083850312156108b057600080fd5b6108b9836107a7565b9150602083013580151581146108ce57600080fd5b809150509250929050565b6020808252600990820152682737ba1030b236b4b760b91b604082015260600190565b8183823760009101908152919050565b81835281816020850137506000828201602090810191909152601f909101601f19169091010190565b60208152600061094960208301848661090c565b949350505050565b600181811c9082168061096557607f821691505b60208210810361098557634e487b7160e01b600052602260045260246000fd5b50919050565b634e487b7160e01b600052604160045260246000fd5b601f8211156109eb57600081815260208120601f850160051c810160208610156109c85750805b601f850160051c820191505b818110156109e7578281556001016109d4565b5050505b505050565b67ffffffffffffffff831115610a0857610a0861098b565b610a1c83610a168354610951565b836109a1565b6000601f841160018114610a505760008515610a385750838201355b600019600387901b1c1916600186901b178355610aaa565b600083815260209020601f19861690835b82811015610a815786850135825560209485019460019092019101610a61565b5086821015610a9e5760001960f88860031b161c19848701351681555b505060018560011b0183555b5050505050565b604081526000610ac560408301858761090c565b905082602083015294935050505056fea2646970667358221220637112106103da6cf781fde0aa0399cc3b4b1b2e7bebb8d13b9efd09b4e0a8a964736f6c63430008130033",
  "immutableReferences": {},
  "source": "// SPDX-License-Identifier: MIT\npragma solidity ^0.8.19;\ncontract DoctorRegistry {\n    struct Doctor {\n        string  accessId;       //  \"Dr-001\"\n        bytes32 tempPassHash;   // (tempPassword)\n        bool    active;         // enable/disable\n    }\n\n    address public owner;\n\n    // doctorAddress => Doctor\n    mapping(address => Doctor) public doctors;\n\n    //     \n    mapping(bytes32 => bool) private usedAccessIds;\n\n    event DoctorUpserted(address indexed doctor, string accessId, bytes32 tempPassHash);\n    event DoctorActiveSet(address indexed doctor, bool active);\n    event AccessIdReleased(bytes32 indexed idHash, string accessId);\n\n    modifier onlyOwner() {\n        require(msg.sender == owner, \"Not admin\");\n        _;\n    }\n\n    constructor() {\n        owner = msg.sender;\n    }\n\n    function addDoctor(\n        address _doctor,\n        string calldata _accessId,\n        bytes32 _tempPassHash\n    ) external onlyOwner {\n        require(_doctor != address(0), \"Zero address\");\n        require(bytes(_accessId).length > 0, \"Empty accessId\");\n\n        bytes32 newIdHash = keccak256(bytes(_accessId));\n        require(!usedAccessIds[newIdHash], \"ACCESS_ID_TAKEN\");\n\n        Doctor storage d = doctors[_doctor];\n        d.accessId     = _accessId;\n        d.tempPassHash = _tempPassHash;\n        d.active       = true;\n\n        usedAccessIds[newIdHash] = true;\n\n        emit DoctorUpserted(_doctor, _accessId, _tempPassHash);\n    }\n\n\n    function setDoctorActive(address _doctor, bool _active) external onlyOwner {\n        require(_doctor != address(0), \"Zero address\");\n        require(bytes(doctors[_doctor].accessId).length != 0, \"No such doctor\");\n        doctors[_doctor].active = _active;\n        emit DoctorActiveSet(_doctor, _active);\n    }\n\n    /// @notice  :   Access ID \n    function isAccessIdUsed(string calldata _accessId) external view returns (bool) {\n        return usedAccessIds[keccak256(bytes(_accessId))];\n    }\n\n    function getDoctor(address _doctor)\n        external\n        view\n        returns (string memory accessId, bytes32 tempPassHash, bool active)\n    {\n        Doctor memory d = doctors[_doctor];\n        return (d.accessId, d.tempPassHash, d.active);\n    }\n\n    function releaseAccessId(string calldata _accessId) external onlyOwner {\n        bytes32 idHash = keccak256(bytes(_accessId));\n        require(usedAccessIds[idHash], \"ID not used\");\n        usedAccessIds[idHash] = false;\n        emit AccessIdReleased(idHash, _accessId);\n    }\n}",
  "sourcePath": "/Users/ftoon/Documents/TrustDose/contracts/DoctorRegistry.sol",
  "compiler": {
    "name": "solc",
    "version": "0.8.19+commit.7dd6d404.Emscripten.clang"
  },
  "schemaVersion": "3.4.16",
  "updatedAt": "2025-10-27T07:57:05.852Z",
  "networkType": "ethereum",
  "devdoc": {
    "kind": "dev",
    "methods": {},
    "version": 1
  },
  "userdoc": {
    "kind": "user",
    "methods": {
      "isAccessIdUsed(string)": {
        "notice": " :   Access ID "
      }
    },
    "version": 1
  }
}