{
  "contractName": "LogisticsReceive",
  "abi": [
    {
      "inputs": [
        {
          "internalType": "address",
          "name": "_prescriptionAddress",
          "type": "address"
        },
        {
          "internalType": "address",
          "name": "_acceptAddress",
          "type": "address"
        }
      ],
      "stateMutability": "nonpayable",
      "type": "constructor"
    },
    {
      "anonymous": false,
      "inputs": [
        {
          "indexed": true,
          "internalType": "address",
          "name": "newAddress",
          "type": "address"
        }
      ],
      "name": "AcceptAddressUpdated",
      "type": "event"
    },
    {
      "anonymous": false,
      "inputs": [
        {
          "indexed": true,
          "internalType": "address",
          "name": "newAddress",
          "type": "address"
        }
      ],
      "name": "PrescriptionAddressUpdated",
      "type": "event"
    },
    {
      "anonymous": false,
      "inputs": [
        {
          "indexed": true,
          "internalType": "uint256",
          "name": "prescriptionId",
          "type": "uint256"
        },
        {
          "indexed": true,
          "internalType": "address",
          "name": "who",
          "type": "address"
        },
        {
          "indexed": false,
          "internalType": "uint256",
          "name": "timestamp",
          "type": "uint256"
        }
      ],
      "name": "Received",
      "type": "event"
    },
    {
      "anonymous": false,
      "inputs": [
        {
          "indexed": false,
          "internalType": "uint256[]",
          "name": "prescriptionIds",
          "type": "uint256[]"
        },
        {
          "indexed": true,
          "internalType": "address",
          "name": "who",
          "type": "address"
        },
        {
          "indexed": false,
          "internalType": "uint256",
          "name": "timestamp",
          "type": "uint256"
        }
      ],
      "name": "ReceivedMany",
      "type": "event"
    },
    {
      "anonymous": false,
      "inputs": [
        {
          "indexed": true,
          "internalType": "uint256",
          "name": "prescriptionId",
          "type": "uint256"
        },
        {
          "indexed": true,
          "internalType": "address",
          "name": "by",
          "type": "address"
        }
      ],
      "name": "Unreceived",
      "type": "event"
    },
    {
      "inputs": [],
      "name": "admin",
      "outputs": [
        {
          "internalType": "address",
          "name": "",
          "type": "address"
        }
      ],
      "stateMutability": "view",
      "type": "function",
      "constant": true
    },
    {
      "inputs": [],
      "name": "deliveryAccept",
      "outputs": [
        {
          "internalType": "contract IDeliveryAccept",
          "name": "",
          "type": "address"
        }
      ],
      "stateMutability": "view",
      "type": "function",
      "constant": true
    },
    {
      "inputs": [
        {
          "internalType": "uint256",
          "name": "",
          "type": "uint256"
        }
      ],
      "name": "isReceived",
      "outputs": [
        {
          "internalType": "bool",
          "name": "",
          "type": "bool"
        }
      ],
      "stateMutability": "view",
      "type": "function",
      "constant": true
    },
    {
      "inputs": [],
      "name": "prescription",
      "outputs": [
        {
          "internalType": "contract IPrescription",
          "name": "",
          "type": "address"
        }
      ],
      "stateMutability": "view",
      "type": "function",
      "constant": true
    },
    {
      "inputs": [
        {
          "internalType": "uint256",
          "name": "",
          "type": "uint256"
        }
      ],
      "name": "receives",
      "outputs": [
        {
          "internalType": "uint256",
          "name": "prescriptionId",
          "type": "uint256"
        },
        {
          "internalType": "address",
          "name": "who",
          "type": "address"
        },
        {
          "internalType": "uint256",
          "name": "timestamp",
          "type": "uint256"
        }
      ],
      "stateMutability": "view",
      "type": "function",
      "constant": true
    },
    {
      "inputs": [
        {
          "internalType": "address",
          "name": "_newAddress",
          "type": "address"
        }
      ],
      "name": "setPrescriptionContract",
      "outputs": [],
      "stateMutability": "nonpayable",
      "type": "function"
    },
    {
      "inputs": [
        {
          "internalType": "address",
          "name": "_newAddress",
          "type": "address"
        }
      ],
      "name": "setAcceptContract",
      "outputs": [],
      "stateMutability": "nonpayable",
      "type": "function"
    },
    {
      "inputs": [
        {
          "internalType": "uint256",
          "name": "_prescriptionId",
          "type": "uint256"
        }
      ],
      "name": "receiveFromPharmacy",
      "outputs": [],
      "stateMutability": "nonpayable",
      "type": "function"
    },
    {
      "inputs": [
        {
          "internalType": "uint256[]",
          "name": "_prescriptionIds",
          "type": "uint256[]"
        }
      ],
      "name": "receiveMultipleFromPharmacy",
      "outputs": [],
      "stateMutability": "nonpayable",
      "type": "function"
    },
    {
      "inputs": [
        {
          "internalType": "uint256",
          "name": "_prescriptionId",
          "type": "uint256"
        }
      ],
      "name": "unreceiveFromPharmacy",
      "outputs": [],
      "stateMutability": "nonpayable",
      "type": "function"
    },
    {
      "inputs": [
        {
          "internalType": "uint256",
          "name": "_prescriptionId",
          "type": "uint256"
        }
      ],
      "name": "getReceiveInfo",
      "outputs": [
        {
          "components": [
            {
              "internalType": "uint256",
              "name": "prescriptionId",
              "type": "uint256"
            },
            {
              "internalType": "address",
              "name": "who",
              "type": "address"
            },
            {
              "internalType": "uint256",
              "name": "timestamp",
              "type": "uint256"
            }
          ],
          "internalType": "struct LogisticsReceive.ReceiveRecord",
          "name": "rec",
          "type": "tuple"
        },
        {
          "internalType": "bool",
          "name": "received",
          "type": "bool"
        }
      ],
      "stateMutability": "view",
      "type": "function",
      "constant": true
    }
  ],
  "bytecode": "0x608060405234801561001057600080fd5b50604051610d52380380610d5283398101604081905261002f916100e5565b6001600160a01b0382161580159061004f57506001600160a01b03811615155b61008d5760405162461bcd60e51b815260206004820152600b60248201526a426164206164647265737360a81b604482015260640160405180910390fd5b600280546001600160a01b03199081163317909155600080546001600160a01b0394851690831617905560018054929093169116179055610118565b80516001600160a01b03811681146100e057600080fd5b919050565b600080604083850312156100f857600080fd5b610101836100c9565b915061010f602084016100c9565b90509250929050565b610c2b806101276000396000f3fe608060405234801561001057600080fd5b50600436106100a95760003560e01c8063994673521161007157806399467352146101ae5780639995c205146101d9578063af151ccc146101ec578063dab18c71146101ff578063f668424914610212578063f851a4401461022557600080fd5b80631172ec72146100ae57806316910a51146100c35780633ccf5966146101235780635fba8ce1146101685780636f87b4181461017b575b600080fd5b6100c16100bc366004610a77565b610238565b005b6100fb6100d1366004610aec565b60036020526000908152604090208054600182015460029092015490916001600160a01b03169083565b604080519384526001600160a01b039092166020840152908201526060015b60405180910390f35b610136610131366004610aec565b610556565b60408051835181526020808501516001600160a01b03169082015292810151908301521515606082015260800161011a565b6100c1610176366004610b05565b6105d2565b61019e610189366004610aec565b60046020526000908152604090205460ff1681565b604051901515815260200161011a565b6001546101c1906001600160a01b031681565b6040516001600160a01b03909116815260200161011a565b6100c16101e7366004610b05565b61068a565b6000546101c1906001600160a01b031681565b6100c161020d366004610aec565b610740565b6100c1610220366004610aec565b610998565b6002546101c1906001600160a01b031681565b806102775760405162461bcd60e51b815260206004820152600a602482015269115b5c1d1e481b1a5cdd60b21b60448201526064015b60405180910390fd5b4260005b8281101561050b57600084848381811061029757610297610b35565b60209081029290920135600081815260049093526040909220549192505060ff16156102f85760405162461bcd60e51b815260206004820152601060248201526f105b1c9958591e481c9958d95a5d995960821b604482015260640161026e565b60005460405162f577a560e81b8152600481018390526001600160a01b039091169063f577a50090602401602060405180830381865afa158015610340573d6000803e3d6000fd5b505050506040513d601f19601f820116820180604052508101906103649190610b4b565b6103a25760405162461bcd60e51b815260206004820152600f60248201526e125b9d985b1a590bd95e1c1a5c9959608a1b604482015260640161026e565b6001546040516329bc3b8560e01b8152600481018390526001600160a01b03909116906329bc3b8590602401602060405180830381865afa1580156103eb573d6000803e3d6000fd5b505050506040513d601f19601f8201168201806040525081019061040f9190610b4b565b6104575760405162461bcd60e51b81526020600482015260196024820152784e6f7420616363657074656420666f722064656c697665727960381b604482015260640161026e565b60408051606081018252828152336020808301828152838501888152600087815260038452868120955186559151600180870180546001600160a01b0319166001600160a01b0390931692909217909155905160029095019490945560048252849020805460ff1916909317909255915185815283917fdb4180dac917b30af1e3b7cd73c7a8ae35b1838cb62ffcf24e2b6cc47bd73248910160405180910390a3508061050381610b6d565b91505061027b565b50336001600160a01b03167f78cb5d18af69ebeea9987af79b63422ff50f37fddbb85decd425bca61319be6384848460405161054993929190610b94565b60405180910390a2505050565b61058360405180606001604052806000815260200160006001600160a01b03168152602001600081525090565b50600090815260036020908152604080832060048352928190205481516060810183528454815260018501546001600160a01b031693810193909352600290930154908201529160ff90911690565b6002546001600160a01b031633146105fc5760405162461bcd60e51b815260040161026e90610bd2565b6001600160a01b0381166106405760405162461bcd60e51b815260206004820152600b60248201526a426164206164647265737360a81b604482015260640161026e565b600180546001600160a01b0319166001600160a01b0383169081179091556040517face0bee1e745a238fef4dd1af47f07e3cdc6365e47dcd5defd631da9729c498890600090a250565b6002546001600160a01b031633146106b45760405162461bcd60e51b815260040161026e90610bd2565b6001600160a01b0381166106f85760405162461bcd60e51b815260206004820152600b60248201526a426164206164647265737360a81b604482015260640161026e565b600080546001600160a01b0319166001600160a01b038316908117825560405190917fb4f468c2483a81030ead82f325271c9ef237a840a48869d2fdc7c7e346776b4f91a250565b60008181526004602052604090205460ff16156107925760405162461bcd60e51b815260206004820152601060248201526f105b1c9958591e481c9958d95a5d995960821b604482015260640161026e565b60005460405162f577a560e81b8152600481018390526001600160a01b039091169063f577a50090602401602060405180830381865afa1580156107da573d6000803e3d6000fd5b505050506040513d601f19601f820116820180604052508101906107fe9190610b4b565b61083c5760405162461bcd60e51b815260206004820152600f60248201526e125b9d985b1a590bd95e1c1a5c9959608a1b604482015260640161026e565b6001546040516329bc3b8560e01b8152600481018390526001600160a01b03909116906329bc3b8590602401602060405180830381865afa158015610885573d6000803e3d6000fd5b505050506040513d601f19601f820116820180604052508101906108a99190610b4b565b6108f15760405162461bcd60e51b81526020600482015260196024820152784e6f7420616363657074656420666f722064656c697665727960381b604482015260640161026e565b6040805160608101825282815233602080830182815242848601818152600088815260038552878120965187559251600180880180546001600160a01b0319166001600160a01b039093169290921790915590516002909601959095556004835290859020805460ff191690941790935592519182529183917fdb4180dac917b30af1e3b7cd73c7a8ae35b1838cb62ffcf24e2b6cc47bd73248910160405180910390a350565b6002546001600160a01b031633146109c25760405162461bcd60e51b815260040161026e90610bd2565b60008181526004602052604090205460ff16610a0f5760405162461bcd60e51b815260206004820152600c60248201526b139bdd081c9958d95a5d995960a21b604482015260640161026e565b60008181526003602090815260408083208381556001810180546001600160a01b03191690556002018390556004909152808220805460ff1916905551339183917f306052b25af6805135b59b8add2e4ffab1395e52c4085c39c458ade483b084579190a350565b60008060208385031215610a8a57600080fd5b823567ffffffffffffffff80821115610aa257600080fd5b818501915085601f830112610ab657600080fd5b813581811115610ac557600080fd5b8660208260051b8501011115610ada57600080fd5b60209290920196919550909350505050565b600060208284031215610afe57600080fd5b5035919050565b600060208284031215610b1757600080fd5b81356001600160a01b0381168114610b2e57600080fd5b9392505050565b634e487b7160e01b600052603260045260246000fd5b600060208284031215610b5d57600080fd5b81518015158114610b2e57600080fd5b600060018201610b8d57634e487b7160e01b600052601160045260246000fd5b5060010190565b6040808252810183905260006001600160fb1b03841115610bb457600080fd5b8360051b808660608501376020830193909352500160600192915050565b6020808252600990820152682737ba1030b236b4b760b91b60408201526060019056fea26469706673582212204740c3ae9ec54163b075adff829b5515a6155370f52fa0d4922f3cc330ac55d164736f6c63430008130033",
  "immutableReferences": {},
  "source": "// SPDX-License-Identifier: MIT\r\npragma solidity ^0.8.19;\r\n\r\ninterface IPrescription {\r\n    function isValid(uint256 id) external view returns (bool);\r\n}\r\n\r\ninterface IDeliveryAccept {\r\n    function isAccepted(uint256 id) external view returns (bool);\r\n}\r\n\r\ncontract LogisticsReceive {\r\n    IPrescription public prescription;\r\n    IDeliveryAccept public deliveryAccept;\r\n    address public admin;\r\n\r\n    struct ReceiveRecord {\r\n        uint256 prescriptionId;\r\n        address who;\r\n        uint256 timestamp;\r\n    }\r\n\r\n    mapping(uint256 => ReceiveRecord) public receives;\r\n    mapping(uint256 => bool) public isReceived;\r\n\r\n    event PrescriptionAddressUpdated(address indexed newAddress);\r\n    event AcceptAddressUpdated(address indexed newAddress);\r\n    event Received(uint256 indexed prescriptionId, address indexed who, uint256 timestamp);\r\n    event Unreceived(uint256 indexed prescriptionId, address indexed by);\r\n    event ReceivedMany(uint256[] prescriptionIds, address indexed who, uint256 timestamp);\r\n\r\n    modifier onlyAdmin() {\r\n        require(msg.sender == admin, \"Not admin\");\r\n        _;\r\n    }\r\n\r\n    constructor(address _prescriptionAddress, address _acceptAddress) {\r\n        require(\r\n            _prescriptionAddress != address(0) && _acceptAddress != address(0),\r\n            \"Bad address\"\r\n        );\r\n        admin = msg.sender;\r\n        prescription = IPrescription(_prescriptionAddress);\r\n        deliveryAccept = IDeliveryAccept(_acceptAddress);\r\n    }\r\n\r\n    function setPrescriptionContract(address _newAddress) external onlyAdmin {\r\n        require(_newAddress != address(0), \"Bad address\");\r\n        prescription = IPrescription(_newAddress);\r\n        emit PrescriptionAddressUpdated(_newAddress);\r\n    }\r\n\r\n    function setAcceptContract(address _newAddress) external onlyAdmin {\r\n        require(_newAddress != address(0), \"Bad address\");\r\n        deliveryAccept = IDeliveryAccept(_newAddress);\r\n        emit AcceptAddressUpdated(_newAddress);\r\n    }\r\n\r\n    function receiveFromPharmacy(uint256 _prescriptionId) external {\r\n        require(!isReceived[_prescriptionId], \"Already received\");\r\n        require(prescription.isValid(_prescriptionId), \"Invalid/expired\");\r\n        require(deliveryAccept.isAccepted(_prescriptionId), \"Not accepted for delivery\");\r\n\r\n        receives[_prescriptionId] = ReceiveRecord({\r\n            prescriptionId: _prescriptionId,\r\n            who: msg.sender,\r\n            timestamp: block.timestamp\r\n        });\r\n\r\n        isReceived[_prescriptionId] = true;\r\n        emit Received(_prescriptionId, msg.sender, block.timestamp);\r\n    }\r\n\r\n    function receiveMultipleFromPharmacy(uint256[] calldata _prescriptionIds) external {\r\n        require(_prescriptionIds.length > 0, \"Empty list\");\r\n\r\n        uint256 ts = block.timestamp;\r\n\r\n        for (uint256 i = 0; i < _prescriptionIds.length; i++) {\r\n            uint256 id = _prescriptionIds[i];\r\n\r\n            require(!isReceived[id], \"Already received\");\r\n            require(prescription.isValid(id), \"Invalid/expired\");\r\n            require(deliveryAccept.isAccepted(id), \"Not accepted for delivery\");\r\n\r\n            receives[id] = ReceiveRecord({\r\n                prescriptionId: id,\r\n                who: msg.sender,\r\n                timestamp: ts\r\n            });\r\n\r\n            isReceived[id] = true;\r\n            emit Received(id, msg.sender, ts);\r\n        }\r\n\r\n        emit ReceivedMany(_prescriptionIds, msg.sender, ts);\r\n    }\r\n\r\n    function unreceiveFromPharmacy(uint256 _prescriptionId) external onlyAdmin {\r\n        require(isReceived[_prescriptionId], \"Not received\");\r\n        delete receives[_prescriptionId];\r\n        isReceived[_prescriptionId] = false;\r\n        emit Unreceived(_prescriptionId, msg.sender);\r\n    }\r\n\r\n    function getReceiveInfo(uint256 _prescriptionId)\r\n        external\r\n        view\r\n        returns (ReceiveRecord memory rec, bool received)\r\n    {\r\n        return (receives[_prescriptionId], isReceived[_prescriptionId]);\r\n    }\r\n}",
  "sourcePath": "C:\\Users\\hp\\Desktop\\2025_GP_G29\\contracts\\contracts\\LogisticsReceive.sol",
  "compiler": {
    "name": "solc",
    "version": "0.8.19+commit.7dd6d404.Emscripten.clang"
  },
  "schemaVersion": "3.4.16",
  "updatedAt": "2026-04-27T09:32:33.665Z",
  "networkType": "ethereum",
  "devdoc": {
    "kind": "dev",
    "methods": {},
    "version": 1
  },
  "userdoc": {
    "kind": "user",
    "methods": {},
    "version": 1
  }
}