{
  "contractName": "LogisticsAccept",
  "abi": [
    {
      "inputs": [
        {
          "internalType": "address[]",
          "name": "logisticsList",
          "type": "address[]"
        }
      ],
      "stateMutability": "nonpayable",
      "type": "constructor"
    },
    {
      "anonymous": false,
      "inputs": [
        {
          "indexed": true,
          "internalType": "uint256",
          "name": "prescriptionId",
          "type": "uint256"
        },
        {
          "indexed": true,
          "internalType": "address",
          "name": "logistics",
          "type": "address"
        }
      ],
      "name": "DeliveryAccepted",
      "type": "event"
    },
    {
      "inputs": [
        {
          "internalType": "uint256",
          "name": "",
          "type": "uint256"
        }
      ],
      "name": "deliveries",
      "outputs": [
        {
          "internalType": "bool",
          "name": "accepted",
          "type": "bool"
        },
        {
          "internalType": "address",
          "name": "logistics",
          "type": "address"
        },
        {
          "internalType": "uint256",
          "name": "acceptedAt",
          "type": "uint256"
        }
      ],
      "stateMutability": "view",
      "type": "function",
      "constant": true
    },
    {
      "inputs": [
        {
          "internalType": "address",
          "name": "",
          "type": "address"
        }
      ],
      "name": "isLogistics",
      "outputs": [
        {
          "internalType": "bool",
          "name": "",
          "type": "bool"
        }
      ],
      "stateMutability": "view",
      "type": "function",
      "constant": true
    },
    {
      "inputs": [
        {
          "internalType": "uint256",
          "name": "prescriptionId",
          "type": "uint256"
        }
      ],
      "name": "acceptDelivery",
      "outputs": [],
      "stateMutability": "nonpayable",
      "type": "function"
    }
  ],
  "bytecode": "0x608060405234801561001057600080fd5b5060405161044b38038061044b83398101604081905261002f916100cf565b60005b815181101561009657600160008084848151811061005257610052610193565b6020908102919091018101516001600160a01b03168252810191909152604001600020805460ff19169115159190911790558061008e816101a9565b915050610032565b50506101d0565b634e487b7160e01b600052604160045260246000fd5b80516001600160a01b03811681146100ca57600080fd5b919050565b600060208083850312156100e257600080fd5b82516001600160401b03808211156100f957600080fd5b818501915085601f83011261010d57600080fd5b81518181111561011f5761011f61009d565b8060051b604051601f19603f830116810181811085821117156101445761014461009d565b60405291825284820192508381018501918883111561016257600080fd5b938501935b8285101561018757610178856100b3565b84529385019392850192610167565b98975050505050505050565b634e487b7160e01b600052603260045260246000fd5b6000600182016101c957634e487b7160e01b600052601160045260246000fd5b5060010190565b61026c806101df6000396000f3fe608060405234801561001057600080fd5b50600436106100415760003560e01c80637b422c4c146100465780638305866f1461005b578063a9e4a32414610093575b600080fd5b6100596100543660046101ed565b6100f3565b005b61007e610069366004610206565b60006020819052908152604090205460ff1681565b60405190151581526020015b60405180910390f35b6100ce6100a13660046101ed565b6001602081905260009182526040909120805491015460ff82169161010090046001600160a01b03169083565b6040805193151584526001600160a01b0390921660208401529082015260600161008a565b3360009081526020819052604090205460ff166101475760405162461bcd60e51b815260206004820152600d60248201526c4e6f74206c6f6769737469637360981b60448201526064015b60405180910390fd5b6000818152600160205260409020805460ff161561019a5760405162461bcd60e51b815260206004820152601060248201526f105b1c9958591e481858d8d95c1d195960821b604482015260640161013e565b80543361010081026001600160a81b03199092169190911760019081178355429083015560405183907f1c51f672bb44381c6c32c39eb4d1a4d57901386e9fa53336d09a315dd6f5b28890600090a35050565b6000602082840312156101ff57600080fd5b5035919050565b60006020828403121561021857600080fd5b81356001600160a01b038116811461022f57600080fd5b939250505056fea26469706673582212200b0d3fabd5e7f36b6ff15cc4a150fd29700fd7d2d94c24540a2e2e8536a34fae64736f6c63430008130033",
  "immutableReferences": {},
  "source": "// SPDX-License-Identifier: MIT\r\npragma solidity ^0.8.19;\r\n\r\ncontract LogisticsAccept {\r\n\r\n    struct Delivery {\r\n        bool accepted;\r\n        address logistics;\r\n        uint256 acceptedAt;\r\n    }\r\n\r\n    mapping(address => bool) public isLogistics;\r\n    mapping(uint256 => Delivery) public deliveries;\r\n\r\n    event DeliveryAccepted(uint256 indexed prescriptionId, address indexed logistics);\r\n\r\n    constructor(address[] memory logisticsList) {\r\n        for (uint256 i = 0; i < logisticsList.length; i++) {\r\n            isLogistics[logisticsList[i]] = true;\r\n        }\r\n    }\r\n\r\n    function acceptDelivery(uint256 prescriptionId) external {\r\n        require(isLogistics[msg.sender], \"Not logistics\");\r\n\r\n        Delivery storage d = deliveries[prescriptionId];\r\n        require(!d.accepted, \"Already accepted\");\r\n\r\n        d.accepted = true;\r\n        d.logistics = msg.sender;\r\n        d.acceptedAt = block.timestamp;\r\n\r\n        emit DeliveryAccepted(prescriptionId, msg.sender);\r\n    }\r\n}\r\n",
  "sourcePath": "C:\\Users\\hp\\Desktop\\2025_GP_G29\\contracts\\LogisticsAccept.sol",
  "compiler": {
    "name": "solc",
    "version": "0.8.19+commit.7dd6d404.Emscripten.clang"
  },
  "schemaVersion": "3.4.16",
  "updatedAt": "2025-11-22T20:04:11.626Z",
  "networkType": "ethereum",
  "devdoc": {
    "kind": "dev",
    "methods": {},
    "version": 1
  },
  "userdoc": {
    "kind": "user",
    "methods": {},
    "version": 1
  }
}