{
  "contractName": "LogisticsAccept",
  "abi": [
    {
      "inputs": [
        {
          "internalType": "address",
          "name": "_prescriptionAddress",
          "type": "address"
        },
        {
          "internalType": "address[]",
          "name": "logisticsList",
          "type": "address[]"
        }
      ],
      "stateMutability": "nonpayable",
      "type": "constructor"
    },
    {
      "anonymous": false,
      "inputs": [
        {
          "indexed": true,
          "internalType": "uint256",
          "name": "prescriptionId",
          "type": "uint256"
        },
        {
          "indexed": true,
          "internalType": "address",
          "name": "logistics",
          "type": "address"
        }
      ],
      "name": "DeliveryAccepted",
      "type": "event"
    },
    {
      "inputs": [
        {
          "internalType": "uint256",
          "name": "",
          "type": "uint256"
        }
      ],
      "name": "deliveries",
      "outputs": [
        {
          "internalType": "bool",
          "name": "accepted",
          "type": "bool"
        },
        {
          "internalType": "address",
          "name": "logistics",
          "type": "address"
        },
        {
          "internalType": "uint256",
          "name": "acceptedAt",
          "type": "uint256"
        }
      ],
      "stateMutability": "view",
      "type": "function",
      "constant": true
    },
    {
      "inputs": [
        {
          "internalType": "address",
          "name": "",
          "type": "address"
        }
      ],
      "name": "isLogistics",
      "outputs": [
        {
          "internalType": "bool",
          "name": "",
          "type": "bool"
        }
      ],
      "stateMutability": "view",
      "type": "function",
      "constant": true
    },
    {
      "inputs": [],
      "name": "prescription",
      "outputs": [
        {
          "internalType": "contract IPrescription",
          "name": "",
          "type": "address"
        }
      ],
      "stateMutability": "view",
      "type": "function",
      "constant": true
    },
    {
      "inputs": [
        {
          "internalType": "uint256",
          "name": "prescriptionId",
          "type": "uint256"
        }
      ],
      "name": "acceptDelivery",
      "outputs": [],
      "stateMutability": "nonpayable",
      "type": "function"
    },
    {
      "inputs": [
        {
          "internalType": "uint256[]",
          "name": "prescriptionIds",
          "type": "uint256[]"
        }
      ],
      "name": "acceptMultipleDeliveries",
      "outputs": [],
      "stateMutability": "nonpayable",
      "type": "function"
    }
  ],
  "bytecode": "0x608060405234801561001057600080fd5b5060405161091f38038061091f83398101604081905261002f91610136565b6001600160a01b03821661007c5760405162461bcd60e51b815260206004820152601060248201526f2130b210383932b9b1b934b83a34b7b760811b604482015260640160405180910390fd5b600080546001600160a01b0319166001600160a01b0384161781555b81518110156100fc5760018060008484815181106100b8576100b861020f565b6020908102919091018101516001600160a01b03168252810191909152604001600020805460ff1916911515919091179055806100f481610225565b915050610098565b50505061024c565b80516001600160a01b038116811461011b57600080fd5b919050565b634e487b7160e01b600052604160045260246000fd5b6000806040838503121561014957600080fd5b61015283610104565b602084810151919350906001600160401b038082111561017157600080fd5b818601915086601f83011261018557600080fd5b81518181111561019757610197610120565b8060051b604051601f19603f830116810181811085821117156101bc576101bc610120565b6040529182528482019250838101850191898311156101da57600080fd5b938501935b828510156101ff576101f085610104565b845293850193928501926101df565b8096505050505050509250929050565b634e487b7160e01b600052603260045260246000fd5b60006001820161024557634e487b7160e01b600052601160045260246000fd5b5060010190565b6106c48061025b6000396000f3fe608060405234801561001057600080fd5b50600436106100575760003560e01c80637b422c4c1461005c5780638305866f14610071578063a9e4a324146100a9578063af151ccc14610109578063d4fbc8fb14610134575b600080fd5b61006f61006a366004610512565b610147565b005b61009461007f36600461052b565b60016020526000908152604090205460ff1681565b60405190151581526020015b60405180910390f35b6100e46100b7366004610512565b6002602052600090815260409020805460019091015460ff82169161010090046001600160a01b03169083565b6040805193151584526001600160a01b039092166020840152908201526060016100a0565b60005461011c906001600160a01b031681565b6040516001600160a01b0390911681526020016100a0565b61006f610142366004610571565b6102eb565b3360009081526001602052604090205460ff1661019b5760405162461bcd60e51b815260206004820152600d60248201526c4e6f74206c6f6769737469637360981b60448201526064015b60405180910390fd5b60005460405162f577a560e81b8152600481018390526001600160a01b039091169063f577a50090602401602060405180830381865afa1580156101e3573d6000803e3d6000fd5b505050506040513d601f19601f82011682018060405250810190610207919061062f565b6102455760405162461bcd60e51b815260206004820152600f60248201526e125b9d985b1a590bd95e1c1a5c9959608a1b6044820152606401610192565b6000818152600260205260409020805460ff16156102985760405162461bcd60e51b815260206004820152601060248201526f105b1c9958591e481858d8d95c1d195960821b6044820152606401610192565b80543361010081026001600160a81b03199092169190911760019081178355429083015560405183907f1c51f672bb44381c6c32c39eb4d1a4d57901386e9fa53336d09a315dd6f5b28890600090a35050565b3360009081526001602052604090205460ff1661033a5760405162461bcd60e51b815260206004820152600d60248201526c4e6f74206c6f6769737469637360981b6044820152606401610192565b60008151116103815760405162461bcd60e51b8152602060048201526013602482015272456d70747920707265736372697074696f6e7360681b6044820152606401610192565b60005b815181101561050e5760008282815181106103a1576103a1610651565b602090810291909101015160005460405162f577a560e81b8152600481018390529192506001600160a01b03169063f577a50090602401602060405180830381865afa1580156103f5573d6000803e3d6000fd5b505050506040513d601f19601f82011682018060405250810190610419919061062f565b6104575760405162461bcd60e51b815260206004820152600f60248201526e125b9d985b1a590bd95e1c1a5c9959608a1b6044820152606401610192565b6000818152600260205260409020805460ff16156104aa5760405162461bcd60e51b815260206004820152601060248201526f105b1c9958591e481858d8d95c1d195960821b6044820152606401610192565b80543361010081026001600160a81b03199092169190911760019081178355429083015560405183907f1c51f672bb44381c6c32c39eb4d1a4d57901386e9fa53336d09a315dd6f5b28890600090a35050808061050690610667565b915050610384565b5050565b60006020828403121561052457600080fd5b5035919050565b60006020828403121561053d57600080fd5b81356001600160a01b038116811461055457600080fd5b9392505050565b634e487b7160e01b600052604160045260246000fd5b6000602080838503121561058457600080fd5b823567ffffffffffffffff8082111561059c57600080fd5b818501915085601f8301126105b057600080fd5b8135818111156105c2576105c261055b565b8060051b604051601f19603f830116810181811085821117156105e7576105e761055b565b60405291825284820192508381018501918883111561060557600080fd5b938501935b828510156106235784358452938501939285019261060a565b98975050505050505050565b60006020828403121561064157600080fd5b8151801515811461055457600080fd5b634e487b7160e01b600052603260045260246000fd5b60006001820161068757634e487b7160e01b600052601160045260246000fd5b506001019056fea264697066735822122022ed32bf58f04634829aaaebc48450e02f081d69bf144fd0130aa9956dab095364736f6c63430008130033",
  "immutableReferences": {},
  "source": "// SPDX-License-Identifier: MIT\r\npragma solidity ^0.8.19;\r\n\r\ninterface IPrescription {\r\n    function isValid(uint256 id) external view returns (bool);\r\n}\r\n\r\ncontract LogisticsAccept {\r\n    struct Delivery {\r\n        bool accepted;\r\n        address logistics;\r\n        uint256 acceptedAt;\r\n    }\r\n\r\n    IPrescription public prescription;\r\n\r\n    mapping(address => bool) public isLogistics;\r\n    mapping(uint256 => Delivery) public deliveries;\r\n\r\n    event DeliveryAccepted(uint256 indexed prescriptionId, address indexed logistics);\r\n\r\n    constructor(address _prescriptionAddress, address[] memory logisticsList) {\r\n        require(_prescriptionAddress != address(0), \"Bad prescription\");\r\n        prescription = IPrescription(_prescriptionAddress);\r\n\r\n        for (uint256 i = 0; i < logisticsList.length; i++) {\r\n            isLogistics[logisticsList[i]] = true;\r\n        }\r\n    }\r\n\r\n    function acceptDelivery(uint256 prescriptionId) external {\r\n        require(isLogistics[msg.sender], \"Not logistics\");\r\n        require(prescription.isValid(prescriptionId), \"Invalid/expired\");\r\n\r\n        Delivery storage d = deliveries[prescriptionId];\r\n        require(!d.accepted, \"Already accepted\");\r\n\r\n        d.accepted = true;\r\n        d.logistics = msg.sender;\r\n        d.acceptedAt = block.timestamp;\r\n\r\n        emit DeliveryAccepted(prescriptionId, msg.sender);\r\n    }\r\n\r\n    function acceptMultipleDeliveries(uint256[] memory prescriptionIds) external {\r\n        require(isLogistics[msg.sender], \"Not logistics\");\r\n        require(prescriptionIds.length > 0, \"Empty prescriptions\");\r\n\r\n        for (uint256 i = 0; i < prescriptionIds.length; i++) {\r\n            uint256 prescriptionId = prescriptionIds[i];\r\n\r\n            require(prescription.isValid(prescriptionId), \"Invalid/expired\");\r\n\r\n            Delivery storage d = deliveries[prescriptionId];\r\n            require(!d.accepted, \"Already accepted\");\r\n\r\n            d.accepted = true;\r\n            d.logistics = msg.sender;\r\n            d.acceptedAt = block.timestamp;\r\n\r\n            emit DeliveryAccepted(prescriptionId, msg.sender);\r\n        }\r\n    }\r\n}",
  "sourcePath": "C:\\Users\\hp\\Desktop\\2025_GP_G29\\contracts\\LogisticsAccept.sol",
  "compiler": {
    "name": "solc",
    "version": "0.8.19+commit.7dd6d404.Emscripten.clang"
  },
  "schemaVersion": "3.4.16",
  "updatedAt": "2026-04-27T09:32:34.682Z",
  "networkType": "ethereum",
  "devdoc": {
    "kind": "dev",
    "methods": {},
    "version": 1
  },
  "userdoc": {
    "kind": "user",
    "methods": {},
    "version": 1
  }
}