{
  "contractName": "LogisticsReceive",
  "abi": [
    {
      "inputs": [
        {
          "internalType": "address",
          "name": "_prescriptionAddress",
          "type": "address"
        },
        {
          "internalType": "address",
          "name": "_acceptAddress",
          "type": "address"
        }
      ],
      "stateMutability": "nonpayable",
      "type": "constructor"
    },
    {
      "anonymous": false,
      "inputs": [
        {
          "indexed": true,
          "internalType": "address",
          "name": "newAddress",
          "type": "address"
        }
      ],
      "name": "AcceptAddressUpdated",
      "type": "event"
    },
    {
      "anonymous": false,
      "inputs": [
        {
          "indexed": true,
          "internalType": "address",
          "name": "newAddress",
          "type": "address"
        }
      ],
      "name": "PrescriptionAddressUpdated",
      "type": "event"
    },
    {
      "anonymous": false,
      "inputs": [
        {
          "indexed": true,
          "internalType": "uint256",
          "name": "prescriptionId",
          "type": "uint256"
        },
        {
          "indexed": true,
          "internalType": "address",
          "name": "who",
          "type": "address"
        },
        {
          "indexed": false,
          "internalType": "uint256",
          "name": "timestamp",
          "type": "uint256"
        }
      ],
      "name": "Received",
      "type": "event"
    },
    {
      "anonymous": false,
      "inputs": [
        {
          "indexed": true,
          "internalType": "uint256",
          "name": "prescriptionId",
          "type": "uint256"
        },
        {
          "indexed": true,
          "internalType": "address",
          "name": "by",
          "type": "address"
        }
      ],
      "name": "Unreceived",
      "type": "event"
    },
    {
      "inputs": [],
      "name": "admin",
      "outputs": [
        {
          "internalType": "address",
          "name": "",
          "type": "address"
        }
      ],
      "stateMutability": "view",
      "type": "function",
      "constant": true
    },
    {
      "inputs": [],
      "name": "deliveryAccept",
      "outputs": [
        {
          "internalType": "contract IDeliveryAccept",
          "name": "",
          "type": "address"
        }
      ],
      "stateMutability": "view",
      "type": "function",
      "constant": true
    },
    {
      "inputs": [
        {
          "internalType": "uint256",
          "name": "",
          "type": "uint256"
        }
      ],
      "name": "isReceived",
      "outputs": [
        {
          "internalType": "bool",
          "name": "",
          "type": "bool"
        }
      ],
      "stateMutability": "view",
      "type": "function",
      "constant": true
    },
    {
      "inputs": [],
      "name": "prescription",
      "outputs": [
        {
          "internalType": "contract IPrescription",
          "name": "",
          "type": "address"
        }
      ],
      "stateMutability": "view",
      "type": "function",
      "constant": true
    },
    {
      "inputs": [
        {
          "internalType": "uint256",
          "name": "",
          "type": "uint256"
        }
      ],
      "name": "receives",
      "outputs": [
        {
          "internalType": "uint256",
          "name": "prescriptionId",
          "type": "uint256"
        },
        {
          "internalType": "address",
          "name": "who",
          "type": "address"
        },
        {
          "internalType": "uint256",
          "name": "timestamp",
          "type": "uint256"
        }
      ],
      "stateMutability": "view",
      "type": "function",
      "constant": true
    },
    {
      "inputs": [
        {
          "internalType": "address",
          "name": "_newAddress",
          "type": "address"
        }
      ],
      "name": "setPrescriptionContract",
      "outputs": [],
      "stateMutability": "nonpayable",
      "type": "function"
    },
    {
      "inputs": [
        {
          "internalType": "address",
          "name": "_newAddress",
          "type": "address"
        }
      ],
      "name": "setAcceptContract",
      "outputs": [],
      "stateMutability": "nonpayable",
      "type": "function"
    },
    {
      "inputs": [
        {
          "internalType": "uint256",
          "name": "_prescriptionId",
          "type": "uint256"
        }
      ],
      "name": "receiveFromPharmacy",
      "outputs": [],
      "stateMutability": "nonpayable",
      "type": "function"
    },
    {
      "inputs": [
        {
          "internalType": "uint256",
          "name": "_prescriptionId",
          "type": "uint256"
        }
      ],
      "name": "unreceiveFromPharmacy",
      "outputs": [],
      "stateMutability": "nonpayable",
      "type": "function"
    },
    {
      "inputs": [
        {
          "internalType": "uint256",
          "name": "_prescriptionId",
          "type": "uint256"
        }
      ],
      "name": "getReceiveInfo",
      "outputs": [
        {
          "components": [
            {
              "internalType": "uint256",
              "name": "prescriptionId",
              "type": "uint256"
            },
            {
              "internalType": "address",
              "name": "who",
              "type": "address"
            },
            {
              "internalType": "uint256",
              "name": "timestamp",
              "type": "uint256"
            }
          ],
          "internalType": "struct LogisticsReceive.ReceiveRecord",
          "name": "rec",
          "type": "tuple"
        },
        {
          "internalType": "bool",
          "name": "received",
          "type": "bool"
        }
      ],
      "stateMutability": "view",
      "type": "function",
      "constant": true
    }
  ],
  "bytecode": "0x608060405234801561001057600080fd5b5060405161093338038061093383398101604081905261002f916100e5565b6001600160a01b0382161580159061004f57506001600160a01b03811615155b61008d5760405162461bcd60e51b815260206004820152600b60248201526a426164206164647265737360a81b604482015260640160405180910390fd5b600280546001600160a01b03199081163317909155600080546001600160a01b0394851690831617905560018054929093169116179055610118565b80516001600160a01b03811681146100e057600080fd5b919050565b600080604083850312156100f857600080fd5b610101836100c9565b915061010f602084016100c9565b90509250929050565b61080c806101276000396000f3fe608060405234801561001057600080fd5b506004361061009e5760003560e01c80639995c205116100665780639995c205146101bb578063af151ccc146101ce578063dab18c71146101e1578063f6684249146101f4578063f851a4401461020757600080fd5b806316910a51146100a35780633ccf5966146101035780635fba8ce1146101485780636f87b4181461015d5780639946735214610190575b600080fd5b6100db6100b1366004610748565b60036020526000908152604090208054600182015460029092015490916001600160a01b03169083565b604080519384526001600160a01b039092166020840152908201526060015b60405180910390f35b610116610111366004610748565b61021a565b60408051835181526020808501516001600160a01b0316908201529281015190830152151560608201526080016100fa565b61015b610156366004610761565b610296565b005b61018061016b366004610748565b60046020526000908152604090205460ff1681565b60405190151581526020016100fa565b6001546101a3906001600160a01b031681565b6040516001600160a01b0390911681526020016100fa565b61015b6101c9366004610761565b610357565b6000546101a3906001600160a01b031681565b61015b6101ef366004610748565b61040d565b61015b610202366004610748565b610669565b6002546101a3906001600160a01b031681565b61024760405180606001604052806000815260200160006001600160a01b03168152602001600081525090565b50600090815260036020908152604080832060048352928190205481516060810183528454815260018501546001600160a01b031693810193909352600290930154908201529160ff90911690565b6002546001600160a01b031633146102c95760405162461bcd60e51b81526004016102c090610791565b60405180910390fd5b6001600160a01b03811661030d5760405162461bcd60e51b815260206004820152600b60248201526a426164206164647265737360a81b60448201526064016102c0565b600180546001600160a01b0319166001600160a01b0383169081179091556040517face0bee1e745a238fef4dd1af47f07e3cdc6365e47dcd5defd631da9729c498890600090a250565b6002546001600160a01b031633146103815760405162461bcd60e51b81526004016102c090610791565b6001600160a01b0381166103c55760405162461bcd60e51b815260206004820152600b60248201526a426164206164647265737360a81b60448201526064016102c0565b600080546001600160a01b0319166001600160a01b038316908117825560405190917fb4f468c2483a81030ead82f325271c9ef237a840a48869d2fdc7c7e346776b4f91a250565b60008181526004602052604090205460ff161561045f5760405162461bcd60e51b815260206004820152601060248201526f105b1c9958591e481c9958d95a5d995960821b60448201526064016102c0565b60005460405162f577a560e81b8152600481018390526001600160a01b039091169063f577a50090602401602060405180830381865afa1580156104a7573d6000803e3d6000fd5b505050506040513d601f19601f820116820180604052508101906104cb91906107b4565b6105095760405162461bcd60e51b815260206004820152600f60248201526e125b9d985b1a590bd95e1c1a5c9959608a1b60448201526064016102c0565b6001546040516329bc3b8560e01b8152600481018390526001600160a01b03909116906329bc3b8590602401602060405180830381865afa158015610552573d6000803e3d6000fd5b505050506040513d601f19601f8201168201806040525081019061057691906107b4565b6105c25760405162461bcd60e51b815260206004820152601960248201527f4e6f7420616363657074656420666f722064656c69766572790000000000000060448201526064016102c0565b6040805160608101825282815233602080830182815242848601818152600088815260038552878120965187559251600180880180546001600160a01b0319166001600160a01b039093169290921790915590516002909601959095556004835290859020805460ff191690941790935592519182529183917fdb4180dac917b30af1e3b7cd73c7a8ae35b1838cb62ffcf24e2b6cc47bd73248910160405180910390a350565b6002546001600160a01b031633146106935760405162461bcd60e51b81526004016102c090610791565b60008181526004602052604090205460ff166106e05760405162461bcd60e51b815260206004820152600c60248201526b139bdd081c9958d95a5d995960a21b60448201526064016102c0565b60008181526003602090815260408083208381556001810180546001600160a01b03191690556002018390556004909152808220805460ff1916905551339183917f306052b25af6805135b59b8add2e4ffab1395e52c4085c39c458ade483b084579190a350565b60006020828403121561075a57600080fd5b5035919050565b60006020828403121561077357600080fd5b81356001600160a01b038116811461078a57600080fd5b9392505050565b6020808252600990820152682737ba1030b236b4b760b91b604082015260600190565b6000602082840312156107c657600080fd5b8151801515811461078a57600080fdfea2646970667358221220569c3405d4ff49d8c2a6f1b44a09b0c4dd2d247e250d8aec1ed9f904f1d24e4d64736f6c63430008130033",
  "immutableReferences": {},
  "source": "// SPDX-License-Identifier: MIT\npragma solidity ^0.8.19;\n\ninterface IPrescription {\n    function isValid(uint256 id) external view returns (bool);\n}\n\ninterface IDeliveryAccept {\n    function isAccepted(uint256 id) external view returns (bool);\n}\n\n/// @title LogisticsReceive\n/// @notice        (    / )\n///           :       :\n///         -     Prescription\n///         -      DeliveryAccept\n///         -      \ncontract LogisticsReceive {\n    IPrescription public prescription;\n    IDeliveryAccept public deliveryAccept;\n    address public admin;\n\n    struct ReceiveRecord {\n        uint256 prescriptionId; //     \n        address who;            //     ( / )\n        uint256 timestamp;      //  \n    }\n\n    // prescriptionId =>  \n    mapping(uint256 => ReceiveRecord) public receives;\n    // prescriptionId =>   \n    mapping(uint256 => bool) public isReceived;\n\n    event PrescriptionAddressUpdated(address indexed newAddress);\n    event AcceptAddressUpdated(address indexed newAddress);\n    event Received(uint256 indexed prescriptionId, address indexed who, uint256 timestamp);\n    event Unreceived(uint256 indexed prescriptionId, address indexed by);\n\n    modifier onlyAdmin() {\n        require(msg.sender == admin, \"Not admin\");\n        _;\n    }\n\n    constructor(address _prescriptionAddress, address _acceptAddress) {\n        require(_prescriptionAddress != address(0) && _acceptAddress != address(0), \"Bad address\");\n        admin = msg.sender;\n        prescription = IPrescription(_prescriptionAddress);\n        deliveryAccept = IDeliveryAccept(_acceptAddress);\n    }\n\n    /// @notice      \n    function setPrescriptionContract(address _newAddress) external onlyAdmin {\n        require(_newAddress != address(0), \"Bad address\");\n        prescription = IPrescription(_newAddress);\n        emit PrescriptionAddressUpdated(_newAddress);\n    }\n\n    /// @notice      \n    function setAcceptContract(address _newAddress) external onlyAdmin {\n        require(_newAddress != address(0), \"Bad address\");\n        deliveryAccept = IDeliveryAccept(_newAddress);\n        emit AcceptAddressUpdated(_newAddress);\n    }\n\n    /// @notice     \n    ///                 .\n    function receiveFromPharmacy(uint256 _prescriptionId) external {\n        require(!isReceived[_prescriptionId], \"Already received\");\n        require(prescription.isValid(_prescriptionId), \"Invalid/expired\");\n        require(deliveryAccept.isAccepted(_prescriptionId), \"Not accepted for delivery\");\n\n        receives[_prescriptionId] = ReceiveRecord({\n            prescriptionId: _prescriptionId,\n            who: msg.sender,\n            timestamp: block.timestamp\n        });\n\n        isReceived[_prescriptionId] = true;\n        emit Received(_prescriptionId, msg.sender, block.timestamp);\n    }\n\n    /// @notice   ( )    \n    function unreceiveFromPharmacy(uint256 _prescriptionId) external onlyAdmin {\n        require(isReceived[_prescriptionId], \"Not received\");\n        delete receives[_prescriptionId];\n        isReceived[_prescriptionId] = false;\n        emit Unreceived(_prescriptionId, msg.sender);\n    }\n\n    /// @notice     \n    function getReceiveInfo(uint256 _prescriptionId)\n        external\n        view\n        returns (ReceiveRecord memory rec, bool received)\n    {\n        return (receives[_prescriptionId], isReceived[_prescriptionId]);\n    }\n}\n",
  "sourcePath": "/Users/ftoon/Documents/TrustDose/contracts/contracts/LogisticsReceive.sol",
  "compiler": {
    "name": "solc",
    "version": "0.8.19+commit.7dd6d404.Emscripten.clang"
  },
  "schemaVersion": "3.4.16",
  "updatedAt": "2025-11-26T12:03:24.186Z",
  "networkType": "ethereum",
  "devdoc": {
    "kind": "dev",
    "methods": {},
    "title": "LogisticsReceive",
    "version": 1
  },
  "userdoc": {
    "kind": "user",
    "methods": {
      "getReceiveInfo(uint256)": {
        "notice": "    "
      },
      "receiveFromPharmacy(uint256)": {
        "notice": "                     ."
      },
      "setAcceptContract(address)": {
        "notice": "     "
      },
      "setPrescriptionContract(address)": {
        "notice": "     "
      },
      "unreceiveFromPharmacy(uint256)": {
        "notice": "  ( )    "
      }
    },
    "notice": "       (    / )           :       :         -     Prescription         -      DeliveryAccept         -      ",
    "version": 1
  }
}