{
  "contractName": "LogisticsReceive",
  "abi": [
    {
      "inputs": [
        {
          "internalType": "address",
          "name": "_prescriptionAddress",
          "type": "address"
        },
        {
          "internalType": "address",
          "name": "_acceptAddress",
          "type": "address"
        }
      ],
      "stateMutability": "nonpayable",
      "type": "constructor"
    },
    {
      "anonymous": false,
      "inputs": [
        {
          "indexed": true,
          "internalType": "address",
          "name": "newAddress",
          "type": "address"
        }
      ],
      "name": "AcceptAddressUpdated",
      "type": "event"
    },
    {
      "anonymous": false,
      "inputs": [
        {
          "indexed": true,
          "internalType": "address",
          "name": "account",
          "type": "address"
        },
        {
          "indexed": false,
          "internalType": "bool",
          "name": "enabled",
          "type": "bool"
        }
      ],
      "name": "LogisticsUpdated",
      "type": "event"
    },
    {
      "anonymous": false,
      "inputs": [
        {
          "indexed": true,
          "internalType": "address",
          "name": "newAddress",
          "type": "address"
        }
      ],
      "name": "PrescriptionAddressUpdated",
      "type": "event"
    },
    {
      "anonymous": false,
      "inputs": [
        {
          "indexed": true,
          "internalType": "uint256",
          "name": "prescriptionId",
          "type": "uint256"
        },
        {
          "indexed": true,
          "internalType": "address",
          "name": "logistics",
          "type": "address"
        },
        {
          "indexed": false,
          "internalType": "uint256",
          "name": "timestamp",
          "type": "uint256"
        }
      ],
      "name": "Received",
      "type": "event"
    },
    {
      "anonymous": false,
      "inputs": [
        {
          "indexed": true,
          "internalType": "uint256",
          "name": "prescriptionId",
          "type": "uint256"
        },
        {
          "indexed": true,
          "internalType": "address",
          "name": "by",
          "type": "address"
        }
      ],
      "name": "Unreceived",
      "type": "event"
    },
    {
      "inputs": [],
      "name": "admin",
      "outputs": [
        {
          "internalType": "address",
          "name": "",
          "type": "address"
        }
      ],
      "stateMutability": "view",
      "type": "function",
      "constant": true
    },
    {
      "inputs": [],
      "name": "deliveryAccept",
      "outputs": [
        {
          "internalType": "contract IDeliveryAccept",
          "name": "",
          "type": "address"
        }
      ],
      "stateMutability": "view",
      "type": "function",
      "constant": true
    },
    {
      "inputs": [
        {
          "internalType": "address",
          "name": "",
          "type": "address"
        }
      ],
      "name": "isLogistics",
      "outputs": [
        {
          "internalType": "bool",
          "name": "",
          "type": "bool"
        }
      ],
      "stateMutability": "view",
      "type": "function",
      "constant": true
    },
    {
      "inputs": [
        {
          "internalType": "uint256",
          "name": "",
          "type": "uint256"
        }
      ],
      "name": "isReceived",
      "outputs": [
        {
          "internalType": "bool",
          "name": "",
          "type": "bool"
        }
      ],
      "stateMutability": "view",
      "type": "function",
      "constant": true
    },
    {
      "inputs": [],
      "name": "prescription",
      "outputs": [
        {
          "internalType": "contract IPrescription",
          "name": "",
          "type": "address"
        }
      ],
      "stateMutability": "view",
      "type": "function",
      "constant": true
    },
    {
      "inputs": [
        {
          "internalType": "uint256",
          "name": "",
          "type": "uint256"
        }
      ],
      "name": "receives",
      "outputs": [
        {
          "internalType": "uint256",
          "name": "prescriptionId",
          "type": "uint256"
        },
        {
          "internalType": "address",
          "name": "logistics",
          "type": "address"
        },
        {
          "internalType": "uint256",
          "name": "timestamp",
          "type": "uint256"
        }
      ],
      "stateMutability": "view",
      "type": "function",
      "constant": true
    },
    {
      "inputs": [
        {
          "internalType": "address",
          "name": "_newAddress",
          "type": "address"
        }
      ],
      "name": "setPrescriptionContract",
      "outputs": [],
      "stateMutability": "nonpayable",
      "type": "function"
    },
    {
      "inputs": [
        {
          "internalType": "address",
          "name": "_newAddress",
          "type": "address"
        }
      ],
      "name": "setAcceptContract",
      "outputs": [],
      "stateMutability": "nonpayable",
      "type": "function"
    },
    {
      "inputs": [
        {
          "internalType": "address",
          "name": "account",
          "type": "address"
        },
        {
          "internalType": "bool",
          "name": "enabled",
          "type": "bool"
        }
      ],
      "name": "setLogistics",
      "outputs": [],
      "stateMutability": "nonpayable",
      "type": "function"
    },
    {
      "inputs": [
        {
          "internalType": "uint256",
          "name": "_prescriptionId",
          "type": "uint256"
        }
      ],
      "name": "receiveFromPharmacy",
      "outputs": [],
      "stateMutability": "nonpayable",
      "type": "function"
    },
    {
      "inputs": [
        {
          "internalType": "uint256",
          "name": "_prescriptionId",
          "type": "uint256"
        }
      ],
      "name": "unreceiveFromPharmacy",
      "outputs": [],
      "stateMutability": "nonpayable",
      "type": "function"
    },
    {
      "inputs": [
        {
          "internalType": "uint256",
          "name": "_prescriptionId",
          "type": "uint256"
        }
      ],
      "name": "getReceiveInfo",
      "outputs": [
        {
          "components": [
            {
              "internalType": "uint256",
              "name": "prescriptionId",
              "type": "uint256"
            },
            {
              "internalType": "address",
              "name": "logistics",
              "type": "address"
            },
            {
              "internalType": "uint256",
              "name": "timestamp",
              "type": "uint256"
            }
          ],
          "internalType": "struct LogisticsReceive.ReceiveRecord",
          "name": "rec",
          "type": "tuple"
        },
        {
          "internalType": "bool",
          "name": "received",
          "type": "bool"
        }
      ],
      "stateMutability": "view",
      "type": "function",
      "constant": true
    }
  ],
  "bytecode": "0x608060405234801561001057600080fd5b50604051610ab7380380610ab783398101604081905261002f916100e5565b6001600160a01b0382161580159061004f57506001600160a01b03811615155b61008d5760405162461bcd60e51b815260206004820152600b60248201526a426164206164647265737360a81b604482015260640160405180910390fd5b600280546001600160a01b03199081163317909155600080546001600160a01b0394851690831617905560018054929093169116179055610118565b80516001600160a01b03811681146100e057600080fd5b919050565b600080604083850312156100f857600080fd5b610101836100c9565b915061010f602084016100c9565b90509250929050565b610990806101276000396000f3fe608060405234801561001057600080fd5b50600436106100b45760003560e01c80639995c205116100715780639995c205146101f4578063af151ccc14610207578063dab18c711461021a578063f66842491461022d578063f851a44014610240578063ffc00e441461025357600080fd5b806316910a51146100b95780633ccf5966146101195780635fba8ce11461015e5780636f87b418146101735780638305866f146101a657806399467352146101c9575b600080fd5b6100f16100c7366004610856565b60046020526000908152604090208054600182015460029092015490916001600160a01b03169083565b604080519384526001600160a01b039092166020840152908201526060015b60405180910390f35b61012c610127366004610856565b610266565b60408051835181526020808501516001600160a01b031690820152928101519083015215156060820152608001610110565b61017161016c36600461088b565b6102e2565b005b610196610181366004610856565b60056020526000908152604090205460ff1681565b6040519015158152602001610110565b6101966101b436600461088b565b60036020526000908152604090205460ff1681565b6001546101dc906001600160a01b031681565b6040516001600160a01b039091168152602001610110565b61017161020236600461088b565b610385565b6000546101dc906001600160a01b031681565b610171610228366004610856565b61041d565b61017161023b366004610856565b6106c8565b6002546101dc906001600160a01b031681565b6101716102613660046108be565b6107a7565b61029360405180606001604052806000815260200160006001600160a01b03168152602001600081525090565b50600090815260046020908152604080832060058352928190205481516060810183528454815260018501546001600160a01b031693810193909352600290930154908201529160ff90911690565b6002546001600160a01b031633146103155760405162461bcd60e51b815260040161030c906108f5565b60405180910390fd5b6001600160a01b03811661033b5760405162461bcd60e51b815260040161030c90610918565b600180546001600160a01b0319166001600160a01b0383169081179091556040517face0bee1e745a238fef4dd1af47f07e3cdc6365e47dcd5defd631da9729c498890600090a250565b6002546001600160a01b031633146103af5760405162461bcd60e51b815260040161030c906108f5565b6001600160a01b0381166103d55760405162461bcd60e51b815260040161030c90610918565b600080546001600160a01b0319166001600160a01b038316908117825560405190917fb4f468c2483a81030ead82f325271c9ef237a840a48869d2fdc7c7e346776b4f91a250565b3360009081526003602052604090205460ff1661046c5760405162461bcd60e51b815260206004820152600d60248201526c4e6f74206c6f6769737469637360981b604482015260640161030c565b60008181526005602052604090205460ff16156104be5760405162461bcd60e51b815260206004820152601060248201526f105b1c9958591e481c9958d95a5d995960821b604482015260640161030c565b60005460405162f577a560e81b8152600481018390526001600160a01b039091169063f577a50090602401602060405180830381865afa158015610506573d6000803e3d6000fd5b505050506040513d601f19601f8201168201806040525081019061052a919061093d565b6105685760405162461bcd60e51b815260206004820152600f60248201526e125b9d985b1a590bd95e1c1a5c9959608a1b604482015260640161030c565b6001546040516329bc3b8560e01b8152600481018390526001600160a01b03909116906329bc3b8590602401602060405180830381865afa1580156105b1573d6000803e3d6000fd5b505050506040513d601f19601f820116820180604052508101906105d5919061093d565b6106215760405162461bcd60e51b815260206004820152601960248201527f4e6f7420616363657074656420666f722064656c697665727900000000000000604482015260640161030c565b6040805160608101825282815233602080830182815242848601818152600088815260048552878120965187559251600180880180546001600160a01b0319166001600160a01b039093169290921790915590516002909601959095556005835290859020805460ff191690941790935592519182529183917fdb4180dac917b30af1e3b7cd73c7a8ae35b1838cb62ffcf24e2b6cc47bd73248910160405180910390a350565b6002546001600160a01b031633146106f25760405162461bcd60e51b815260040161030c906108f5565b60008181526005602052604090205460ff1661073f5760405162461bcd60e51b815260206004820152600c60248201526b139bdd081c9958d95a5d995960a21b604482015260640161030c565b60008181526004602090815260408083208381556001810180546001600160a01b03191690556002018390556005909152808220805460ff1916905551339183917f306052b25af6805135b59b8add2e4ffab1395e52c4085c39c458ade483b084579190a350565b6002546001600160a01b031633146107d15760405162461bcd60e51b815260040161030c906108f5565b6001600160a01b0382166107f75760405162461bcd60e51b815260040161030c90610918565b6001600160a01b038216600081815260036020908152604091829020805460ff191685151590811790915591519182527f7f5efc799a6f1ef958bcb2d141df8f2c105e64bbf087753f8802351ef6bae830910160405180910390a25050565b60006020828403121561086857600080fd5b5035919050565b80356001600160a01b038116811461088657600080fd5b919050565b60006020828403121561089d57600080fd5b6108a68261086f565b9392505050565b80151581146108bb57600080fd5b50565b600080604083850312156108d157600080fd5b6108da8361086f565b915060208301356108ea816108ad565b809150509250929050565b6020808252600990820152682737ba1030b236b4b760b91b604082015260600190565b6020808252600b908201526a426164206164647265737360a81b604082015260600190565b60006020828403121561094f57600080fd5b81516108a6816108ad56fea2646970667358221220e2616273201a90f985519bf2cc182ec1d5a4b12cb418bfd9128950b0e3313d1764736f6c63430008130033",
  "immutableReferences": {},
  "source": "// SPDX-License-Identifier: MIT\r\npragma solidity ^0.8.19;\r\n\r\ninterface IPrescription {\r\n    function isValid(uint256 id) external view returns (bool);\r\n}\r\n\r\ninterface IDeliveryAccept {\r\n    function isAccepted(uint256 id) external view returns (bool);\r\n}\r\n\r\n/// @title LogisticsReceive\r\n/// @notice        .\r\n///               .\r\n///          :   +    +    .\r\ncontract LogisticsReceive {\r\n    IPrescription public prescription;\r\n    IDeliveryAccept public deliveryAccept;\r\n    address public admin;\r\n\r\n    //   \r\n    mapping(address => bool) public isLogistics;\r\n\r\n    struct ReceiveRecord {\r\n        uint256 prescriptionId; //     \r\n        address logistics;      //      \r\n        uint256 timestamp;      //  \r\n    }\r\n\r\n    // prescriptionId =>  \r\n    mapping(uint256 => ReceiveRecord) public receives;\r\n    // prescriptionId =>   \r\n    mapping(uint256 => bool) public isReceived;\r\n\r\n    event PrescriptionAddressUpdated(address indexed newAddress);\r\n    event AcceptAddressUpdated(address indexed newAddress);\r\n    event LogisticsUpdated(address indexed account, bool enabled);\r\n    event Received(uint256 indexed prescriptionId, address indexed logistics, uint256 timestamp);\r\n    event Unreceived(uint256 indexed prescriptionId, address indexed by);\r\n\r\n    modifier onlyAdmin() {\r\n        require(msg.sender == admin, \"Not admin\");\r\n        _;\r\n    }\r\n\r\n    modifier onlyLogisticsRole() {\r\n        require(isLogistics[msg.sender], \"Not logistics\");\r\n        _;\r\n    }\r\n\r\n    constructor(address _prescriptionAddress, address _acceptAddress) {\r\n        require(_prescriptionAddress != address(0) && _acceptAddress != address(0), \"Bad address\");\r\n        admin = msg.sender;\r\n        prescription = IPrescription(_prescriptionAddress);\r\n        deliveryAccept = IDeliveryAccept(_acceptAddress);\r\n    }\r\n\r\n    /// @notice      \r\n    function setPrescriptionContract(address _newAddress) external onlyAdmin {\r\n        require(_newAddress != address(0), \"Bad address\");\r\n        prescription = IPrescription(_newAddress);\r\n        emit PrescriptionAddressUpdated(_newAddress);\r\n    }\r\n\r\n    /// @notice      \r\n    function setAcceptContract(address _newAddress) external onlyAdmin {\r\n        require(_newAddress != address(0), \"Bad address\");\r\n        deliveryAccept = IDeliveryAccept(_newAddress);\r\n        emit AcceptAddressUpdated(_newAddress);\r\n    }\r\n\r\n    /// @notice  /    \r\n    function setLogistics(address account, bool enabled) external onlyAdmin {\r\n      require(account != address(0), \"Bad address\");\r\n      isLogistics[account] = enabled;\r\n      emit LogisticsUpdated(account, enabled);\r\n    }\r\n\r\n    /// @notice      ( )\r\n    function receiveFromPharmacy(uint256 _prescriptionId) external onlyLogisticsRole {\r\n        require(!isReceived[_prescriptionId], \"Already received\");\r\n        require(prescription.isValid(_prescriptionId), \"Invalid/expired\");\r\n        require(deliveryAccept.isAccepted(_prescriptionId), \"Not accepted for delivery\");\r\n\r\n        receives[_prescriptionId] = ReceiveRecord({\r\n            prescriptionId: _prescriptionId,\r\n            logistics: msg.sender,\r\n            timestamp: block.timestamp\r\n        });\r\n\r\n        isReceived[_prescriptionId] = true;\r\n        emit Received(_prescriptionId, msg.sender, block.timestamp);\r\n    }\r\n\r\n    /// @notice   ( )    \r\n    function unreceiveFromPharmacy(uint256 _prescriptionId) external onlyAdmin {\r\n        require(isReceived[_prescriptionId], \"Not received\");\r\n        delete receives[_prescriptionId];\r\n        isReceived[_prescriptionId] = false;\r\n        emit Unreceived(_prescriptionId, msg.sender);\r\n    }\r\n\r\n    /// @notice     \r\n    function getReceiveInfo(uint256 _prescriptionId)\r\n        external\r\n        view\r\n        returns (ReceiveRecord memory rec, bool received)\r\n    {\r\n        return (receives[_prescriptionId], isReceived[_prescriptionId]);\r\n    }\r\n}\r\n",
  "sourcePath": "C:\\Users\\aljaw\\2025_GP_G29-5\\contracts\\contracts\\LogisticsReceive.sol",
  "compiler": {
    "name": "solc",
    "version": "0.8.19+commit.7dd6d404.Emscripten.clang"
  },
  "schemaVersion": "3.4.16",
  "updatedAt": "2025-11-16T17:09:59.323Z",
  "networkType": "ethereum",
  "devdoc": {
    "kind": "dev",
    "methods": {},
    "title": "LogisticsReceive",
    "version": 1
  },
  "userdoc": {
    "kind": "user",
    "methods": {
      "getReceiveInfo(uint256)": {
        "notice": "    "
      },
      "receiveFromPharmacy(uint256)": {
        "notice": "     ( )"
      },
      "setAcceptContract(address)": {
        "notice": "     "
      },
      "setLogistics(address,bool)": {
        "notice": " /    "
      },
      "setPrescriptionContract(address)": {
        "notice": "     "
      },
      "unreceiveFromPharmacy(uint256)": {
        "notice": "  ( )    "
      }
    },
    "notice": "       .               .          :   +    +    .",
    "version": 1
  }
}