{
  "contractName": "Prescription",
  "abi": [
    {
      "inputs": [],
      "stateMutability": "nonpayable",
      "type": "constructor"
    },
    {
      "anonymous": false,
      "inputs": [
        {
          "indexed": true,
          "internalType": "uint256",
          "name": "id",
          "type": "uint256"
        },
        {
          "indexed": true,
          "internalType": "address",
          "name": "doctor",
          "type": "address"
        },
        {
          "indexed": false,
          "internalType": "uint256",
          "name": "newExpiresAt",
          "type": "uint256"
        }
      ],
      "name": "ExtensionApproved",
      "type": "event"
    },
    {
      "anonymous": false,
      "inputs": [
        {
          "indexed": true,
          "internalType": "uint256",
          "name": "id",
          "type": "uint256"
        },
        {
          "indexed": true,
          "internalType": "address",
          "name": "by",
          "type": "address"
        }
      ],
      "name": "ExtensionRejected",
      "type": "event"
    },
    {
      "anonymous": false,
      "inputs": [
        {
          "indexed": true,
          "internalType": "uint256",
          "name": "id",
          "type": "uint256"
        },
        {
          "indexed": true,
          "internalType": "address",
          "name": "pharmacist",
          "type": "address"
        },
        {
          "indexed": false,
          "internalType": "uint256",
          "name": "extraSeconds",
          "type": "uint256"
        }
      ],
      "name": "ExtensionRequested",
      "type": "event"
    },
    {
      "anonymous": false,
      "inputs": [
        {
          "indexed": true,
          "internalType": "uint256",
          "name": "id",
          "type": "uint256"
        },
        {
          "indexed": true,
          "internalType": "address",
          "name": "doctor",
          "type": "address"
        },
        {
          "indexed": true,
          "internalType": "bytes32",
          "name": "patientHash",
          "type": "bytes32"
        },
        {
          "indexed": false,
          "internalType": "string",
          "name": "medicine",
          "type": "string"
        },
        {
          "indexed": false,
          "internalType": "string",
          "name": "dose",
          "type": "string"
        },
        {
          "indexed": false,
          "internalType": "string",
          "name": "frequency",
          "type": "string"
        },
        {
          "indexed": false,
          "internalType": "string",
          "name": "durationText",
          "type": "string"
        },
        {
          "indexed": false,
          "internalType": "uint256",
          "name": "createdAt",
          "type": "uint256"
        },
        {
          "indexed": false,
          "internalType": "uint256",
          "name": "expiresAt",
          "type": "uint256"
        }
      ],
      "name": "PrescriptionCreated",
      "type": "event"
    },
    {
      "anonymous": false,
      "inputs": [
        {
          "indexed": true,
          "internalType": "uint256",
          "name": "id",
          "type": "uint256"
        },
        {
          "indexed": true,
          "internalType": "address",
          "name": "by",
          "type": "address"
        }
      ],
      "name": "PrescriptionDeactivated",
      "type": "event"
    },
    {
      "anonymous": false,
      "inputs": [
        {
          "indexed": false,
          "internalType": "string",
          "name": "role",
          "type": "string"
        },
        {
          "indexed": false,
          "internalType": "address",
          "name": "account",
          "type": "address"
        },
        {
          "indexed": false,
          "internalType": "bool",
          "name": "enabled",
          "type": "bool"
        }
      ],
      "name": "RoleUpdated",
      "type": "event"
    },
    {
      "inputs": [],
      "name": "DEFAULT_VALIDITY",
      "outputs": [
        {
          "internalType": "uint256",
          "name": "",
          "type": "uint256"
        }
      ],
      "stateMutability": "view",
      "type": "function",
      "constant": true
    },
    {
      "inputs": [],
      "name": "MAX_EXTENSION",
      "outputs": [
        {
          "internalType": "uint256",
          "name": "",
          "type": "uint256"
        }
      ],
      "stateMutability": "view",
      "type": "function",
      "constant": true
    },
    {
      "inputs": [],
      "name": "admin",
      "outputs": [
        {
          "internalType": "address",
          "name": "",
          "type": "address"
        }
      ],
      "stateMutability": "view",
      "type": "function",
      "constant": true
    },
    {
      "inputs": [
        {
          "internalType": "uint256",
          "name": "",
          "type": "uint256"
        }
      ],
      "name": "extensionRequests",
      "outputs": [
        {
          "internalType": "uint256",
          "name": "extraSeconds",
          "type": "uint256"
        },
        {
          "internalType": "address",
          "name": "pharmacist",
          "type": "address"
        },
        {
          "internalType": "bool",
          "name": "exists",
          "type": "bool"
        }
      ],
      "stateMutability": "view",
      "type": "function",
      "constant": true
    },
    {
      "inputs": [
        {
          "internalType": "address",
          "name": "",
          "type": "address"
        }
      ],
      "name": "isDoctor",
      "outputs": [
        {
          "internalType": "bool",
          "name": "",
          "type": "bool"
        }
      ],
      "stateMutability": "view",
      "type": "function",
      "constant": true
    },
    {
      "inputs": [
        {
          "internalType": "address",
          "name": "",
          "type": "address"
        }
      ],
      "name": "isPharmacist",
      "outputs": [
        {
          "internalType": "bool",
          "name": "",
          "type": "bool"
        }
      ],
      "stateMutability": "view",
      "type": "function",
      "constant": true
    },
    {
      "inputs": [
        {
          "internalType": "uint256",
          "name": "",
          "type": "uint256"
        }
      ],
      "name": "prescriptions",
      "outputs": [
        {
          "internalType": "uint256",
          "name": "id",
          "type": "uint256"
        },
        {
          "internalType": "bytes32",
          "name": "patientHash",
          "type": "bytes32"
        },
        {
          "internalType": "string",
          "name": "medicine",
          "type": "string"
        },
        {
          "internalType": "string",
          "name": "dose",
          "type": "string"
        },
        {
          "internalType": "string",
          "name": "frequency",
          "type": "string"
        },
        {
          "internalType": "string",
          "name": "durationText",
          "type": "string"
        },
        {
          "internalType": "address",
          "name": "doctor",
          "type": "address"
        },
        {
          "internalType": "uint256",
          "name": "createdAt",
          "type": "uint256"
        },
        {
          "internalType": "uint256",
          "name": "expiresAt",
          "type": "uint256"
        },
        {
          "internalType": "bool",
          "name": "isActive",
          "type": "bool"
        }
      ],
      "stateMutability": "view",
      "type": "function",
      "constant": true
    },
    {
      "inputs": [
        {
          "internalType": "address",
          "name": "account",
          "type": "address"
        },
        {
          "internalType": "bool",
          "name": "enabled",
          "type": "bool"
        }
      ],
      "name": "setDoctor",
      "outputs": [],
      "stateMutability": "nonpayable",
      "type": "function"
    },
    {
      "inputs": [
        {
          "internalType": "address",
          "name": "account",
          "type": "address"
        },
        {
          "internalType": "bool",
          "name": "enabled",
          "type": "bool"
        }
      ],
      "name": "setPharmacist",
      "outputs": [],
      "stateMutability": "nonpayable",
      "type": "function"
    },
    {
      "inputs": [
        {
          "internalType": "uint256",
          "name": "_id",
          "type": "uint256"
        }
      ],
      "name": "getPrescription",
      "outputs": [
        {
          "internalType": "bytes32",
          "name": "patientHash",
          "type": "bytes32"
        },
        {
          "internalType": "string",
          "name": "medicine",
          "type": "string"
        },
        {
          "internalType": "string",
          "name": "dose",
          "type": "string"
        },
        {
          "internalType": "string",
          "name": "frequency",
          "type": "string"
        },
        {
          "internalType": "string",
          "name": "durationText",
          "type": "string"
        },
        {
          "internalType": "uint256",
          "name": "createdAt",
          "type": "uint256"
        },
        {
          "internalType": "uint256",
          "name": "expiresAt",
          "type": "uint256"
        },
        {
          "internalType": "bool",
          "name": "isActive",
          "type": "bool"
        }
      ],
      "stateMutability": "view",
      "type": "function",
      "constant": true
    },
    {
      "inputs": [
        {
          "internalType": "bytes32",
          "name": "patientHash",
          "type": "bytes32"
        },
        {
          "internalType": "string",
          "name": "medicine",
          "type": "string"
        },
        {
          "internalType": "string",
          "name": "dose",
          "type": "string"
        },
        {
          "internalType": "string",
          "name": "frequency",
          "type": "string"
        },
        {
          "internalType": "string",
          "name": "durationText",
          "type": "string"
        }
      ],
      "name": "createPrescription",
      "outputs": [
        {
          "internalType": "uint256",
          "name": "",
          "type": "uint256"
        }
      ],
      "stateMutability": "nonpayable",
      "type": "function"
    },
    {
      "inputs": [
        {
          "internalType": "uint256",
          "name": "id",
          "type": "uint256"
        },
        {
          "internalType": "uint256",
          "name": "extraSeconds",
          "type": "uint256"
        }
      ],
      "name": "requestExtension",
      "outputs": [],
      "stateMutability": "nonpayable",
      "type": "function"
    },
    {
      "inputs": [
        {
          "internalType": "uint256",
          "name": "id",
          "type": "uint256"
        }
      ],
      "name": "approveExtension",
      "outputs": [],
      "stateMutability": "nonpayable",
      "type": "function"
    },
    {
      "inputs": [
        {
          "internalType": "uint256",
          "name": "id",
          "type": "uint256"
        }
      ],
      "name": "rejectExtension",
      "outputs": [],
      "stateMutability": "nonpayable",
      "type": "function"
    },
    {
      "inputs": [
        {
          "internalType": "uint256",
          "name": "id",
          "type": "uint256"
        }
      ],
      "name": "deactivate",
      "outputs": [],
      "stateMutability": "nonpayable",
      "type": "function"
    },
    {
      "inputs": [],
      "name": "getCount",
      "outputs": [
        {
          "internalType": "uint256",
          "name": "",
          "type": "uint256"
        }
      ],
      "stateMutability": "view",
      "type": "function",
      "constant": true
    },
    {
      "inputs": [
        {
          "internalType": "uint256",
          "name": "id",
          "type": "uint256"
        }
      ],
      "name": "isValid",
      "outputs": [
        {
          "internalType": "bool",
          "name": "",
          "type": "bool"
        }
      ],
      "stateMutability": "view",
      "type": "function",
      "constant": true
    },
    {
      "inputs": [
        {
          "internalType": "uint256",
          "name": "id",
          "type": "uint256"
        }
      ],
      "name": "remainingSeconds",
      "outputs": [
        {
          "internalType": "uint256",
          "name": "",
          "type": "uint256"
        }
      ],
      "stateMutability": "view",
      "type": "function",
      "constant": true
    }
  ],
  "bytecode": "0x608060405234801561001057600080fd5b50600080546001600160a01b0319163390811782558152600160208190526040909120805460ff19169091179055611d4f8061004d6000396000f3fe608060405234801561001057600080fd5b50600436106101165760003560e01c80639a92fb92116100a2578063c3e0881611610071578063c3e0881614610268578063d97c6df1146102c9578063f577a500146102dc578063f7e6c1cb146102ef578063f851a4401461030257600080fd5b80639a92fb92146102275780639f369aa91461023a578063a87d942c1461024d578063aedf60981461025557600080fd5b80636f16af10116100e95780636f16af101461018d57806382946ee2146101b4578063916b9bef146101e757806393a101f6146101fa578063996440c61461020457600080fd5b80630c5cb77e1461011b57806331dfc91b146101305780634d4af539146101625780636c68d41a1461017a575b600080fd5b61012e6101293660046117a1565b61032d565b005b61014361013e3660046117dd565b610403565b6040516101599a9998979695949392919061183c565b60405180910390f35b61016c6202a30081565b604051908152602001610159565b61016c610188366004611972565b61067e565b6101a061019b3660046117dd565b61089c565b604051610159989796959493929190611a29565b6101d76101c2366004611aa2565b60026020526000908152604090205460ff1681565b6040519015158152602001610159565b61012e6101f53660046117dd565b610b7f565b61016c62278d0081565b6101d7610212366004611aa2565b60016020526000908152604090205460ff1681565b61016c6102353660046117dd565b610c9f565b61012e610248366004611abd565b610f9a565b60035461016c565b61012e6102633660046117dd565b611115565b6102a46102763660046117dd565b600560205260009081526040902080546001909101546001600160a01b03811690600160a01b900460ff1683565b604080519384526001600160a01b039092166020840152151590820152606001610159565b61012e6102d73660046117a1565b6112a9565b6101d76102ea3660046117dd565b61136e565b61012e6102fd3660046117dd565b611657565b600054610315906001600160a01b031681565b6040516001600160a01b039091168152602001610159565b6000546001600160a01b031633146103785760405162461bcd60e51b81526020600482015260096024820152682737ba1030b236b4b760b91b60448201526064015b60405180910390fd5b6001600160a01b038216600081815260026020908152604091829020805460ff191685151590811790915582516060808252600a908201526914121054935050d254d560b21b608082015291820193909352908101919091527f64e73bff6805de0b6789825ae0104b869cf17040bf0e43f6ee820a435324dd2f9060a0015b60405180910390a15050565b6004602052600090815260409020805460018201546002830180549293919261042b90611adf565b80601f016020809104026020016040519081016040528092919081815260200182805461045790611adf565b80156104a45780601f10610479576101008083540402835291602001916104a4565b820191906000526020600020905b81548152906001019060200180831161048757829003601f168201915b5050505050908060030180546104b990611adf565b80601f01602080910402602001604051908101604052809291908181526020018280546104e590611adf565b80156105325780601f1061050757610100808354040283529160200191610532565b820191906000526020600020905b81548152906001019060200180831161051557829003601f168201915b50505050509080600401805461054790611adf565b80601f016020809104026020016040519081016040528092919081815260200182805461057390611adf565b80156105c05780601f10610595576101008083540402835291602001916105c0565b820191906000526020600020905b8154815290600101906020018083116105a357829003601f168201915b5050505050908060050180546105d590611adf565b80601f016020809104026020016040519081016040528092919081815260200182805461060190611adf565b801561064e5780601f106106235761010080835404028352916020019161064e565b820191906000526020600020905b81548152906001019060200180831161063157829003601f168201915b5050505060068301546007840154600885015460099095015493946001600160a01b039092169390925060ff168a565b3360009081526001602052604081205460ff16806106a657506000546001600160a01b031633145b6106c25760405162461bcd60e51b815260040161036f90611b19565b856107055760405162461bcd60e51b8152602060048201526013602482015272092dcecc2d8d2c840e0c2e8d2cadce890c2e6d606b1b604482015260640161036f565b6001600360008282546107189190611b53565b90915550429050600061072e6202a30083611b53565b604080516101408101825260035480825260208083018d81528385018d8152606085018d9052608085018c905260a085018b90523360c086015260e0850189905261010085018790526001610120860181905260009485526004909352949092208351815591519082015591519293509160028201906107ae9082611bb5565b50606082015160038201906107c39082611bb5565b50608082015160048201906107d89082611bb5565b5060a082015160058201906107ed9082611bb5565b5060c08201516006820180546001600160a01b0319166001600160a01b0390921691909117905560e082015160078201556101008201516008820155610120909101516009909101805460ff1916911515919091179055600354604051899133917fcc38050ba588735557d1216b2453c5f1d5054be038c68bffbc701fc11b80f3c990610885908c908c908c908c908b908b90611c75565b60405180910390a450506003549695505050505050565b600060608060608060008060006108b28961176c565b6108eb5760405162461bcd60e51b815260206004820152600a602482015269125b9d985b1a5908125160b21b604482015260640161036f565b6000600460008b81526020019081526020016000209050806001015481600201826003018360040184600501856007015486600801548760090160009054906101000a900460ff1686805461093f90611adf565b80601f016020809104026020016040519081016040528092919081815260200182805461096b90611adf565b80156109b85780601f1061098d576101008083540402835291602001916109b8565b820191906000526020600020905b81548152906001019060200180831161099b57829003601f168201915b505050505096508580546109cb90611adf565b80601f01602080910402602001604051908101604052809291908181526020018280546109f790611adf565b8015610a445780601f10610a1957610100808354040283529160200191610a44565b820191906000526020600020905b815481529060010190602001808311610a2757829003601f168201915b50505050509550848054610a5790611adf565b80601f0160208091040260200160405190810160405280929190818152602001828054610a8390611adf565b8015610ad05780601f10610aa557610100808354040283529160200191610ad0565b820191906000526020600020905b815481529060010190602001808311610ab357829003601f168201915b50505050509450838054610ae390611adf565b80601f0160208091040260200160405190810160405280929190818152602001828054610b0f90611adf565b8015610b5c5780601f10610b3157610100808354040283529160200191610b5c565b820191906000526020600020905b815481529060010190602001808311610b3f57829003601f168201915b505050505093509850985098509850985098509850985050919395975091939597565b3360009081526001602052604090205460ff1680610ba757506000546001600160a01b031633145b610bc35760405162461bcd60e51b815260040161036f90611b19565b610bcc8161176c565b610be85760405162461bcd60e51b815260040161036f90611cd8565b6000818152600460205260409020600601546001600160a01b0316331480610c1a57506000546001600160a01b031633145b610c595760405162461bcd60e51b815260206004820152601060248201526f2737ba1037bbb732b9103237b1ba37b960811b604482015260640161036f565b600081815260046020526040808220600901805460ff1916905551339183917fab7b6d4ca6bb2bcdbe946a64125402e356d047b0f74f703ba6ea0dc84bcc98329190a350565b6000610caa8261176c565b610cb657506000919050565b600060046000848152602001908152602001600020604051806101400160405290816000820154815260200160018201548152602001600282018054610cfb90611adf565b80601f0160208091040260200160405190810160405280929190818152602001828054610d2790611adf565b8015610d745780601f10610d4957610100808354040283529160200191610d74565b820191906000526020600020905b815481529060010190602001808311610d5757829003601f168201915b50505050508152602001600382018054610d8d90611adf565b80601f0160208091040260200160405190810160405280929190818152602001828054610db990611adf565b8015610e065780601f10610ddb57610100808354040283529160200191610e06565b820191906000526020600020905b815481529060010190602001808311610de957829003601f168201915b50505050508152602001600482018054610e1f90611adf565b80601f0160208091040260200160405190810160405280929190818152602001828054610e4b90611adf565b8015610e985780601f10610e6d57610100808354040283529160200191610e98565b820191906000526020600020905b815481529060010190602001808311610e7b57829003601f168201915b50505050508152602001600582018054610eb190611adf565b80601f0160208091040260200160405190810160405280929190818152602001828054610edd90611adf565b8015610f2a5780601f10610eff57610100808354040283529160200191610f2a565b820191906000526020600020905b815481529060010190602001808311610f0d57829003601f168201915b505050918352505060068201546001600160a01b03166020820152600782015460408201526008820154606082015260099091015460ff1615156080909101526101008101519091504210610f825750600092915050565b42816101000151610f939190611d06565b9392505050565b3360009081526002602052604090205460ff1680610fc257506000546001600160a01b031633145b610fff5760405162461bcd60e51b815260206004820152600e60248201526d139bdd081c1a185c9b5858da5cdd60921b604482015260640161036f565b6110088261176c565b6110245760405162461bcd60e51b815260040161036f90611cd8565b600081118015611037575062278d008111155b6110765760405162461bcd60e51b815260206004820152601060248201526f4261642065787472615365636f6e647360801b604482015260640161036f565b60408051606081018252828152336020808301828152600184860181815260008981526005909452928690209451855590519301805491511515600160a01b026001600160a81b03199092166001600160a01b03949094169390931717909155905183907fe47cff2ebed8ad4659f468899ab7ebd88febb7485219b360fc15bfac802daf98906111099085815260200190565b60405180910390a35050565b3360009081526001602052604090205460ff168061113d57506000546001600160a01b031633145b6111595760405162461bcd60e51b815260040161036f90611b19565b6111628161176c565b61117e5760405162461bcd60e51b815260040161036f90611cd8565b6000818152600560209081526040918290208251606081018452815481526001909101546001600160a01b03811692820192909252600160a01b90910460ff161515918101829052906112085760405162461bcd60e51b8152602060048201526012602482015271139bc81c195b991a5b99c81c995c5d595cdd60721b604482015260640161036f565b60008281526004602052604081206008810154909190421161122e578160080154611230565b425b835190915061123f9082611b53565b600883019081556000858152600560209081526040808320928355600190920180546001600160a81b031916905591549051908152339186917f026c24805d5838253be86c9dcfeebd7bb85f584be1de4f13058beffd8ad8e750910160405180910390a350505050565b6000546001600160a01b031633146112ef5760405162461bcd60e51b81526020600482015260096024820152682737ba1030b236b4b760b91b604482015260640161036f565b6001600160a01b038216600081815260016020908152604091829020805460ff191685151590811790915582516060808252600690820152652227a1aa27a960d11b608082015291820193909352908101919091527f64e73bff6805de0b6789825ae0104b869cf17040bf0e43f6ee820a435324dd2f9060a0016103f7565b60006113798261176c565b61138557506000919050565b6000600460008481526020019081526020016000206040518061014001604052908160008201548152602001600182015481526020016002820180546113ca90611adf565b80601f01602080910402602001604051908101604052809291908181526020018280546113f690611adf565b80156114435780601f1061141857610100808354040283529160200191611443565b820191906000526020600020905b81548152906001019060200180831161142657829003601f168201915b5050505050815260200160038201805461145c90611adf565b80601f016020809104026020016040519081016040528092919081815260200182805461148890611adf565b80156114d55780601f106114aa576101008083540402835291602001916114d5565b820191906000526020600020905b8154815290600101906020018083116114b857829003601f168201915b505050505081526020016004820180546114ee90611adf565b80601f016020809104026020016040519081016040528092919081815260200182805461151a90611adf565b80156115675780601f1061153c57610100808354040283529160200191611567565b820191906000526020600020905b81548152906001019060200180831161154a57829003601f168201915b5050505050815260200160058201805461158090611adf565b80601f01602080910402602001604051908101604052809291908181526020018280546115ac90611adf565b80156115f95780601f106115ce576101008083540402835291602001916115f9565b820191906000526020600020905b8154815290600101906020018083116115dc57829003601f168201915b505050918352505060068201546001600160a01b03166020820152600782015460408201526008820154606082015260099091015460ff1615156080909101526101208101519091508015610f935750610100015142111592915050565b3360009081526001602052604090205460ff168061167f57506000546001600160a01b031633145b61169b5760405162461bcd60e51b815260040161036f90611b19565b6116a48161176c565b6116c05760405162461bcd60e51b815260040161036f90611cd8565b600081815260056020526040902060010154600160a01b900460ff1661171d5760405162461bcd60e51b8152602060048201526012602482015271139bc81c195b991a5b99c81c995c5d595cdd60721b604482015260640161036f565b60008181526005602052604080822082815560010180546001600160a81b031916905551339183917fdb92f72761befc275dcb2170066a22e9fec1be57b867d7e646e1c1cc5d9aa0a49190a350565b6000808211801561177f57506003548211155b92915050565b80356001600160a01b038116811461179c57600080fd5b919050565b600080604083850312156117b457600080fd5b6117bd83611785565b9150602083013580151581146117d257600080fd5b809150509250929050565b6000602082840312156117ef57600080fd5b5035919050565b6000815180845260005b8181101561181c57602081850181015186830182015201611800565b506000602082860101526020601f19601f83011685010191505092915050565b60006101408c83528b602084015280604084015261185c8184018c6117f6565b90508281036060840152611870818b6117f6565b90508281036080840152611884818a6117f6565b905082810360a084015261189881896117f6565b6001600160a01b039790971660c0840152505060e08101939093526101008301919091521515610120909101529695505050505050565b634e487b7160e01b600052604160045260246000fd5b600082601f8301126118f657600080fd5b813567ffffffffffffffff80821115611911576119116118cf565b604051601f8301601f19908116603f01168101908282118183101715611939576119396118cf565b8160405283815286602085880101111561195257600080fd5b836020870160208301376000602085830101528094505050505092915050565b600080600080600060a0868803121561198a57600080fd5b85359450602086013567ffffffffffffffff808211156119a957600080fd5b6119b589838a016118e5565b955060408801359150808211156119cb57600080fd5b6119d789838a016118e5565b945060608801359150808211156119ed57600080fd5b6119f989838a016118e5565b93506080880135915080821115611a0f57600080fd5b50611a1c888289016118e5565b9150509295509295909350565b60006101008a8352806020840152611a438184018b6117f6565b90508281036040840152611a57818a6117f6565b90508281036060840152611a6b81896117f6565b90508281036080840152611a7f81886117f6565b60a0840196909652505060c0810192909252151560e09091015295945050505050565b600060208284031215611ab457600080fd5b610f9382611785565b60008060408385031215611ad057600080fd5b50508035926020909101359150565b600181811c90821680611af357607f821691505b602082108103611b1357634e487b7160e01b600052602260045260246000fd5b50919050565b6020808252600a90820152692737ba103237b1ba37b960b11b604082015260600190565b634e487b7160e01b600052601160045260246000fd5b8082018082111561177f5761177f611b3d565b601f821115611bb057600081815260208120601f850160051c81016020861015611b8d5750805b601f850160051c820191505b81811015611bac57828155600101611b99565b5050505b505050565b815167ffffffffffffffff811115611bcf57611bcf6118cf565b611be381611bdd8454611adf565b84611b66565b602080601f831160018114611c185760008415611c005750858301515b600019600386901b1c1916600185901b178555611bac565b600085815260208120601f198616915b82811015611c4757888601518255948401946001909101908401611c28565b5085821015611c655787850151600019600388901b60f8161c191681555b5050505050600190811b01905550565b60c081526000611c8860c08301896117f6565b8281036020840152611c9a81896117f6565b90508281036040840152611cae81886117f6565b90508281036060840152611cc281876117f6565b6080840195909552505060a00152949350505050565b60208082526014908201527327379039bab1b410383932b9b1b934b83a34b7b760611b604082015260600190565b8181038181111561177f5761177f611b3d56fea2646970667358221220f03dddf7f69dbbd6ac024b1b1ba38dd4cba00f9ff59aa53fa532ca9a8e99611864736f6c63430008130033",
  "immutableReferences": {},
  "source": "// SPDX-License-Identifier: MIT\r\npragma solidity ^0.8.19;\r\n\r\n/// @title TrustDose Prescription Registry\r\n/// @notice    .\r\ncontract Prescription {\r\n    // =======   =======\r\n    uint256 public constant DEFAULT_VALIDITY = 48 hours;   //  \r\n    uint256 public constant MAX_EXTENSION    = 30 days;    //      \r\n\r\n    // =======      =======\r\n    address public admin;\r\n    mapping(address => bool) public isDoctor;\r\n    mapping(address => bool) public isPharmacist;\r\n\r\n    modifier onlyAdmin()      { require(msg.sender == admin, \"Not admin\"); _; }\r\n    modifier onlyDoctor()     { require(isDoctor[msg.sender] || msg.sender == admin, \"Not doctor\"); _; }\r\n    modifier onlyPharmacist() { require(isPharmacist[msg.sender] || msg.sender == admin, \"Not pharmacist\"); _; }\r\n\r\n    event RoleUpdated(string role, address account, bool enabled);\r\n\r\n    function setDoctor(address account, bool enabled) external onlyAdmin {\r\n        isDoctor[account] = enabled;\r\n        emit RoleUpdated(\"DOCTOR\", account, enabled);\r\n    }\r\n\r\n    function setPharmacist(address account, bool enabled) external onlyAdmin {\r\n        isPharmacist[account] = enabled;\r\n        emit RoleUpdated(\"PHARMACIST\", account, enabled);\r\n    }\r\n\r\n    // =======     =======\r\n    struct PrescriptionData {\r\n        uint256 id;\r\n        bytes32 patientHash;     // SHA-256   bytes32\r\n        string  medicine;\r\n        string  dose;\r\n        string  frequency;\r\n        string  durationText;    // \"10 days\" \r\n        address doctor;          //   \r\n        uint256 createdAt;\r\n        uint256 expiresAt;       //   \r\n        bool    isActive;        //  \r\n    }\r\n\r\n    //     (   )\r\n    struct ExtensionRequest {\r\n        uint256 extraSeconds;\r\n        address pharmacist;\r\n        bool    exists;\r\n    }\r\n\r\n    uint256 private _counter;\r\n    mapping(uint256 => PrescriptionData) public prescriptions;\r\n    mapping(uint256 => ExtensionRequest) public extensionRequests;\r\n\r\n    ///       \r\n    function getPrescription(uint256 _id)\r\n        external\r\n        view\r\n        returns (\r\n            bytes32 patientHash,\r\n            string memory medicine,\r\n            string memory dose,\r\n            string memory frequency,\r\n            string memory durationText,\r\n            uint256 createdAt,\r\n            uint256 expiresAt,\r\n            bool isActive\r\n        )\r\n    {\r\n        require(_exists(_id), \"Invalid ID\");\r\n        PrescriptionData storage p = prescriptions[_id];\r\n        return (\r\n            p.patientHash,\r\n            p.medicine,\r\n            p.dose,\r\n            p.frequency,\r\n            p.durationText,\r\n            p.createdAt,\r\n            p.expiresAt,\r\n            p.isActive\r\n        );\r\n    }\r\n\r\n    // =======  =======\r\n    event PrescriptionCreated(\r\n        uint256 indexed id,\r\n        address indexed doctor,\r\n        bytes32 indexed patientHash,\r\n        string medicine,\r\n        string dose,\r\n        string frequency,\r\n        string durationText,\r\n        uint256 createdAt,\r\n        uint256 expiresAt\r\n    );\r\n    event PrescriptionDeactivated(uint256 indexed id, address indexed by);\r\n    event ExtensionRequested(uint256 indexed id, address indexed pharmacist, uint256 extraSeconds);\r\n    event ExtensionApproved(uint256 indexed id, address indexed doctor, uint256 newExpiresAt);\r\n    event ExtensionRejected(uint256 indexed id, address indexed by);\r\n\r\n    // =======  =======\r\n    constructor() {\r\n        admin = msg.sender;              //    Truffle  \r\n        isDoctor[msg.sender] = true;     //    \r\n    }\r\n\r\n    // =======   ( ) =======\r\n    function createPrescription(\r\n        bytes32 patientHash,\r\n        string memory medicine,\r\n        string memory dose,\r\n        string memory frequency,\r\n        string memory durationText\r\n    ) external onlyDoctor returns (uint256) {\r\n        require(patientHash != bytes32(0), \"Invalid patientHash\");\r\n\r\n        _counter += 1;\r\n\r\n        uint256 created = block.timestamp;\r\n        uint256 expires = created + DEFAULT_VALIDITY;\r\n\r\n        prescriptions[_counter] = PrescriptionData({\r\n            id: _counter,\r\n            patientHash: patientHash,\r\n            medicine: medicine,\r\n            dose: dose,\r\n            frequency: frequency,\r\n            durationText: durationText,\r\n            doctor: msg.sender,\r\n            createdAt: created,\r\n            expiresAt: expires,\r\n            isActive: true\r\n        });\r\n\r\n        emit PrescriptionCreated(\r\n            _counter,\r\n            msg.sender,\r\n            patientHash,\r\n            medicine,\r\n            dose,\r\n            frequency,\r\n            durationText,\r\n            created,\r\n            expires\r\n        );\r\n\r\n        return _counter;\r\n    }\r\n\r\n    // =======   () =======\r\n    function requestExtension(uint256 id, uint256 extraSeconds) external onlyPharmacist {\r\n        require(_exists(id), \"No such prescription\");\r\n        require(extraSeconds > 0 && extraSeconds <= MAX_EXTENSION, \"Bad extraSeconds\");\r\n\r\n        extensionRequests[id] = ExtensionRequest({\r\n            extraSeconds: extraSeconds,\r\n            pharmacist: msg.sender,\r\n            exists: true\r\n        });\r\n\r\n        emit ExtensionRequested(id, msg.sender, extraSeconds);\r\n    }\r\n\r\n    // =======   (/) =======\r\n    function approveExtension(uint256 id) external onlyDoctor {\r\n        require(_exists(id), \"No such prescription\");\r\n        ExtensionRequest memory req = extensionRequests[id];\r\n        require(req.exists, \"No pending request\");\r\n\r\n        PrescriptionData storage p = prescriptions[id];\r\n        //   :       \r\n        uint256 base = block.timestamp > p.expiresAt ? block.timestamp : p.expiresAt;\r\n        p.expiresAt = base + req.extraSeconds;\r\n\r\n        delete extensionRequests[id];\r\n        emit ExtensionApproved(id, msg.sender, p.expiresAt);\r\n    }\r\n\r\n    // ======= /   =======\r\n    function rejectExtension(uint256 id) external onlyDoctor {\r\n        require(_exists(id), \"No such prescription\");\r\n        require(extensionRequests[id].exists, \"No pending request\");\r\n        delete extensionRequests[id];\r\n        emit ExtensionRejected(id, msg.sender);\r\n    }\r\n\r\n    // =======   =======\r\n    function deactivate(uint256 id) external onlyDoctor {\r\n        require(_exists(id), \"No such prescription\");\r\n        require(prescriptions[id].doctor == msg.sender || msg.sender == admin, \"Not owner doctor\");\r\n        prescriptions[id].isActive = false;\r\n        emit PrescriptionDeactivated(id, msg.sender);\r\n    }\r\n\r\n    // =======   =======\r\n    function getCount() external view returns (uint256) { return _counter; }\r\n\r\n    function isValid(uint256 id) public view returns (bool) {\r\n        if (!_exists(id)) return false;\r\n        PrescriptionData memory p = prescriptions[id];\r\n        return p.isActive && block.timestamp <= p.expiresAt;\r\n    }\r\n\r\n    function remainingSeconds(uint256 id) external view returns (uint256) {\r\n        if (!_exists(id)) return 0;\r\n        PrescriptionData memory p = prescriptions[id];\r\n        if (block.timestamp >= p.expiresAt) return 0;\r\n        return p.expiresAt - block.timestamp;\r\n    }\r\n\r\n    // =======  =======\r\n    function _exists(uint256 id) internal view returns (bool) {\r\n        // mapping   length    \r\n        return id > 0 && id <= _counter;\r\n    }\r\n}\r\n",
  "sourcePath": "C:\\Users\\hp\\Desktop\\2025_GP_G29\\contracts\\contracts\\Prescription.sol",
  "compiler": {
    "name": "solc",
    "version": "0.8.19+commit.7dd6d404.Emscripten.clang"
  },
  "schemaVersion": "3.4.16",
  "updatedAt": "2025-10-19T09:24:14.102Z",
  "networkType": "ethereum",
  "devdoc": {
    "kind": "dev",
    "methods": {},
    "title": "TrustDose Prescription Registry",
    "version": 1
  },
  "userdoc": {
    "kind": "user",
    "methods": {
      "getPrescription(uint256)": {
        "notice": "      "
      }
    },
    "notice": "   .",
    "version": 1
  }
}