{
  "contractName": "Prescription",
  "abi": [
    {
      "inputs": [
        {
          "internalType": "address[]",
          "name": "_doctors",
          "type": "address[]"
        }
      ],
      "stateMutability": "nonpayable",
      "type": "constructor"
    },
    {
      "anonymous": false,
      "inputs": [
        {
          "indexed": true,
          "internalType": "uint256",
          "name": "id",
          "type": "uint256"
        },
        {
          "indexed": true,
          "internalType": "address",
          "name": "doctor",
          "type": "address"
        },
        {
          "indexed": true,
          "internalType": "bytes32",
          "name": "patientHash",
          "type": "bytes32"
        },
        {
          "indexed": false,
          "internalType": "string",
          "name": "medicine",
          "type": "string"
        },
        {
          "indexed": false,
          "internalType": "string",
          "name": "dosage",
          "type": "string"
        },
        {
          "indexed": false,
          "internalType": "string",
          "name": "frequency",
          "type": "string"
        },
        {
          "indexed": false,
          "internalType": "string",
          "name": "duration",
          "type": "string"
        },
        {
          "indexed": false,
          "internalType": "uint256",
          "name": "createdAt",
          "type": "uint256"
        },
        {
          "indexed": false,
          "internalType": "uint256",
          "name": "expiresAt",
          "type": "uint256"
        }
      ],
      "name": "PrescriptionCreated",
      "type": "event"
    },
    {
      "inputs": [],
      "name": "VALIDITY",
      "outputs": [
        {
          "internalType": "uint256",
          "name": "",
          "type": "uint256"
        }
      ],
      "stateMutability": "view",
      "type": "function",
      "constant": true
    },
    {
      "inputs": [
        {
          "internalType": "address",
          "name": "",
          "type": "address"
        }
      ],
      "name": "isDoctor",
      "outputs": [
        {
          "internalType": "bool",
          "name": "",
          "type": "bool"
        }
      ],
      "stateMutability": "view",
      "type": "function",
      "constant": true
    },
    {
      "inputs": [
        {
          "internalType": "uint256",
          "name": "",
          "type": "uint256"
        }
      ],
      "name": "prescriptions",
      "outputs": [
        {
          "internalType": "uint256",
          "name": "id",
          "type": "uint256"
        },
        {
          "internalType": "bytes32",
          "name": "patientHash",
          "type": "bytes32"
        },
        {
          "internalType": "string",
          "name": "medicine",
          "type": "string"
        },
        {
          "internalType": "string",
          "name": "dosage",
          "type": "string"
        },
        {
          "internalType": "string",
          "name": "frequency",
          "type": "string"
        },
        {
          "internalType": "string",
          "name": "duration",
          "type": "string"
        },
        {
          "internalType": "address",
          "name": "doctor",
          "type": "address"
        },
        {
          "internalType": "uint256",
          "name": "createdAt",
          "type": "uint256"
        },
        {
          "internalType": "uint256",
          "name": "expiresAt",
          "type": "uint256"
        }
      ],
      "stateMutability": "view",
      "type": "function",
      "constant": true
    },
    {
      "inputs": [
        {
          "internalType": "bytes32",
          "name": "patientHash",
          "type": "bytes32"
        },
        {
          "internalType": "string",
          "name": "medicine",
          "type": "string"
        },
        {
          "internalType": "string",
          "name": "dosage",
          "type": "string"
        },
        {
          "internalType": "string",
          "name": "frequency",
          "type": "string"
        },
        {
          "internalType": "string",
          "name": "duration",
          "type": "string"
        }
      ],
      "name": "createPrescription",
      "outputs": [
        {
          "internalType": "uint256",
          "name": "",
          "type": "uint256"
        }
      ],
      "stateMutability": "nonpayable",
      "type": "function"
    },
    {
      "inputs": [
        {
          "internalType": "bytes32",
          "name": "patientHash",
          "type": "bytes32"
        },
        {
          "internalType": "string[]",
          "name": "medicines",
          "type": "string[]"
        },
        {
          "internalType": "string[]",
          "name": "dosages",
          "type": "string[]"
        },
        {
          "internalType": "string[]",
          "name": "frequencies",
          "type": "string[]"
        },
        {
          "internalType": "string[]",
          "name": "durations",
          "type": "string[]"
        }
      ],
      "name": "createMultiplePrescriptions",
      "outputs": [
        {
          "internalType": "uint256[]",
          "name": "ids",
          "type": "uint256[]"
        }
      ],
      "stateMutability": "nonpayable",
      "type": "function"
    },
    {
      "inputs": [
        {
          "internalType": "uint256",
          "name": "id",
          "type": "uint256"
        }
      ],
      "name": "getPrescription",
      "outputs": [
        {
          "internalType": "bytes32",
          "name": "patientHash",
          "type": "bytes32"
        },
        {
          "internalType": "string",
          "name": "medicine",
          "type": "string"
        },
        {
          "internalType": "string",
          "name": "dosage",
          "type": "string"
        },
        {
          "internalType": "string",
          "name": "frequency",
          "type": "string"
        },
        {
          "internalType": "string",
          "name": "duration",
          "type": "string"
        },
        {
          "internalType": "address",
          "name": "doctor",
          "type": "address"
        },
        {
          "internalType": "uint256",
          "name": "createdAt",
          "type": "uint256"
        },
        {
          "internalType": "uint256",
          "name": "expiresAt",
          "type": "uint256"
        }
      ],
      "stateMutability": "view",
      "type": "function",
      "constant": true
    },
    {
      "inputs": [
        {
          "internalType": "uint256",
          "name": "id",
          "type": "uint256"
        }
      ],
      "name": "isValid",
      "outputs": [
        {
          "internalType": "bool",
          "name": "",
          "type": "bool"
        }
      ],
      "stateMutability": "view",
      "type": "function",
      "constant": true
    }
  ],
  "bytecode": "0x60806040523480156200001157600080fd5b5060405162001892380380620018928339810160408190526200003491620000dd565b60005b8151811015620000a25760016000808484815181106200005b576200005b620001af565b6020908102919091018101516001600160a01b03168252810191909152604001600020805460ff1916911515919091179055806200009981620001c5565b91505062000037565b5050620001ed565b634e487b7160e01b600052604160045260246000fd5b80516001600160a01b0381168114620000d857600080fd5b919050565b60006020808385031215620000f157600080fd5b82516001600160401b03808211156200010957600080fd5b818501915085601f8301126200011e57600080fd5b815181811115620001335762000133620000aa565b8060051b604051601f19603f830116810181811085821117156200015b576200015b620000aa565b6040529182528482019250838101850191888311156200017a57600080fd5b938501935b82851015620001a3576200019385620000c0565b845293850193928501926200017f565b98975050505050505050565b634e487b7160e01b600052603260045260246000fd5b600060018201620001e657634e487b7160e01b600052601160045260246000fd5b5060010190565b61169580620001fd6000396000f3fe608060405234801561001057600080fd5b506004361061007d5760003560e01c80636d85e6321161005b5780636d85e632146100de5780636f16af10146100fe578063996440c614610125578063f577a5001461015857600080fd5b806331dfc91b146100825780633f97d995146100b35780636c68d41a146100cb575b600080fd5b610095610090366004610fc9565b61016b565b6040516100aa99989796959493929190611028565b60405180910390f35b6100bd6202a30081565b6040519081526020016100aa565b6100bd6100d9366004611167565b6103e0565b6100f16100ec3660046112bd565b6105fb565b6040516100aa9190611367565b61011161010c366004610fc9565b6109fc565b6040516100aa9897969594939291906113ab565b61014861013336600461142b565b60006020819052908152604090205460ff1681565b60405190151581526020016100aa565b610148610166366004610fc9565b610ce5565b6002602081905260009182526040909120805460018201549282018054919392916101959061145b565b80601f01602080910402602001604051908101604052809291908181526020018280546101c19061145b565b801561020e5780601f106101e35761010080835404028352916020019161020e565b820191906000526020600020905b8154815290600101906020018083116101f157829003601f168201915b5050505050908060030180546102239061145b565b80601f016020809104026020016040519081016040528092919081815260200182805461024f9061145b565b801561029c5780601f106102715761010080835404028352916020019161029c565b820191906000526020600020905b81548152906001019060200180831161027f57829003601f168201915b5050505050908060040180546102b19061145b565b80601f01602080910402602001604051908101604052809291908181526020018280546102dd9061145b565b801561032a5780601f106102ff5761010080835404028352916020019161032a565b820191906000526020600020905b81548152906001019060200180831161030d57829003601f168201915b50505050509080600501805461033f9061145b565b80601f016020809104026020016040519081016040528092919081815260200182805461036b9061145b565b80156103b85780601f1061038d576101008083540402835291602001916103b8565b820191906000526020600020905b81548152906001019060200180831161039b57829003601f168201915b505050506006830154600784015460089094015492936001600160a01b039091169290915089565b3360009081526020819052604081205460ff166104325760405162461bcd60e51b815260206004820152600b60248201526a27b7363c903237b1ba37b960a91b60448201526064015b60405180910390fd5b856104755760405162461bcd60e51b8152602060048201526013602482015272092dcecc2d8d2c840e0c2e8d2cadce890c2e6d606b1b6044820152606401610429565b60018054906000610485836114ab565b90915550429050600061049b6202a300836114c4565b90506040518061012001604052806001548152602001898152602001888152602001878152602001868152602001858152602001336001600160a01b0316815260200183815260200182815250600260006001548152602001908152602001600020600082015181600001556020820151816001015560408201518160020190816105269190611526565b506060820151600382019061053b9082611526565b50608082015160048201906105509082611526565b5060a082015160058201906105659082611526565b5060c08201516006820180546001600160a01b0319166001600160a01b0390921691909117905560e0820151600782015561010090910151600890910155600154604051899133917fcc38050ba588735557d1216b2453c5f1d5054be038c68bffbc701fc11b80f3c9906105e4908c908c908c908c908b908b906115e6565b60405180910390a450506001549695505050505050565b3360009081526020819052604090205460609060ff1661064b5760405162461bcd60e51b815260206004820152600b60248201526a27b7363c903237b1ba37b960a91b6044820152606401610429565b8561068e5760405162461bcd60e51b8152602060048201526013602482015272092dcecc2d8d2c840e0c2e8d2cadce890c2e6d606b1b6044820152606401610429565b8451806106d35760405162461bcd60e51b8152602060048201526013602482015272456d70747920707265736372697074696f6e7360681b6044820152606401610429565b8085511480156106e35750808451145b80156106ef5750808351145b61072d5760405162461bcd60e51b815260206004820152600f60248201526e098cadccee8d040dad2e6dac2e8c6d608b1b6044820152606401610429565b8067ffffffffffffffff811115610746576107466110b0565b60405190808252806020026020018201604052801561076f578160200160208202803683370190505b5091504260006107826202a300836114c4565b905060005b838110156109ef576001805490600061079f836114ab565b919050555060405180610120016040528060015481526020018b81526020018a83815181106107d0576107d0611649565b602002602001015181526020018983815181106107ef576107ef611649565b6020026020010151815260200188838151811061080e5761080e611649565b6020026020010151815260200187838151811061082d5761082d611649565b60200260200101518152602001336001600160a01b0316815260200184815260200183815250600260006001548152602001908152602001600020600082015181600001556020820151816001015560408201518160020190816108919190611526565b50606082015160038201906108a69082611526565b50608082015160048201906108bb9082611526565b5060a082015160058201906108d09082611526565b5060c08201516006820180546001600160a01b0319166001600160a01b0390921691909117905560e082015160078201556101009091015160089091015560015489518b9133917fcc38050ba588735557d1216b2453c5f1d5054be038c68bffbc701fc11b80f3c9908d908690811061094b5761094b611649565b60200260200101518c868151811061096557610965611649565b60200260200101518c878151811061097f5761097f611649565b60200260200101518c888151811061099957610999611649565b60200260200101518a8a6040516109b5969594939291906115e6565b60405180910390a46001548582815181106109d2576109d2611649565b6020908102919091010152806109e7816114ab565b915050610787565b5050505095945050505050565b60006060806060806000806000610a1289610fb0565b610a4b5760405162461bcd60e51b815260206004820152600a602482015269125b9d985b1a5908125160b21b6044820152606401610429565b6000600260008b815260200190815260200160002090508060010154816002018260030183600401846005018560060160009054906101000a90046001600160a01b031686600701548760080154868054610aa59061145b565b80601f0160208091040260200160405190810160405280929190818152602001828054610ad19061145b565b8015610b1e5780601f10610af357610100808354040283529160200191610b1e565b820191906000526020600020905b815481529060010190602001808311610b0157829003601f168201915b50505050509650858054610b319061145b565b80601f0160208091040260200160405190810160405280929190818152602001828054610b5d9061145b565b8015610baa5780601f10610b7f57610100808354040283529160200191610baa565b820191906000526020600020905b815481529060010190602001808311610b8d57829003601f168201915b50505050509550848054610bbd9061145b565b80601f0160208091040260200160405190810160405280929190818152602001828054610be99061145b565b8015610c365780601f10610c0b57610100808354040283529160200191610c36565b820191906000526020600020905b815481529060010190602001808311610c1957829003601f168201915b50505050509450838054610c499061145b565b80601f0160208091040260200160405190810160405280929190818152602001828054610c759061145b565b8015610cc25780601f10610c9757610100808354040283529160200191610cc2565b820191906000526020600020905b815481529060010190602001808311610ca557829003601f168201915b505050505093509850985098509850985098509850985050919395975091939597565b6000610cf082610fb0565b610cfc57506000919050565b600060026000848152602001908152602001600020604051806101200160405290816000820154815260200160018201548152602001600282018054610d419061145b565b80601f0160208091040260200160405190810160405280929190818152602001828054610d6d9061145b565b8015610dba5780601f10610d8f57610100808354040283529160200191610dba565b820191906000526020600020905b815481529060010190602001808311610d9d57829003601f168201915b50505050508152602001600382018054610dd39061145b565b80601f0160208091040260200160405190810160405280929190818152602001828054610dff9061145b565b8015610e4c5780601f10610e2157610100808354040283529160200191610e4c565b820191906000526020600020905b815481529060010190602001808311610e2f57829003601f168201915b50505050508152602001600482018054610e659061145b565b80601f0160208091040260200160405190810160405280929190818152602001828054610e919061145b565b8015610ede5780601f10610eb357610100808354040283529160200191610ede565b820191906000526020600020905b815481529060010190602001808311610ec157829003601f168201915b50505050508152602001600582018054610ef79061145b565b80601f0160208091040260200160405190810160405280929190818152602001828054610f239061145b565b8015610f705780601f10610f4557610100808354040283529160200191610f70565b820191906000526020600020905b815481529060010190602001808311610f5357829003601f168201915b505050918352505060068201546001600160a01b031660208201526007820154604082015260089091015460609091015261010001514211159392505050565b60008082118015610fc357506001548211155b92915050565b600060208284031215610fdb57600080fd5b5035919050565b6000815180845260005b8181101561100857602081850181015186830182015201610fec565b506000602082860101526020601f19601f83011685010191505092915050565b60006101208b83528a60208401528060408401526110488184018b610fe2565b9050828103606084015261105c818a610fe2565b905082810360808401526110708189610fe2565b905082810360a08401526110848188610fe2565b6001600160a01b039690961660c0840152505060e0810192909252610100909101529695505050505050565b634e487b7160e01b600052604160045260246000fd5b604051601f8201601f1916810167ffffffffffffffff811182821017156110ef576110ef6110b0565b604052919050565b600082601f83011261110857600080fd5b813567ffffffffffffffff811115611122576111226110b0565b611135601f8201601f19166020016110c6565b81815284602083860101111561114a57600080fd5b816020850160208301376000918101602001919091529392505050565b600080600080600060a0868803121561117f57600080fd5b85359450602086013567ffffffffffffffff8082111561119e57600080fd5b6111aa89838a016110f7565b955060408801359150808211156111c057600080fd5b6111cc89838a016110f7565b945060608801359150808211156111e257600080fd5b6111ee89838a016110f7565b9350608088013591508082111561120457600080fd5b50611211888289016110f7565b9150509295509295909350565b600082601f83011261122f57600080fd5b8135602067ffffffffffffffff8083111561124c5761124c6110b0565b8260051b61125b8382016110c6565b938452858101830193838101908886111561127557600080fd5b84880192505b858310156112b1578235848111156112935760008081fd5b6112a18a87838c01016110f7565b835250918401919084019061127b565b98975050505050505050565b600080600080600060a086880312156112d557600080fd5b85359450602086013567ffffffffffffffff808211156112f457600080fd5b61130089838a0161121e565b9550604088013591508082111561131657600080fd5b61132289838a0161121e565b9450606088013591508082111561133857600080fd5b61134489838a0161121e565b9350608088013591508082111561135a57600080fd5b506112118882890161121e565b6020808252825182820181905260009190848201906040850190845b8181101561139f57835183529284019291840191600101611383565b50909695505050505050565b60006101008a83528060208401526113c58184018b610fe2565b905082810360408401526113d9818a610fe2565b905082810360608401526113ed8189610fe2565b905082810360808401526114018188610fe2565b6001600160a01b039690961660a0840152505060c081019290925260e09091015295945050505050565b60006020828403121561143d57600080fd5b81356001600160a01b038116811461145457600080fd5b9392505050565b600181811c9082168061146f57607f821691505b60208210810361148f57634e487b7160e01b600052602260045260246000fd5b50919050565b634e487b7160e01b600052601160045260246000fd5b6000600182016114bd576114bd611495565b5060010190565b80820180821115610fc357610fc3611495565b601f82111561152157600081815260208120601f850160051c810160208610156114fe5750805b601f850160051c820191505b8181101561151d5782815560010161150a565b5050505b505050565b815167ffffffffffffffff811115611540576115406110b0565b6115548161154e845461145b565b846114d7565b602080601f83116001811461158957600084156115715750858301515b600019600386901b1c1916600185901b17855561151d565b600085815260208120601f198616915b828110156115b857888601518255948401946001909101908401611599565b50858210156115d65787850151600019600388901b60f8161c191681555b5050505050600190811b01905550565b60c0815260006115f960c0830189610fe2565b828103602084015261160b8189610fe2565b9050828103604084015261161f8188610fe2565b905082810360608401526116338187610fe2565b6080840195909552505060a00152949350505050565b634e487b7160e01b600052603260045260246000fdfea264697066735822122038ac788648c1b60f0e8db7eb1803e07a8fa0e3f703ee14d5b46d46e892b76aaf64736f6c63430008130033",
  "immutableReferences": {},
  "source": "// SPDX-License-Identifier: MIT\npragma solidity ^0.8.19;\n\n/// @title TrustDose - Simple Prescription (Doctor only)\ncontract Prescription {\n    uint256 public constant VALIDITY = 48 hours;\n\n    // list of all doctors\n    mapping(address => bool) public isDoctor;\n\n    // counter\n    uint256 private _counter;\n\n    // table\n    struct PrescriptionData {\n        uint256 id;\n        bytes32 patientHash;\n        string  medicine;\n        string  dosage;\n        string  frequency;\n        string  duration;\n        address doctor;\n        uint256 createdAt;\n        uint256 expiresAt;\n    }\n\n    // mapping to store prescriptions\n    mapping(uint256 => PrescriptionData) public prescriptions;\n\n    // event\n    event PrescriptionCreated(\n        uint256 indexed id,\n        address indexed doctor,\n        bytes32 indexed patientHash,\n        string medicine,\n        string dosage,\n        string frequency,\n        string duration,\n        uint256 createdAt,\n        uint256 expiresAt\n    );\n\n    // auth\n    constructor(address[] memory _doctors) {\n        for (uint256 i = 0; i < _doctors.length; i++) {\n            isDoctor[_doctors[i]] = true;\n        }\n    }\n\n    // create single prescription\n    function createPrescription(\n        bytes32 patientHash,\n        string memory medicine,\n        string memory dosage,\n        string memory frequency,\n        string memory duration\n    ) external returns (uint256) {\n        require(isDoctor[msg.sender], \"Only doctor\");\n        require(patientHash != bytes32(0), \"Invalid patientHash\");\n\n        _counter++;\n        uint256 created = block.timestamp;\n        uint256 expires = created + VALIDITY;\n\n        prescriptions[_counter] = PrescriptionData({\n            id: _counter,\n            patientHash: patientHash,\n            medicine: medicine,\n            dosage: dosage,\n            frequency: frequency,\n            duration: duration,\n            doctor: msg.sender,\n            createdAt: created,\n            expiresAt: expires\n        });\n\n        emit PrescriptionCreated(\n            _counter,\n            msg.sender,\n            patientHash,\n            medicine,\n            dosage,\n            frequency,\n            duration,\n            created,\n            expires\n        );\n\n        return _counter;\n    }\n\n    function createMultiplePrescriptions(\n        bytes32 patientHash,\n        string[] memory medicines,\n        string[] memory dosages,\n        string[] memory frequencies,\n        string[] memory durations\n    ) external returns (uint256[] memory ids) {\n        require(isDoctor[msg.sender], \"Only doctor\");\n        require(patientHash != bytes32(0), \"Invalid patientHash\");\n\n        uint256 n = medicines.length;\n        require(n > 0, \"Empty prescriptions\");\n        require(\n            dosages.length == n &&\n            frequencies.length == n &&\n            durations.length == n,\n            \"Length mismatch\"\n        );\n\n        ids = new uint256[](n);\n\n        // same timestamps for whole batch (same tx)\n        uint256 created = block.timestamp;\n        uint256 expires = created + VALIDITY;\n\n        for (uint256 i = 0; i < n; i++) {\n            _counter++;\n\n            prescriptions[_counter] = PrescriptionData({\n                id: _counter,\n                patientHash: patientHash,\n                medicine: medicines[i],\n                dosage: dosages[i],\n                frequency: frequencies[i],\n                duration: durations[i],\n                doctor: msg.sender,\n                createdAt: created,\n                expiresAt: expires\n            });\n\n            emit PrescriptionCreated(\n                _counter,\n                msg.sender,\n                patientHash,\n                medicines[i],\n                dosages[i],\n                frequencies[i],\n                durations[i],\n                created,\n                expires\n            );\n\n            ids[i] = _counter;\n        }\n\n        return ids;\n    }\n\n    function getPrescription(uint256 id)\n        external\n        view\n        returns (\n            bytes32 patientHash,\n            string memory medicine,\n            string memory dosage,\n            string memory frequency,\n            string memory duration,\n            address doctor,\n            uint256 createdAt,\n            uint256 expiresAt\n        )\n    {\n        require(_exists(id), \"Invalid ID\");\n        PrescriptionData storage p = prescriptions[id];\n        return (\n            p.patientHash,\n            p.medicine,\n            p.dosage,\n            p.frequency,\n            p.duration,\n            p.doctor,\n            p.createdAt,\n            p.expiresAt\n        );\n    }\n\n    function isValid(uint256 id) public view returns (bool) {\n        if (!_exists(id)) return false;\n        PrescriptionData memory p = prescriptions[id];\n        return block.timestamp <= p.expiresAt;\n    }\n\n    function _exists(uint256 id) internal view returns (bool) {\n        return id > 0 && id <= _counter;\n    }\n}\n",
  "sourcePath": "/Users/ftoon/Documents/TrustDose/contracts/Prescription.sol",
  "compiler": {
    "name": "solc",
    "version": "0.8.19+commit.7dd6d404.Emscripten.clang"
  },
  "schemaVersion": "3.4.16",
  "updatedAt": "2026-02-06T15:23:40.395Z",
  "networkType": "ethereum",
  "devdoc": {
    "kind": "dev",
    "methods": {},
    "title": "TrustDose - Simple Prescription (Doctor only)",
    "version": 1
  },
  "userdoc": {
    "kind": "user",
    "methods": {},
    "version": 1
  }
}