{
  "contractName": "IoTBreachRecorder",
  "abi": [
    {
      "anonymous": false,
      "inputs": [
        {
          "indexed": true,
          "internalType": "uint256",
          "name": "prescriptionOnchainId",
          "type": "uint256"
        },
        {
          "indexed": false,
          "internalType": "string",
          "name": "breachType",
          "type": "string"
        },
        {
          "indexed": false,
          "internalType": "int256",
          "name": "measuredValue",
          "type": "int256"
        },
        {
          "indexed": false,
          "internalType": "int256",
          "name": "minAllowed",
          "type": "int256"
        },
        {
          "indexed": false,
          "internalType": "int256",
          "name": "maxAllowed",
          "type": "int256"
        },
        {
          "indexed": false,
          "internalType": "uint256",
          "name": "breachTime",
          "type": "uint256"
        },
        {
          "indexed": false,
          "internalType": "address",
          "name": "recordedBy",
          "type": "address"
        }
      ],
      "name": "BreachRecorded",
      "type": "event"
    },
    {
      "inputs": [
        {
          "internalType": "uint256",
          "name": "",
          "type": "uint256"
        }
      ],
      "name": "breachByPrescription",
      "outputs": [
        {
          "internalType": "uint256",
          "name": "prescriptionOnchainId",
          "type": "uint256"
        },
        {
          "internalType": "string",
          "name": "breachType",
          "type": "string"
        },
        {
          "internalType": "int256",
          "name": "measuredValue",
          "type": "int256"
        },
        {
          "internalType": "int256",
          "name": "minAllowed",
          "type": "int256"
        },
        {
          "internalType": "int256",
          "name": "maxAllowed",
          "type": "int256"
        },
        {
          "internalType": "uint256",
          "name": "breachTime",
          "type": "uint256"
        },
        {
          "internalType": "address",
          "name": "recordedBy",
          "type": "address"
        }
      ],
      "stateMutability": "view",
      "type": "function",
      "constant": true
    },
    {
      "inputs": [
        {
          "internalType": "uint256",
          "name": "",
          "type": "uint256"
        }
      ],
      "name": "breachRecorded",
      "outputs": [
        {
          "internalType": "bool",
          "name": "",
          "type": "bool"
        }
      ],
      "stateMutability": "view",
      "type": "function",
      "constant": true
    },
    {
      "inputs": [
        {
          "internalType": "uint256",
          "name": "prescriptionOnchainId",
          "type": "uint256"
        },
        {
          "internalType": "string",
          "name": "breachType",
          "type": "string"
        },
        {
          "internalType": "int256",
          "name": "measuredValue",
          "type": "int256"
        },
        {
          "internalType": "int256",
          "name": "minAllowed",
          "type": "int256"
        },
        {
          "internalType": "int256",
          "name": "maxAllowed",
          "type": "int256"
        },
        {
          "internalType": "uint256",
          "name": "breachTime",
          "type": "uint256"
        }
      ],
      "name": "recordBreach",
      "outputs": [],
      "stateMutability": "nonpayable",
      "type": "function"
    },
    {
      "inputs": [
        {
          "internalType": "uint256",
          "name": "prescriptionOnchainId",
          "type": "uint256"
        }
      ],
      "name": "getBreach",
      "outputs": [
        {
          "components": [
            {
              "internalType": "uint256",
              "name": "prescriptionOnchainId",
              "type": "uint256"
            },
            {
              "internalType": "string",
              "name": "breachType",
              "type": "string"
            },
            {
              "internalType": "int256",
              "name": "measuredValue",
              "type": "int256"
            },
            {
              "internalType": "int256",
              "name": "minAllowed",
              "type": "int256"
            },
            {
              "internalType": "int256",
              "name": "maxAllowed",
              "type": "int256"
            },
            {
              "internalType": "uint256",
              "name": "breachTime",
              "type": "uint256"
            },
            {
              "internalType": "address",
              "name": "recordedBy",
              "type": "address"
            }
          ],
          "internalType": "struct IoTBreachRecorder.BreachRecord",
          "name": "",
          "type": "tuple"
        }
      ],
      "stateMutability": "view",
      "type": "function",
      "constant": true
    }
  ],
  "bytecode": "0x608060405234801561001057600080fd5b506108d4806100206000396000f3fe608060405234801561001057600080fd5b506004361061004c5760003560e01c80634f9eafcb146100515780635d340f5d14610066578063634f3cfa1461008f578063bff7a204146100b5575b600080fd5b61006461005f36600461051a565b6100e8565b005b6100796100743660046105f8565b6102a7565b6040516100869190610657565b60405180910390f35b6100a261009d3660046105f8565b610438565b60405161008697969594939291906106c4565b6100d86100c33660046105f8565b60006020819052908152604090205460ff1681565b6040519015158152602001610086565b6000861161013d5760405162461bcd60e51b815260206004820152601760248201527f496e76616c696420707265736372697074696f6e20494400000000000000000060448201526064015b60405180910390fd5b60008681526020819052604090205460ff161561019c5760405162461bcd60e51b815260206004820152601760248201527f42726561636820616c7265616479207265636f726465640000000000000000006044820152606401610134565b600086815260208181526040808320805460ff19166001908117909155815160e0810183528a81528084018a81528184018a9052606082018990526080820188905260a082018790523360c08301528b86529382905291909320815181559151909282019061020b9082610799565b506040828101516002830155606083015160038301556080830151600483015560a0830151600583015560c090920151600690910180546001600160a01b0319166001600160a01b039092169190911790555186907f7af0a104dcfb4ae2d3ade941d58a8371333b4862742efd5ecfadb032326e40559061029790889088908890889088903390610859565b60405180910390a2505050505050565b6102f06040518060e0016040528060008152602001606081526020016000815260200160008152602001600081526020016000815260200160006001600160a01b031681525090565b60008281526020819052604090205460ff166103435760405162461bcd60e51b8152602060048201526012602482015271139bc8189c995858da081c9958dbdc99195960721b6044820152606401610134565b600082815260016020818152604092839020835160e081019094528054845291820180549184019161037490610710565b80601f01602080910402602001604051908101604052809291908181526020018280546103a090610710565b80156103ed5780601f106103c2576101008083540402835291602001916103ed565b820191906000526020600020905b8154815290600101906020018083116103d057829003601f168201915b5050509183525050600282015460208201526003820154604082015260048201546060820152600582015460808201526006909101546001600160a01b031660a09091015292915050565b60016020819052600091825260409091208054918101805461045990610710565b80601f016020809104026020016040519081016040528092919081815260200182805461048590610710565b80156104d25780601f106104a7576101008083540402835291602001916104d2565b820191906000526020600020905b8154815290600101906020018083116104b557829003601f168201915b50505060028401546003850154600486015460058701546006909701549596929591945092506001600160a01b031687565b634e487b7160e01b600052604160045260246000fd5b60008060008060008060c0878903121561053357600080fd5b86359550602087013567ffffffffffffffff8082111561055257600080fd5b818901915089601f83011261056657600080fd5b81358181111561057857610578610504565b604051601f8201601f19908116603f011681019083821181831017156105a0576105a0610504565b816040528281528c60208487010111156105b957600080fd5b8260208601602083013760009281016020019290925250979a9799505050506040860135956060810135956080820135955060a0909101359350915050565b60006020828403121561060a57600080fd5b5035919050565b6000815180845260005b818110156106375760208185018101518683018201520161061b565b506000602082860101526020601f19601f83011685010191505092915050565b60208152815160208201526000602083015160e0604084015261067e610100840182610611565b90506040840151606084015260608401516080840152608084015160a084015260a084015160c084015260018060a01b0360c08501511660e08401528091505092915050565b87815260e0602082015260006106dd60e0830189610611565b6040830197909752506060810194909452608084019290925260a08301526001600160a01b031660c09091015292915050565b600181811c9082168061072457607f821691505b60208210810361074457634e487b7160e01b600052602260045260246000fd5b50919050565b601f82111561079457600081815260208120601f850160051c810160208610156107715750805b601f850160051c820191505b818110156107905782815560010161077d565b5050505b505050565b815167ffffffffffffffff8111156107b3576107b3610504565b6107c7816107c18454610710565b8461074a565b602080601f8311600181146107fc57600084156107e45750858301515b600019600386901b1c1916600185901b178555610790565b600085815260208120601f198616915b8281101561082b5788860151825594840194600190910190840161080c565b50858210156108495787850151600019600388901b60f8161c191681555b5050505050600190811b01905550565b60c08152600061086c60c0830189610611565b6020830197909752506040810194909452606084019290925260808301526001600160a01b031660a09091015291905056fea2646970667358221220b53aa8bd3680c3ae4f07ffc8f09d163101b49da0b62862734b1689c0ff74476b64736f6c63430008130033",
  "immutableReferences": {},
  "source": "// SPDX-License-Identifier: MIT\npragma solidity ^0.8.19;\n\ncontract IoTBreachRecorder {\n    struct BreachRecord {\n        uint256 prescriptionOnchainId;\n        string breachType;\n        int256 measuredValue;\n        int256 minAllowed;\n        int256 maxAllowed;\n        uint256 breachTime;\n        address recordedBy;\n    }\n\n    mapping(uint256 => bool) public breachRecorded;\n    mapping(uint256 => BreachRecord) public breachByPrescription;\n\n    event BreachRecorded(\n        uint256 indexed prescriptionOnchainId,\n        string breachType,\n        int256 measuredValue,\n        int256 minAllowed,\n        int256 maxAllowed,\n        uint256 breachTime,\n        address recordedBy\n    );\n\n    function recordBreach(\n        uint256 prescriptionOnchainId,\n        string memory breachType,\n        int256 measuredValue,\n        int256 minAllowed,\n        int256 maxAllowed,\n        uint256 breachTime\n    ) external {\n        require(prescriptionOnchainId > 0, \"Invalid prescription ID\");\n        require(!breachRecorded[prescriptionOnchainId], \"Breach already recorded\");\n\n        breachRecorded[prescriptionOnchainId] = true;\n\n        breachByPrescription[prescriptionOnchainId] = BreachRecord({\n            prescriptionOnchainId: prescriptionOnchainId,\n            breachType: breachType,\n            measuredValue: measuredValue,\n            minAllowed: minAllowed,\n            maxAllowed: maxAllowed,\n            breachTime: breachTime,\n            recordedBy: msg.sender\n        });\n\n        emit BreachRecorded(\n            prescriptionOnchainId,\n            breachType,\n            measuredValue,\n            minAllowed,\n            maxAllowed,\n            breachTime,\n            msg.sender\n        );\n    }\n\n    function getBreach(uint256 prescriptionOnchainId)\n        external\n        view\n        returns (BreachRecord memory)\n    {\n        require(breachRecorded[prescriptionOnchainId], \"No breach recorded\");\n        return breachByPrescription[prescriptionOnchainId];\n    }\n}",
  "sourcePath": "/Users/ftoon/Documents/TrustDose/contracts/contracts/IoTBreachRecorder.sol",
  "compiler": {
    "name": "solc",
    "version": "0.8.19+commit.7dd6d404.Emscripten.clang"
  },
  "schemaVersion": "3.4.16",
  "updatedAt": "2026-03-10T22:26:51.416Z",
  "networkType": "ethereum",
  "devdoc": {
    "kind": "dev",
    "methods": {},
    "version": 1
  },
  "userdoc": {
    "kind": "user",
    "methods": {},
    "version": 1
  }
}