{
  "contractName": "AccessControl",
  "abi": [
    {
      "inputs": [],
      "stateMutability": "nonpayable",
      "type": "constructor"
    },
    {
      "anonymous": false,
      "inputs": [
        {
          "indexed": true,
          "internalType": "address",
          "name": "user",
          "type": "address"
        },
        {
          "indexed": false,
          "internalType": "enum AccessControl.Role",
          "name": "role",
          "type": "uint8"
        },
        {
          "indexed": false,
          "internalType": "string",
          "name": "accessId",
          "type": "string"
        }
      ],
      "name": "UserAdded",
      "type": "event"
    },
    {
      "inputs": [],
      "name": "owner",
      "outputs": [
        {
          "internalType": "address",
          "name": "",
          "type": "address"
        }
      ],
      "stateMutability": "view",
      "type": "function",
      "constant": true
    },
    {
      "inputs": [
        {
          "internalType": "address",
          "name": "",
          "type": "address"
        }
      ],
      "name": "users",
      "outputs": [
        {
          "internalType": "enum AccessControl.Role",
          "name": "role",
          "type": "uint8"
        },
        {
          "internalType": "string",
          "name": "accessId",
          "type": "string"
        }
      ],
      "stateMutability": "view",
      "type": "function",
      "constant": true
    },
    {
      "inputs": [
        {
          "internalType": "address",
          "name": "_user",
          "type": "address"
        },
        {
          "internalType": "enum AccessControl.Role",
          "name": "_role",
          "type": "uint8"
        },
        {
          "internalType": "string",
          "name": "_accessId",
          "type": "string"
        }
      ],
      "name": "addUser",
      "outputs": [],
      "stateMutability": "nonpayable",
      "type": "function"
    },
    {
      "inputs": [
        {
          "internalType": "address",
          "name": "_user",
          "type": "address"
        }
      ],
      "name": "getUser",
      "outputs": [
        {
          "internalType": "enum AccessControl.Role",
          "name": "",
          "type": "uint8"
        },
        {
          "internalType": "string",
          "name": "",
          "type": "string"
        }
      ],
      "stateMutability": "view",
      "type": "function",
      "constant": true
    }
  ],
  "bytecode": "0x608060405234801561000f575f5ffd5b50600180546001600160a01b03191633178155604080518082019091529081908152604080518082018252600981526841444d494e2d30303160b81b60208281019190915292830152335f90815291829052902081518154829060ff19166001836005811115610081576100816100a3565b02179055506020820151600182019061009a908261014f565b50905050610209565b634e487b7160e01b5f52602160045260245ffd5b634e487b7160e01b5f52604160045260245ffd5b600181811c908216806100df57607f821691505b6020821081036100fd57634e487b7160e01b5f52602260045260245ffd5b50919050565b601f82111561014a57805f5260205f20601f840160051c810160208510156101285750805b601f840160051c820191505b81811015610147575f8155600101610134565b50505b505050565b81516001600160401b03811115610168576101686100b7565b61017c8161017684546100cb565b84610103565b6020601f8211600181146101ae575f83156101975750848201515b5f19600385901b1c1916600184901b178455610147565b5f84815260208120601f198516915b828110156101dd57878501518255602094850194600190920191016101bd565b50848210156101fa57868401515f19600387901b60f8161c191681555b50505050600190811b01905550565b610694806102165f395ff3fe608060405234801561000f575f5ffd5b506004361061004a575f3560e01c80633d7dc4c11461004e5780636f77926b146100635780638da5cb5b1461008d578063a87430ba146100b8575b5f5ffd5b61006161005c3660046103bb565b6100cb565b005b610076610071366004610493565b6101ed565b6040516100849291906104c7565b60405180910390f35b6001546100a0906001600160a01b031681565b6040516001600160a01b039091168152602001610084565b6100766100c6366004610493565b6102e6565b6001335f9081526020819052604090205460ff1660058111156100f0576100f06104b3565b1461012d5760405162461bcd60e51b81526020600482015260096024820152682737ba1030b236b4b760b91b604482015260640160405180910390fd5b604051806040016040528083600581111561014a5761014a6104b3565b815260209081018390526001600160a01b0385165f908152908190526040902081518154829060ff19166001836005811115610188576101886104b3565b0217905550602082015160018201906101a190826105a3565b50905050826001600160a01b03167f2da8a5fdc6914ee2e19c4007316e91d9ac474729407dbf0f094c908c4c9c9d1b83836040516101e09291906104c7565b60405180910390a2505050565b6001600160a01b0381165f908152602081905260408082208151808301909252805460609284929091829060ff16600581111561022c5761022c6104b3565b600581111561023d5761023d6104b3565b81526020016001820180546102519061051f565b80601f016020809104026020016040519081016040528092919081815260200182805461027d9061051f565b80156102c85780601f1061029f576101008083540402835291602001916102c8565b820191905f5260205f20905b8154815290600101906020018083116102ab57829003601f168201915b5050505050815250509050805f015181602001519250925050915091565b5f602081905290815260409020805460018201805460ff909216929161030b9061051f565b80601f01602080910402602001604051908101604052809291908181526020018280546103379061051f565b80156103825780601f1061035957610100808354040283529160200191610382565b820191905f5260205f20905b81548152906001019060200180831161036557829003601f168201915b5050505050905082565b80356001600160a01b03811681146103a2575f5ffd5b919050565b634e487b7160e01b5f52604160045260245ffd5b5f5f5f606084860312156103cd575f5ffd5b6103d68461038c565b92506020840135600681106103e9575f5ffd5b9150604084013567ffffffffffffffff811115610404575f5ffd5b8401601f81018613610414575f5ffd5b803567ffffffffffffffff81111561042e5761042e6103a7565b604051601f8201601f19908116603f0116810167ffffffffffffffff8111828210171561045d5761045d6103a7565b604052818152828201602001881015610474575f5ffd5b816020840160208301375f602083830101528093505050509250925092565b5f602082840312156104a3575f5ffd5b6104ac8261038c565b9392505050565b634e487b7160e01b5f52602160045260245ffd5b5f600684106104e457634e487b7160e01b5f52602160045260245ffd5b8382526040602083015282518060408401528060208501606085015e5f606082850101526060601f19601f8301168401019150509392505050565b600181811c9082168061053357607f821691505b60208210810361055157634e487b7160e01b5f52602260045260245ffd5b50919050565b601f82111561059e57805f5260205f20601f840160051c8101602085101561057c5750805b601f840160051c820191505b8181101561059b575f8155600101610588565b50505b505050565b815167ffffffffffffffff8111156105bd576105bd6103a7565b6105d1816105cb845461051f565b84610557565b6020601f821160018114610603575f83156105ec5750848201515b5f19600385901b1c1916600184901b17845561059b565b5f84815260208120601f198516915b828110156106325787850151825560209485019460019092019101610612565b508482101561064f57868401515f19600387901b60f8161c191681555b50505050600190811b0190555056fea26469706673582212202d6696a70ec7331cda8a9943895ae4d831e4bd7873b6274f70011c16f152f90f64736f6c634300081c0033",
  "immutableReferences": {},
  "source": "// SPDX-License-Identifier: MIT\npragma solidity ^0.8.28;\n\ncontract AccessControl {\n    enum Role { None, Admin, Doctor, Pharmacy, Logistics, Patient }\n\n    struct User {\n        Role role;\n        string accessId;\n    }\n\n    mapping(address => User) public users;\n    address public owner;\n\n    event UserAdded(address indexed user, Role role, string accessId);\n\n\n    constructor() {\n    owner = msg.sender;\n    users[msg.sender] = User({ role: Role.Admin, accessId: \"ADMIN-001\" });\n    }\n\n\n\n    modifier onlyAdmin() {\n        require(users[msg.sender].role == Role.Admin, \"Not admin\");\n        _;\n    }\n\n    function addUser(address _user, Role _role, string memory _accessId) external onlyAdmin {\n        users[_user] = User(_role, _accessId);\n        emit UserAdded(_user, _role, _accessId);\n    }\n\n    function getUser(address _user) external view returns (Role, string memory) {\n        User memory u = users[_user];\n        return (u.role, u.accessId);\n    }\n}\n",
  "sourcePath": "/Users/ftoon/Documents/TrustDose/contracts/AccessControl.sol",
  "compiler": {
    "name": "solc",
    "version": "0.8.28+commit.7893614a.Emscripten.clang"
  },
  "schemaVersion": "3.4.16",
  "updatedAt": "2025-10-02T09:30:25.673Z",
  "networkType": "ethereum",
  "devdoc": {
    "kind": "dev",
    "methods": {},
    "version": 1
  },
  "userdoc": {
    "kind": "user",
    "methods": {},
    "version": 1
  }
}