{
  "contractName": "AccessControl",
  "abi": [
    {
      "inputs": [],
      "stateMutability": "nonpayable",
      "type": "constructor"
    },
    {
      "anonymous": false,
      "inputs": [
        {
          "indexed": true,
          "internalType": "address",
          "name": "user",
          "type": "address"
        },
        {
          "indexed": false,
          "internalType": "enum AccessControl.Role",
          "name": "role",
          "type": "uint8"
        },
        {
          "indexed": false,
          "internalType": "string",
          "name": "accessId",
          "type": "string"
        },
        {
          "indexed": false,
          "internalType": "bytes32",
          "name": "tempPassHash",
          "type": "bytes32"
        }
      ],
      "name": "UserAdded",
      "type": "event"
    },
    {
      "inputs": [],
      "name": "owner",
      "outputs": [
        {
          "internalType": "address",
          "name": "",
          "type": "address"
        }
      ],
      "stateMutability": "view",
      "type": "function",
      "constant": true
    },
    {
      "inputs": [
        {
          "internalType": "address",
          "name": "",
          "type": "address"
        }
      ],
      "name": "users",
      "outputs": [
        {
          "internalType": "enum AccessControl.Role",
          "name": "role",
          "type": "uint8"
        },
        {
          "internalType": "string",
          "name": "accessId",
          "type": "string"
        },
        {
          "internalType": "bytes32",
          "name": "tempPassHash",
          "type": "bytes32"
        }
      ],
      "stateMutability": "view",
      "type": "function",
      "constant": true
    },
    {
      "inputs": [
        {
          "internalType": "address",
          "name": "_user",
          "type": "address"
        },
        {
          "internalType": "enum AccessControl.Role",
          "name": "_role",
          "type": "uint8"
        },
        {
          "internalType": "string",
          "name": "_accessId",
          "type": "string"
        },
        {
          "internalType": "string",
          "name": "_tempPassword",
          "type": "string"
        }
      ],
      "name": "addUser",
      "outputs": [],
      "stateMutability": "nonpayable",
      "type": "function"
    },
    {
      "inputs": [
        {
          "internalType": "address",
          "name": "_user",
          "type": "address"
        }
      ],
      "name": "getUser",
      "outputs": [
        {
          "internalType": "enum AccessControl.Role",
          "name": "",
          "type": "uint8"
        },
        {
          "internalType": "string",
          "name": "",
          "type": "string"
        },
        {
          "internalType": "bytes32",
          "name": "",
          "type": "bytes32"
        }
      ],
      "stateMutability": "view",
      "type": "function",
      "constant": true
    }
  ],
  "bytecode": "0x608060405234801561001057600080fd5b50600180546001600160a01b0319163317815560408051606081019091529081908152604080518082018252600981526841444d494e2d30303160b81b602082810191909152808401919091526000928201839052338352829052902081518154829060ff1916600183600581111561008b5761008b6100b7565b0217905550602082015160018201906100a4908261016c565b506040820151816002015590505061022b565b634e487b7160e01b600052602160045260246000fd5b634e487b7160e01b600052604160045260246000fd5b600181811c908216806100f757607f821691505b60208210810361011757634e487b7160e01b600052602260045260246000fd5b50919050565b601f82111561016757600081815260208120601f850160051c810160208610156101445750805b601f850160051c820191505b8181101561016357828155600101610150565b5050505b505050565b81516001600160401b03811115610185576101856100cd565b6101998161019384546100e3565b8461011d565b602080601f8311600181146101ce57600084156101b65750858301515b600019600386901b1c1916600185901b178555610163565b600085815260208120601f198616915b828110156101fd578886015182559484019460019091019084016101de565b508582101561021b5787850151600019600388901b60f8161c191681555b5050505050600190811b01905550565b61078d8061023a6000396000f3fe608060405234801561001057600080fd5b506004361061004c5760003560e01c80636f77926b146100515780638da5cb5b1461007c578063a87430ba146100a7578063aba48bfd146100ba575b600080fd5b61006461005f366004610408565b6100cf565b60405161007393929190610464565b60405180910390f35b60015461008f906001600160a01b031681565b6040516001600160a01b039091168152602001610073565b6100646100b5366004610408565b6101db565b6100cd6100c8366004610567565b61028a565b005b6001600160a01b0381166000908152602081905260408082208151606081810190935281548492839291829060ff16600581111561010f5761010f61042a565b60058111156101205761012061042a565b8152602001600182018054610134906105f2565b80601f0160208091040260200160405190810160405280929190818152602001828054610160906105f2565b80156101ad5780601f10610182576101008083540402835291602001916101ad565b820191906000526020600020905b81548152906001019060200180831161019057829003601f168201915b5050509183525050600291909101546020918201528151908201516040909201519097919650945092505050565b6000602081905290815260409020805460018201805460ff9092169291610201906105f2565b80601f016020809104026020016040519081016040528092919081815260200182805461022d906105f2565b801561027a5780601f1061024f5761010080835404028352916020019161027a565b820191906000526020600020905b81548152906001019060200180831161025d57829003601f168201915b5050505050908060020154905083565b60013360009081526020819052604090205460ff1660058111156102b0576102b061042a565b146102ed5760405162461bcd60e51b81526020600482015260096024820152682737ba1030b236b4b760b91b604482015260640160405180910390fd5b600081604051602001610300919061062c565b60405160208183030381529060405280519060200120905060405180606001604052808560058111156103355761033561042a565b8152602080820186905260409182018490526001600160a01b0388166000908152908190522081518154829060ff191660018360058111156103795761037961042a565b0217905550602082015160018201906103929082610697565b5060408201518160020155905050846001600160a01b03167f1700b0341673b4e8e3380e9bec22792b9dfe94946671ececa727e3ffe756694b8585846040516103dd93929190610464565b60405180910390a25050505050565b80356001600160a01b038116811461040357600080fd5b919050565b60006020828403121561041a57600080fd5b610423826103ec565b9392505050565b634e487b7160e01b600052602160045260246000fd5b60005b8381101561045b578181015183820152602001610443565b50506000910152565b60006006851061048457634e487b7160e01b600052602160045260246000fd5b8482526060602083015283518060608401526104a7816080850160208801610440565b604083019390935250601f91909101601f19160160800192915050565b634e487b7160e01b600052604160045260246000fd5b600082601f8301126104eb57600080fd5b813567ffffffffffffffff80821115610506576105066104c4565b604051601f8301601f19908116603f0116810190828211818310171561052e5761052e6104c4565b8160405283815286602085880101111561054757600080fd5b836020870160208301376000602085830101528094505050505092915050565b6000806000806080858703121561057d57600080fd5b610586856103ec565b935060208501356006811061059a57600080fd5b9250604085013567ffffffffffffffff808211156105b757600080fd5b6105c3888389016104da565b935060608701359150808211156105d957600080fd5b506105e6878288016104da565b91505092959194509250565b600181811c9082168061060657607f821691505b60208210810361062657634e487b7160e01b600052602260045260246000fd5b50919050565b6000825161063e818460208701610440565b9190910192915050565b601f82111561069257600081815260208120601f850160051c8101602086101561066f5750805b601f850160051c820191505b8181101561068e5782815560010161067b565b5050505b505050565b815167ffffffffffffffff8111156106b1576106b16104c4565b6106c5816106bf84546105f2565b84610648565b602080601f8311600181146106fa57600084156106e25750858301515b600019600386901b1c1916600185901b17855561068e565b600085815260208120601f198616915b828110156107295788860151825594840194600190910190840161070a565b50858210156107475787850151600019600388901b60f8161c191681555b5050505050600190811b0190555056fea2646970667358221220c9e0d57c748aff6e114ade6e7ab3e38d8caa4ea9187c1d32790f596c0e47c35a64736f6c63430008130033",
  "immutableReferences": {},
  "source": "// SPDX-License-Identifier: MIT\r\npragma solidity >=0.8.0 <0.8.20;\r\n\r\ncontract AccessControl {\r\n    enum Role { None, Admin, Doctor, Pharmacy, Logistics, Patient }\r\n\r\n    struct User {\r\n        Role role;\r\n        string accessId;\r\n        bytes32 tempPassHash;\r\n    }\r\n\r\n    //   :  '>'  'Users'\r\n    mapping(address => User) public users;\r\n\r\n    address public owner;\r\n\r\n    event UserAdded(address indexed user, Role role, string accessId, bytes32 tempPassHash);\r\n\r\n    constructor() {\r\n        owner = msg.sender;\r\n        users[msg.sender] = User({ \r\n            role: Role.Admin, \r\n            accessId: \"ADMIN-001\", \r\n            tempPassHash: bytes32(0) \r\n        });\r\n    }\r\n\r\n    modifier onlyAdmin() {\r\n        require(users[msg.sender].role == Role.Admin, \"Not admin\");\r\n        _;\r\n    }\r\n\r\n    function addUser(\r\n        address _user,\r\n        Role _role,\r\n        string memory _accessId,\r\n        string memory _tempPassword\r\n    ) external onlyAdmin {\r\n        bytes32 hashed = keccak256(abi.encodePacked(_tempPassword));\r\n        users[_user] = User(_role, _accessId, hashed);\r\n        emit UserAdded(_user, _role, _accessId, hashed);\r\n    }\r\n\r\n    function getUser(address _user) external view returns (Role, string memory, bytes32) {\r\n        User memory u = users[_user];\r\n        return (u.role, u.accessId, u.tempPassHash);\r\n    }\r\n}\r\n",
  "sourcePath": "C:\\Users\\hp\\Downloads\\2025_GP_G29\\contracts\\AccessControl.sol",
  "compiler": {
    "name": "solc",
    "version": "0.8.19+commit.7dd6d404.Emscripten.clang"
  },
  "schemaVersion": "3.4.16",
  "updatedAt": "2025-10-13T19:16:48.919Z",
  "networkType": "ethereum",
  "devdoc": {
    "kind": "dev",
    "methods": {},
    "version": 1
  },
  "userdoc": {
    "kind": "user",
    "methods": {},
    "version": 1
  }
}