{
  "contractName": "AccessControl",
  "abi": [
    {
      "inputs": [],
      "stateMutability": "nonpayable",
      "type": "constructor"
    },
    {
      "anonymous": false,
      "inputs": [
        {
          "indexed": true,
          "internalType": "address",
          "name": "user",
          "type": "address"
        },
        {
          "indexed": false,
          "internalType": "enum AccessControl.Role",
          "name": "role",
          "type": "uint8"
        },
        {
          "indexed": false,
          "internalType": "string",
          "name": "accessId",
          "type": "string"
        },
        {
          "indexed": false,
          "internalType": "bytes32",
          "name": "tempPassHash",
          "type": "bytes32"
        }
      ],
      "name": "UserAdded",
      "type": "event"
    },
    {
      "inputs": [],
      "name": "owner",
      "outputs": [
        {
          "internalType": "address",
          "name": "",
          "type": "address"
        }
      ],
      "stateMutability": "view",
      "type": "function",
      "constant": true
    },
    {
      "inputs": [
        {
          "internalType": "address",
          "name": "",
          "type": "address"
        }
      ],
      "name": "users",
      "outputs": [
        {
          "internalType": "enum AccessControl.Role",
          "name": "role",
          "type": "uint8"
        },
        {
          "internalType": "string",
          "name": "accessId",
          "type": "string"
        },
        {
          "internalType": "bytes32",
          "name": "tempPassHash",
          "type": "bytes32"
        }
      ],
      "stateMutability": "view",
      "type": "function",
      "constant": true
    },
    {
      "inputs": [
        {
          "internalType": "address",
          "name": "_user",
          "type": "address"
        },
        {
          "internalType": "enum AccessControl.Role",
          "name": "_role",
          "type": "uint8"
        },
        {
          "internalType": "string",
          "name": "_accessId",
          "type": "string"
        },
        {
          "internalType": "string",
          "name": "_tempPassword",
          "type": "string"
        }
      ],
      "name": "addUser",
      "outputs": [],
      "stateMutability": "nonpayable",
      "type": "function"
    },
    {
      "inputs": [
        {
          "internalType": "address",
          "name": "_user",
          "type": "address"
        }
      ],
      "name": "getUser",
      "outputs": [
        {
          "internalType": "enum AccessControl.Role",
          "name": "",
          "type": "uint8"
        },
        {
          "internalType": "string",
          "name": "",
          "type": "string"
        },
        {
          "internalType": "bytes32",
          "name": "",
          "type": "bytes32"
        }
      ],
      "stateMutability": "view",
      "type": "function",
      "constant": true
    }
  ],
  "bytecode": "0x608060405234801561001057600080fd5b50600180546001600160a01b0319163317815560408051606081019091529081908152604080518082018252600981526841444d494e2d30303160b81b602082810191909152808401919091526000928201839052338352829052902081518154829060ff1916600183600581111561008b5761008b6100b7565b0217905550602082015160018201906100a4908261016c565b506040820151816002015590505061022a565b634e487b7160e01b600052602160045260246000fd5b634e487b7160e01b600052604160045260246000fd5b600181811c908216806100f757607f821691505b60208210810361011757634e487b7160e01b600052602260045260246000fd5b50919050565b601f82111561016757806000526020600020601f840160051c810160208510156101445750805b601f840160051c820191505b818110156101645760008155600101610150565b50505b505050565b81516001600160401b03811115610185576101856100cd565b6101998161019384546100e3565b8461011d565b6020601f8211600181146101cd57600083156101b55750848201515b600019600385901b1c1916600184901b178455610164565b600084815260208120601f198516915b828110156101fd57878501518255602094850194600190920191016101dd565b508482101561021b5786840151600019600387901b60f8161c191681555b50505050600190811b01905550565b610793806102396000396000f3fe608060405234801561001057600080fd5b506004361061004c5760003560e01c80636f77926b146100515780638da5cb5b1461007c578063a87430ba146100a7578063aba48bfd146100ba575b600080fd5b61006461005f366004610408565b6100cf565b60405161007393929190610464565b60405180910390f35b60015461008f906001600160a01b031681565b6040516001600160a01b039091168152602001610073565b6100646100b5366004610408565b6101db565b6100cd6100c8366004610569565b61028a565b005b6001600160a01b0381166000908152602081905260408082208151606081810190935281548492839291829060ff16600581111561010f5761010f61042a565b60058111156101205761012061042a565b8152602001600182018054610134906105f9565b80601f0160208091040260200160405190810160405280929190818152602001828054610160906105f9565b80156101ad5780601f10610182576101008083540402835291602001916101ad565b820191906000526020600020905b81548152906001019060200180831161019057829003601f168201915b5050509183525050600291909101546020918201528151908201516040909201519097919650945092505050565b6000602081905290815260409020805460018201805460ff9092169291610201906105f9565b80601f016020809104026020016040519081016040528092919081815260200182805461022d906105f9565b801561027a5780601f1061024f5761010080835404028352916020019161027a565b820191906000526020600020905b81548152906001019060200180831161025d57829003601f168201915b5050505050908060020154905083565b60013360009081526020819052604090205460ff1660058111156102b0576102b061042a565b146102ed5760405162461bcd60e51b81526020600482015260096024820152682737ba1030b236b4b760b91b604482015260640160405180910390fd5b6000816040516020016103009190610633565b60405160208183030381529060405280519060200120905060405180606001604052808560058111156103355761033561042a565b8152602080820186905260409182018490526001600160a01b0388166000908152908190522081518154829060ff191660018360058111156103795761037961042a565b021790555060208201516001820190610392908261069e565b5060408201518160020155905050846001600160a01b03167f1700b0341673b4e8e3380e9bec22792b9dfe94946671ececa727e3ffe756694b8585846040516103dd93929190610464565b60405180910390a25050505050565b80356001600160a01b038116811461040357600080fd5b919050565b60006020828403121561041a57600080fd5b610423826103ec565b9392505050565b634e487b7160e01b600052602160045260246000fd5b60005b8381101561045b578181015183820152602001610443565b50506000910152565b60006006851061048457634e487b7160e01b600052602160045260246000fd5b8482526060602083015283518060608401526104a7816080850160208801610440565b604083019390935250601f91909101601f19160160800192915050565b634e487b7160e01b600052604160045260246000fd5b600082601f8301126104eb57600080fd5b813567ffffffffffffffff811115610505576105056104c4565b604051601f8201601f19908116603f0116810167ffffffffffffffff81118282101715610534576105346104c4565b60405281815283820160200185101561054c57600080fd5b816020850160208301376000918101602001919091529392505050565b6000806000806080858703121561057f57600080fd5b610588856103ec565b935060208501356006811061059c57600080fd5b9250604085013567ffffffffffffffff8111156105b857600080fd5b6105c4878288016104da565b925050606085013567ffffffffffffffff8111156105e157600080fd5b6105ed878288016104da565b91505092959194509250565b600181811c9082168061060d57607f821691505b60208210810361062d57634e487b7160e01b600052602260045260246000fd5b50919050565b60008251610645818460208701610440565b9190910192915050565b601f82111561069957806000526020600020601f840160051c810160208510156106765750805b601f840160051c820191505b818110156106965760008155600101610682565b50505b505050565b815167ffffffffffffffff8111156106b8576106b86104c4565b6106cc816106c684546105f9565b8461064f565b6020601f82116001811461070057600083156106e85750848201515b600019600385901b1c1916600184901b178455610696565b600084815260208120601f198516915b828110156107305787850151825560209485019460019092019101610710565b508482101561074e5786840151600019600387901b60f8161c191681555b50505050600190811b0190555056fea2646970667358221220db4726254fffffd64307e71aa731958c06629c098312093a47d7b7203ae3513264736f6c634300081c0033",
  "immutableReferences": {},
  "source": "// SPDX-License-Identifier: MIT\npragma solidity ^0.8.28;\n\ncontract AccessControl {\n    enum Role { None, Admin, Doctor, Pharmacy, Logistics, Patient }\n\n    struct User {\n        Role role;\n        string accessId;\n        bytes32 tempPassHash; // <<     ()\n    }\n\n    mapping(address => User) public users;\n    address public owner;\n\n    event UserAdded(address indexed user, Role role, string accessId, bytes32 tempPassHash);\n\n    constructor() {\n        owner = msg.sender;\n        users[msg.sender] = User({ \n            role: Role.Admin, \n            accessId: \"ADMIN-001\", \n            tempPassHash: bytes32(0) \n        });\n    }\n\n    modifier onlyAdmin() {\n        require(users[msg.sender].role == Role.Admin, \"Not admin\");\n        _;\n    }\n\n    function addUser(address _user, Role _role, string memory _accessId, string memory _tempPassword) \n        external \n        onlyAdmin \n    {\n        bytes32 hashed = keccak256(abi.encodePacked(_tempPassword));\n        users[_user] = User(_role, _accessId, hashed);\n        emit UserAdded(_user, _role, _accessId, hashed);\n    }\n\n    function getUser(address _user) external view returns (Role, string memory, bytes32) {\n        User memory u = users[_user];\n        return (u.role, u.accessId, u.tempPassHash);\n    }\n}\n",
  "sourcePath": "/Users/ftoon/Documents/TrustDose/contracts/AccessControl.sol",
  "compiler": {
    "name": "solc",
    "version": "0.8.28+commit.7893614a.Emscripten.clang"
  },
  "schemaVersion": "3.4.16",
  "updatedAt": "2025-10-11T19:53:24.333Z",
  "networkType": "ethereum",
  "devdoc": {
    "kind": "dev",
    "methods": {},
    "version": 1
  },
  "userdoc": {
    "kind": "user",
    "methods": {},
    "version": 1
  }
}