{
  "contractName": "Prescription",
  "abi": [
    {
      "inputs": [],
      "stateMutability": "nonpayable",
      "type": "constructor"
    },
    {
      "anonymous": false,
      "inputs": [
        {
          "indexed": true,
          "internalType": "uint256",
          "name": "id",
          "type": "uint256"
        },
        {
          "indexed": true,
          "internalType": "address",
          "name": "doctor",
          "type": "address"
        },
        {
          "indexed": false,
          "internalType": "uint256",
          "name": "newExpiresAt",
          "type": "uint256"
        }
      ],
      "name": "ExtensionApproved",
      "type": "event"
    },
    {
      "anonymous": false,
      "inputs": [
        {
          "indexed": true,
          "internalType": "uint256",
          "name": "id",
          "type": "uint256"
        },
        {
          "indexed": true,
          "internalType": "address",
          "name": "by",
          "type": "address"
        }
      ],
      "name": "ExtensionRejected",
      "type": "event"
    },
    {
      "anonymous": false,
      "inputs": [
        {
          "indexed": true,
          "internalType": "uint256",
          "name": "id",
          "type": "uint256"
        },
        {
          "indexed": true,
          "internalType": "address",
          "name": "pharmacist",
          "type": "address"
        },
        {
          "indexed": false,
          "internalType": "uint256",
          "name": "extraSeconds",
          "type": "uint256"
        }
      ],
      "name": "ExtensionRequested",
      "type": "event"
    },
    {
      "anonymous": false,
      "inputs": [
        {
          "indexed": true,
          "internalType": "uint256",
          "name": "id",
          "type": "uint256"
        },
        {
          "indexed": true,
          "internalType": "address",
          "name": "doctor",
          "type": "address"
        },
        {
          "indexed": true,
          "internalType": "bytes32",
          "name": "patientHash",
          "type": "bytes32"
        },
        {
          "indexed": false,
          "internalType": "string",
          "name": "medicine",
          "type": "string"
        },
        {
          "indexed": false,
          "internalType": "string",
          "name": "dose",
          "type": "string"
        },
        {
          "indexed": false,
          "internalType": "string",
          "name": "frequency",
          "type": "string"
        },
        {
          "indexed": false,
          "internalType": "string",
          "name": "durationText",
          "type": "string"
        },
        {
          "indexed": false,
          "internalType": "uint256",
          "name": "createdAt",
          "type": "uint256"
        },
        {
          "indexed": false,
          "internalType": "uint256",
          "name": "expiresAt",
          "type": "uint256"
        }
      ],
      "name": "PrescriptionCreated",
      "type": "event"
    },
    {
      "anonymous": false,
      "inputs": [
        {
          "indexed": true,
          "internalType": "uint256",
          "name": "id",
          "type": "uint256"
        },
        {
          "indexed": true,
          "internalType": "address",
          "name": "by",
          "type": "address"
        }
      ],
      "name": "PrescriptionDeactivated",
      "type": "event"
    },
    {
      "anonymous": false,
      "inputs": [
        {
          "indexed": false,
          "internalType": "string",
          "name": "role",
          "type": "string"
        },
        {
          "indexed": false,
          "internalType": "address",
          "name": "account",
          "type": "address"
        },
        {
          "indexed": false,
          "internalType": "bool",
          "name": "enabled",
          "type": "bool"
        }
      ],
      "name": "RoleUpdated",
      "type": "event"
    },
    {
      "inputs": [],
      "name": "DEFAULT_VALIDITY",
      "outputs": [
        {
          "internalType": "uint256",
          "name": "",
          "type": "uint256"
        }
      ],
      "stateMutability": "view",
      "type": "function"
    },
    {
      "inputs": [],
      "name": "MAX_EXTENSION",
      "outputs": [
        {
          "internalType": "uint256",
          "name": "",
          "type": "uint256"
        }
      ],
      "stateMutability": "view",
      "type": "function"
    },
    {
      "inputs": [],
      "name": "admin",
      "outputs": [
        {
          "internalType": "address",
          "name": "",
          "type": "address"
        }
      ],
      "stateMutability": "view",
      "type": "function"
    },
    {
      "inputs": [
        {
          "internalType": "uint256",
          "name": "",
          "type": "uint256"
        }
      ],
      "name": "extensionRequests",
      "outputs": [
        {
          "internalType": "uint256",
          "name": "extraSeconds",
          "type": "uint256"
        },
        {
          "internalType": "address",
          "name": "pharmacist",
          "type": "address"
        },
        {
          "internalType": "bool",
          "name": "exists",
          "type": "bool"
        }
      ],
      "stateMutability": "view",
      "type": "function"
    },
    {
      "inputs": [
        {
          "internalType": "address",
          "name": "",
          "type": "address"
        }
      ],
      "name": "isDoctor",
      "outputs": [
        {
          "internalType": "bool",
          "name": "",
          "type": "bool"
        }
      ],
      "stateMutability": "view",
      "type": "function"
    },
    {
      "inputs": [
        {
          "internalType": "address",
          "name": "",
          "type": "address"
        }
      ],
      "name": "isPharmacist",
      "outputs": [
        {
          "internalType": "bool",
          "name": "",
          "type": "bool"
        }
      ],
      "stateMutability": "view",
      "type": "function"
    },
    {
      "inputs": [
        {
          "internalType": "uint256",
          "name": "",
          "type": "uint256"
        }
      ],
      "name": "prescriptions",
      "outputs": [
        {
          "internalType": "uint256",
          "name": "id",
          "type": "uint256"
        },
        {
          "internalType": "bytes32",
          "name": "patientHash",
          "type": "bytes32"
        },
        {
          "internalType": "string",
          "name": "medicine",
          "type": "string"
        },
        {
          "internalType": "string",
          "name": "dose",
          "type": "string"
        },
        {
          "internalType": "string",
          "name": "frequency",
          "type": "string"
        },
        {
          "internalType": "string",
          "name": "durationText",
          "type": "string"
        },
        {
          "internalType": "address",
          "name": "doctor",
          "type": "address"
        },
        {
          "internalType": "uint256",
          "name": "createdAt",
          "type": "uint256"
        },
        {
          "internalType": "uint256",
          "name": "expiresAt",
          "type": "uint256"
        },
        {
          "internalType": "bool",
          "name": "isActive",
          "type": "bool"
        }
      ],
      "stateMutability": "view",
      "type": "function"
    },
    {
      "inputs": [
        {
          "internalType": "address",
          "name": "account",
          "type": "address"
        },
        {
          "internalType": "bool",
          "name": "enabled",
          "type": "bool"
        }
      ],
      "name": "setDoctor",
      "outputs": [],
      "stateMutability": "nonpayable",
      "type": "function"
    },
    {
      "inputs": [
        {
          "internalType": "address",
          "name": "account",
          "type": "address"
        },
        {
          "internalType": "bool",
          "name": "enabled",
          "type": "bool"
        }
      ],
      "name": "setPharmacist",
      "outputs": [],
      "stateMutability": "nonpayable",
      "type": "function"
    },
    {
      "inputs": [
        {
          "internalType": "bytes32",
          "name": "patientHash",
          "type": "bytes32"
        },
        {
          "internalType": "string",
          "name": "medicine",
          "type": "string"
        },
        {
          "internalType": "string",
          "name": "dose",
          "type": "string"
        },
        {
          "internalType": "string",
          "name": "frequency",
          "type": "string"
        },
        {
          "internalType": "string",
          "name": "durationText",
          "type": "string"
        }
      ],
      "name": "createPrescription",
      "outputs": [
        {
          "internalType": "uint256",
          "name": "",
          "type": "uint256"
        }
      ],
      "stateMutability": "nonpayable",
      "type": "function"
    },
    {
      "inputs": [
        {
          "internalType": "uint256",
          "name": "id",
          "type": "uint256"
        },
        {
          "internalType": "uint256",
          "name": "extraSeconds",
          "type": "uint256"
        }
      ],
      "name": "requestExtension",
      "outputs": [],
      "stateMutability": "nonpayable",
      "type": "function"
    },
    {
      "inputs": [
        {
          "internalType": "uint256",
          "name": "id",
          "type": "uint256"
        }
      ],
      "name": "approveExtension",
      "outputs": [],
      "stateMutability": "nonpayable",
      "type": "function"
    },
    {
      "inputs": [
        {
          "internalType": "uint256",
          "name": "id",
          "type": "uint256"
        }
      ],
      "name": "rejectExtension",
      "outputs": [],
      "stateMutability": "nonpayable",
      "type": "function"
    },
    {
      "inputs": [
        {
          "internalType": "uint256",
          "name": "id",
          "type": "uint256"
        }
      ],
      "name": "deactivate",
      "outputs": [],
      "stateMutability": "nonpayable",
      "type": "function"
    },
    {
      "inputs": [],
      "name": "getCount",
      "outputs": [
        {
          "internalType": "uint256",
          "name": "",
          "type": "uint256"
        }
      ],
      "stateMutability": "view",
      "type": "function"
    },
    {
      "inputs": [
        {
          "internalType": "uint256",
          "name": "id",
          "type": "uint256"
        }
      ],
      "name": "isValid",
      "outputs": [
        {
          "internalType": "bool",
          "name": "",
          "type": "bool"
        }
      ],
      "stateMutability": "view",
      "type": "function"
    },
    {
      "inputs": [
        {
          "internalType": "uint256",
          "name": "id",
          "type": "uint256"
        }
      ],
      "name": "remainingSeconds",
      "outputs": [
        {
          "internalType": "uint256",
          "name": "",
          "type": "uint256"
        }
      ],
      "stateMutability": "view",
      "type": "function"
    }
  ],
  "bytecode": "0x608060405234801561001057600080fd5b50600080546001600160a01b0319163390811782558152600160208190526040909120805460ff191690911790556119c18061004d6000396000f3fe608060405234801561001057600080fd5b506004361061010b5760003560e01c80639a92fb92116100a2578063c3e0881611610071578063c3e0881614610236578063d97c6df114610297578063f577a500146102aa578063f7e6c1cb146102bd578063f851a440146102d057600080fd5b80639a92fb92146101f55780639f369aa914610208578063a87d942c1461021b578063aedf60981461022357600080fd5b806382946ee2116100de57806382946ee214610182578063916b9bef146101b557806393a101f6146101c8578063996440c6146101d257600080fd5b80630c5cb77e1461011057806331dfc91b146101255780634d4af539146101575780636c68d41a1461016f575b600080fd5b61012361011e36600461148c565b6102fb565b005b6101386101333660046114c8565b6103d1565b60405161014e9a99989796959493929190611527565b60405180910390f35b6101616202a30081565b60405190815260200161014e565b61016161017d36600461165d565b61064c565b6101a5610190366004611714565b60026020526000908152604090205460ff1681565b604051901515815260200161014e565b6101236101c33660046114c8565b61086a565b61016162278d0081565b6101a56101e0366004611714565b60016020526000908152604090205460ff1681565b6101616102033660046114c8565b61098a565b61012361021636600461172f565b610c85565b600354610161565b6101236102313660046114c8565b610e00565b6102726102443660046114c8565b600560205260009081526040902080546001909101546001600160a01b03811690600160a01b900460ff1683565b604080519384526001600160a01b03909216602084015215159082015260600161014e565b6101236102a536600461148c565b610f94565b6101a56102b83660046114c8565b611059565b6101236102cb3660046114c8565b611342565b6000546102e3906001600160a01b031681565b6040516001600160a01b03909116815260200161014e565b6000546001600160a01b031633146103465760405162461bcd60e51b81526020600482015260096024820152682737ba1030b236b4b760b91b60448201526064015b60405180910390fd5b6001600160a01b038216600081815260026020908152604091829020805460ff191685151590811790915582516060808252600a908201526914121054935050d254d560b21b608082015291820193909352908101919091527f64e73bff6805de0b6789825ae0104b869cf17040bf0e43f6ee820a435324dd2f9060a0015b60405180910390a15050565b600460205260009081526040902080546001820154600283018054929391926103f990611751565b80601f016020809104026020016040519081016040528092919081815260200182805461042590611751565b80156104725780601f1061044757610100808354040283529160200191610472565b820191906000526020600020905b81548152906001019060200180831161045557829003601f168201915b50505050509080600301805461048790611751565b80601f01602080910402602001604051908101604052809291908181526020018280546104b390611751565b80156105005780601f106104d557610100808354040283529160200191610500565b820191906000526020600020905b8154815290600101906020018083116104e357829003601f168201915b50505050509080600401805461051590611751565b80601f016020809104026020016040519081016040528092919081815260200182805461054190611751565b801561058e5780601f106105635761010080835404028352916020019161058e565b820191906000526020600020905b81548152906001019060200180831161057157829003601f168201915b5050505050908060050180546105a390611751565b80601f01602080910402602001604051908101604052809291908181526020018280546105cf90611751565b801561061c5780601f106105f15761010080835404028352916020019161061c565b820191906000526020600020905b8154815290600101906020018083116105ff57829003601f168201915b5050505060068301546007840154600885015460099095015493946001600160a01b039092169390925060ff168a565b3360009081526001602052604081205460ff168061067457506000546001600160a01b031633145b6106905760405162461bcd60e51b815260040161033d9061178b565b856106d35760405162461bcd60e51b8152602060048201526013602482015272092dcecc2d8d2c840e0c2e8d2cadce890c2e6d606b1b604482015260640161033d565b6001600360008282546106e691906117c5565b9091555042905060006106fc6202a300836117c5565b604080516101408101825260035480825260208083018d81528385018d8152606085018d9052608085018c905260a085018b90523360c086015260e08501899052610100850187905260016101208601819052600094855260049093529490922083518155915190820155915192935091600282019061077c9082611827565b50606082015160038201906107919082611827565b50608082015160048201906107a69082611827565b5060a082015160058201906107bb9082611827565b5060c08201516006820180546001600160a01b0319166001600160a01b0390921691909117905560e082015160078201556101008201516008820155610120909101516009909101805460ff1916911515919091179055600354604051899133917fcc38050ba588735557d1216b2453c5f1d5054be038c68bffbc701fc11b80f3c990610853908c908c908c908c908b908b906118e7565b60405180910390a450506003549695505050505050565b3360009081526001602052604090205460ff168061089257506000546001600160a01b031633145b6108ae5760405162461bcd60e51b815260040161033d9061178b565b6108b781611457565b6108d35760405162461bcd60e51b815260040161033d9061194a565b6000818152600460205260409020600601546001600160a01b031633148061090557506000546001600160a01b031633145b6109445760405162461bcd60e51b815260206004820152601060248201526f2737ba1037bbb732b9103237b1ba37b960811b604482015260640161033d565b600081815260046020526040808220600901805460ff1916905551339183917fab7b6d4ca6bb2bcdbe946a64125402e356d047b0f74f703ba6ea0dc84bcc98329190a350565b600061099582611457565b6109a157506000919050565b6000600460008481526020019081526020016000206040518061014001604052908160008201548152602001600182015481526020016002820180546109e690611751565b80601f0160208091040260200160405190810160405280929190818152602001828054610a1290611751565b8015610a5f5780601f10610a3457610100808354040283529160200191610a5f565b820191906000526020600020905b815481529060010190602001808311610a4257829003601f168201915b50505050508152602001600382018054610a7890611751565b80601f0160208091040260200160405190810160405280929190818152602001828054610aa490611751565b8015610af15780601f10610ac657610100808354040283529160200191610af1565b820191906000526020600020905b815481529060010190602001808311610ad457829003601f168201915b50505050508152602001600482018054610b0a90611751565b80601f0160208091040260200160405190810160405280929190818152602001828054610b3690611751565b8015610b835780601f10610b5857610100808354040283529160200191610b83565b820191906000526020600020905b815481529060010190602001808311610b6657829003601f168201915b50505050508152602001600582018054610b9c90611751565b80601f0160208091040260200160405190810160405280929190818152602001828054610bc890611751565b8015610c155780601f10610bea57610100808354040283529160200191610c15565b820191906000526020600020905b815481529060010190602001808311610bf857829003601f168201915b505050918352505060068201546001600160a01b03166020820152600782015460408201526008820154606082015260099091015460ff1615156080909101526101008101519091504210610c6d5750600092915050565b42816101000151610c7e9190611978565b9392505050565b3360009081526002602052604090205460ff1680610cad57506000546001600160a01b031633145b610cea5760405162461bcd60e51b815260206004820152600e60248201526d139bdd081c1a185c9b5858da5cdd60921b604482015260640161033d565b610cf382611457565b610d0f5760405162461bcd60e51b815260040161033d9061194a565b600081118015610d22575062278d008111155b610d615760405162461bcd60e51b815260206004820152601060248201526f4261642065787472615365636f6e647360801b604482015260640161033d565b60408051606081018252828152336020808301828152600184860181815260008981526005909452928690209451855590519301805491511515600160a01b026001600160a81b03199092166001600160a01b03949094169390931717909155905183907fe47cff2ebed8ad4659f468899ab7ebd88febb7485219b360fc15bfac802daf9890610df49085815260200190565b60405180910390a35050565b3360009081526001602052604090205460ff1680610e2857506000546001600160a01b031633145b610e445760405162461bcd60e51b815260040161033d9061178b565b610e4d81611457565b610e695760405162461bcd60e51b815260040161033d9061194a565b6000818152600560209081526040918290208251606081018452815481526001909101546001600160a01b03811692820192909252600160a01b90910460ff16151591810182905290610ef35760405162461bcd60e51b8152602060048201526012602482015271139bc81c195b991a5b99c81c995c5d595cdd60721b604482015260640161033d565b600082815260046020526040812060088101549091904211610f19578160080154610f1b565b425b8351909150610f2a90826117c5565b600883019081556000858152600560209081526040808320928355600190920180546001600160a81b031916905591549051908152339186917f026c24805d5838253be86c9dcfeebd7bb85f584be1de4f13058beffd8ad8e750910160405180910390a350505050565b6000546001600160a01b03163314610fda5760405162461bcd60e51b81526020600482015260096024820152682737ba1030b236b4b760b91b604482015260640161033d565b6001600160a01b038216600081815260016020908152604091829020805460ff191685151590811790915582516060808252600690820152652227a1aa27a960d11b608082015291820193909352908101919091527f64e73bff6805de0b6789825ae0104b869cf17040bf0e43f6ee820a435324dd2f9060a0016103c5565b600061106482611457565b61107057506000919050565b6000600460008481526020019081526020016000206040518061014001604052908160008201548152602001600182015481526020016002820180546110b590611751565b80601f01602080910402602001604051908101604052809291908181526020018280546110e190611751565b801561112e5780601f106111035761010080835404028352916020019161112e565b820191906000526020600020905b81548152906001019060200180831161111157829003601f168201915b5050505050815260200160038201805461114790611751565b80601f016020809104026020016040519081016040528092919081815260200182805461117390611751565b80156111c05780601f10611195576101008083540402835291602001916111c0565b820191906000526020600020905b8154815290600101906020018083116111a357829003601f168201915b505050505081526020016004820180546111d990611751565b80601f016020809104026020016040519081016040528092919081815260200182805461120590611751565b80156112525780601f1061122757610100808354040283529160200191611252565b820191906000526020600020905b81548152906001019060200180831161123557829003601f168201915b5050505050815260200160058201805461126b90611751565b80601f016020809104026020016040519081016040528092919081815260200182805461129790611751565b80156112e45780601f106112b9576101008083540402835291602001916112e4565b820191906000526020600020905b8154815290600101906020018083116112c757829003601f168201915b505050918352505060068201546001600160a01b03166020820152600782015460408201526008820154606082015260099091015460ff1615156080909101526101208101519091508015610c7e5750610100015142111592915050565b3360009081526001602052604090205460ff168061136a57506000546001600160a01b031633145b6113865760405162461bcd60e51b815260040161033d9061178b565b61138f81611457565b6113ab5760405162461bcd60e51b815260040161033d9061194a565b600081815260056020526040902060010154600160a01b900460ff166114085760405162461bcd60e51b8152602060048201526012602482015271139bc81c195b991a5b99c81c995c5d595cdd60721b604482015260640161033d565b60008181526005602052604080822082815560010180546001600160a81b031916905551339183917fdb92f72761befc275dcb2170066a22e9fec1be57b867d7e646e1c1cc5d9aa0a49190a350565b6000808211801561146a57506003548211155b92915050565b80356001600160a01b038116811461148757600080fd5b919050565b6000806040838503121561149f57600080fd5b6114a883611470565b9150602083013580151581146114bd57600080fd5b809150509250929050565b6000602082840312156114da57600080fd5b5035919050565b6000815180845260005b81811015611507576020818501810151868301820152016114eb565b506000602082860101526020601f19601f83011685010191505092915050565b60006101408c83528b60208401528060408401526115478184018c6114e1565b9050828103606084015261155b818b6114e1565b9050828103608084015261156f818a6114e1565b905082810360a084015261158381896114e1565b6001600160a01b039790971660c0840152505060e08101939093526101008301919091521515610120909101529695505050505050565b634e487b7160e01b600052604160045260246000fd5b600082601f8301126115e157600080fd5b813567ffffffffffffffff808211156115fc576115fc6115ba565b604051601f8301601f19908116603f01168101908282118183101715611624576116246115ba565b8160405283815286602085880101111561163d57600080fd5b836020870160208301376000602085830101528094505050505092915050565b600080600080600060a0868803121561167557600080fd5b85359450602086013567ffffffffffffffff8082111561169457600080fd5b6116a089838a016115d0565b955060408801359150808211156116b657600080fd5b6116c289838a016115d0565b945060608801359150808211156116d857600080fd5b6116e489838a016115d0565b935060808801359150808211156116fa57600080fd5b50611707888289016115d0565b9150509295509295909350565b60006020828403121561172657600080fd5b610c7e82611470565b6000806040838503121561174257600080fd5b50508035926020909101359150565b600181811c9082168061176557607f821691505b60208210810361178557634e487b7160e01b600052602260045260246000fd5b50919050565b6020808252600a90820152692737ba103237b1ba37b960b11b604082015260600190565b634e487b7160e01b600052601160045260246000fd5b8082018082111561146a5761146a6117af565b601f82111561182257600081815260208120601f850160051c810160208610156117ff5750805b601f850160051c820191505b8181101561181e5782815560010161180b565b5050505b505050565b815167ffffffffffffffff811115611841576118416115ba565b6118558161184f8454611751565b846117d8565b602080601f83116001811461188a57600084156118725750858301515b600019600386901b1c1916600185901b17855561181e565b600085815260208120601f198616915b828110156118b95788860151825594840194600190910190840161189a565b50858210156118d75787850151600019600388901b60f8161c191681555b5050505050600190811b01905550565b60c0815260006118fa60c08301896114e1565b828103602084015261190c81896114e1565b9050828103604084015261192081886114e1565b9050828103606084015261193481876114e1565b6080840195909552505060a00152949350505050565b60208082526014908201527327379039bab1b410383932b9b1b934b83a34b7b760611b604082015260600190565b8181038181111561146a5761146a6117af56fea264697066735822122029b7ffe2d33fd96a0ff9b9c85814ba0d0a229550553e78979a45fc1ffc706f0564736f6c63430008130033",
  "immutableReferences": {},
  "source": "// SPDX-License-Identifier: MIT\r\npragma solidity ^0.8.19;\r\n\r\n/// @title TrustDose Prescription Registry\r\n/// @notice      48       .\r\ncontract Prescription {\r\n    // =======   =======\r\n    uint256 public constant DEFAULT_VALIDITY = 48 hours;   //  \r\n    uint256 public constant MAX_EXTENSION    = 30 days;    //      \r\n\r\n    // =======      =======\r\n    address public admin;\r\n    mapping(address => bool) public isDoctor;\r\n    mapping(address => bool) public isPharmacist;\r\n\r\n    modifier onlyAdmin()      { require(msg.sender == admin, \"Not admin\"); _; }\r\n    modifier onlyDoctor()     { require(isDoctor[msg.sender] || msg.sender == admin, \"Not doctor\"); _; }\r\n    modifier onlyPharmacist() { require(isPharmacist[msg.sender] || msg.sender == admin, \"Not pharmacist\"); _; }\r\n\r\n    event RoleUpdated(string role, address account, bool enabled);\r\n\r\n    function setDoctor(address account, bool enabled) external onlyAdmin {\r\n        isDoctor[account] = enabled;\r\n        emit RoleUpdated(\"DOCTOR\", account, enabled);\r\n    }\r\n    function setPharmacist(address account, bool enabled) external onlyAdmin {\r\n        isPharmacist[account] = enabled;\r\n        emit RoleUpdated(\"PHARMACIST\", account, enabled);\r\n    }\r\n\r\n    // =======     =======\r\n    struct PrescriptionData {\r\n        uint256 id;\r\n        bytes32 patientHash;     // SHA-256   bytes32\r\n        string  medicine;\r\n        string  dose;\r\n        string  frequency;\r\n        string  durationText;    // \"10 days\" \r\n        address doctor;          //   \r\n        uint256 createdAt;\r\n        uint256 expiresAt;       //   \r\n        bool    isActive;        //  \r\n    }\r\n\r\n    //     (   )\r\n    struct ExtensionRequest {\r\n        uint256 extraSeconds;\r\n        address pharmacist;\r\n        bool    exists;\r\n    }\r\n\r\n    uint256 private _counter;\r\n    mapping(uint256 => PrescriptionData) public prescriptions;\r\n    mapping(uint256 => ExtensionRequest) public extensionRequests;\r\n\r\n    // =======  =======\r\n    event PrescriptionCreated(\r\n        uint256 indexed id,\r\n        address indexed doctor,\r\n        bytes32 indexed patientHash,\r\n        string medicine,\r\n        string dose,\r\n        string frequency,\r\n        string durationText,\r\n        uint256 createdAt,\r\n        uint256 expiresAt\r\n    );\r\n    event PrescriptionDeactivated(uint256 indexed id, address indexed by);\r\n    event ExtensionRequested(uint256 indexed id, address indexed pharmacist, uint256 extraSeconds);\r\n    event ExtensionApproved(uint256 indexed id, address indexed doctor, uint256 newExpiresAt);\r\n    event ExtensionRejected(uint256 indexed id, address indexed by);\r\n\r\n    // =======  =======\r\n    constructor() {\r\n        admin = msg.sender;              //    Truffle  \r\n        isDoctor[msg.sender] = true;     //    \r\n    }\r\n\r\n    // =======   ( ) =======\r\n    function createPrescription(\r\n        bytes32 patientHash,\r\n        string memory medicine,\r\n        string memory dose,\r\n        string memory frequency,\r\n        string memory durationText\r\n    ) external onlyDoctor returns (uint256) {\r\n        require(patientHash != bytes32(0), \"Invalid patientHash\");\r\n\r\n        _counter += 1;\r\n\r\n        uint256 created = block.timestamp;\r\n        uint256 expires = created + DEFAULT_VALIDITY;\r\n\r\n        prescriptions[_counter] = PrescriptionData({\r\n            id: _counter,\r\n            patientHash: patientHash,\r\n            medicine: medicine,\r\n            dose: dose,\r\n            frequency: frequency,\r\n            durationText: durationText,\r\n            doctor: msg.sender,\r\n            createdAt: created,\r\n            expiresAt: expires,\r\n            isActive: true\r\n        });\r\n\r\n        emit PrescriptionCreated(\r\n            _counter,\r\n            msg.sender,\r\n            patientHash,\r\n            medicine,\r\n            dose,\r\n            frequency,\r\n            durationText,\r\n            created,\r\n            expires\r\n        );\r\n\r\n        return _counter;\r\n    }\r\n\r\n    // =======   () =======\r\n    function requestExtension(uint256 id, uint256 extraSeconds) external onlyPharmacist {\r\n        require(_exists(id), \"No such prescription\");\r\n        require(extraSeconds > 0 && extraSeconds <= MAX_EXTENSION, \"Bad extraSeconds\");\r\n\r\n        extensionRequests[id] = ExtensionRequest({\r\n            extraSeconds: extraSeconds,\r\n            pharmacist: msg.sender,\r\n            exists: true\r\n        });\r\n\r\n        emit ExtensionRequested(id, msg.sender, extraSeconds);\r\n    }\r\n\r\n    // =======   (/) =======\r\n    function approveExtension(uint256 id) external onlyDoctor {\r\n        require(_exists(id), \"No such prescription\");\r\n        ExtensionRequest memory req = extensionRequests[id];\r\n        require(req.exists, \"No pending request\");\r\n\r\n        PrescriptionData storage p = prescriptions[id];\r\n        //   :       \r\n        uint256 base = block.timestamp > p.expiresAt ? block.timestamp : p.expiresAt;\r\n        p.expiresAt = base + req.extraSeconds;\r\n\r\n        delete extensionRequests[id];\r\n        emit ExtensionApproved(id, msg.sender, p.expiresAt);\r\n    }\r\n\r\n    // ======= /   =======\r\n    function rejectExtension(uint256 id) external onlyDoctor {\r\n        require(_exists(id), \"No such prescription\");\r\n        require(extensionRequests[id].exists, \"No pending request\");\r\n        delete extensionRequests[id];\r\n        emit ExtensionRejected(id, msg.sender);\r\n    }\r\n\r\n    // =======   =======\r\n    function deactivate(uint256 id) external onlyDoctor {\r\n        require(_exists(id), \"No such prescription\");\r\n        require(prescriptions[id].doctor == msg.sender || msg.sender == admin, \"Not owner doctor\");\r\n        prescriptions[id].isActive = false;\r\n        emit PrescriptionDeactivated(id, msg.sender);\r\n    }\r\n\r\n    // =======   =======\r\n    function getCount() external view returns (uint256) { return _counter; }\r\n\r\n    function isValid(uint256 id) public view returns (bool) {\r\n        if (!_exists(id)) return false;\r\n        PrescriptionData memory p = prescriptions[id];\r\n        return p.isActive && block.timestamp <= p.expiresAt;\r\n    }\r\n\r\n    function remainingSeconds(uint256 id) external view returns (uint256) {\r\n        if (!_exists(id)) return 0;\r\n        PrescriptionData memory p = prescriptions[id];\r\n        if (block.timestamp >= p.expiresAt) return 0;\r\n        return p.expiresAt - block.timestamp;\r\n    }\r\n\r\n    // =======  =======\r\n    function _exists(uint256 id) internal view returns (bool) {\r\n        return id > 0 && id <= _counter;\r\n    }\r\n}\r\n",
  "sourcePath": "C:\\Users\\hp\\Downloads\\2025_GP_G29\\contracts\\contracts\\Prescription.sol",
  "compiler": {
    "name": "solc",
    "version": "0.8.19+commit.7dd6d404.Emscripten.clang"
  },
  "schemaVersion": "3.4.16",
  "updatedAt": "2025-10-16T09:00:47.588Z",
  "devdoc": {
    "kind": "dev",
    "methods": {},
    "title": "TrustDose Prescription Registry",
    "version": 1
  },
  "userdoc": {
    "kind": "user",
    "methods": {},
    "notice": "     48       .",
    "version": 1
  }
}