{
  "contractName": "Prescription",
  "abi": [
    {
      "inputs": [
        {
          "internalType": "address[]",
          "name": "_doctors",
          "type": "address[]"
        }
      ],
      "stateMutability": "nonpayable",
      "type": "constructor"
    },
    {
      "anonymous": false,
      "inputs": [
        {
          "indexed": true,
          "internalType": "uint256",
          "name": "id",
          "type": "uint256"
        },
        {
          "indexed": true,
          "internalType": "address",
          "name": "doctor",
          "type": "address"
        },
        {
          "indexed": true,
          "internalType": "bytes32",
          "name": "patientHash",
          "type": "bytes32"
        },
        {
          "indexed": false,
          "internalType": "string",
          "name": "medicine",
          "type": "string"
        },
        {
          "indexed": false,
          "internalType": "string",
          "name": "dose",
          "type": "string"
        },
        {
          "indexed": false,
          "internalType": "string",
          "name": "frequency",
          "type": "string"
        },
        {
          "indexed": false,
          "internalType": "string",
          "name": "durationText",
          "type": "string"
        },
        {
          "indexed": false,
          "internalType": "uint256",
          "name": "createdAt",
          "type": "uint256"
        },
        {
          "indexed": false,
          "internalType": "uint256",
          "name": "expiresAt",
          "type": "uint256"
        }
      ],
      "name": "PrescriptionCreated",
      "type": "event"
    },
    {
      "inputs": [],
      "name": "VALIDITY",
      "outputs": [
        {
          "internalType": "uint256",
          "name": "",
          "type": "uint256"
        }
      ],
      "stateMutability": "view",
      "type": "function",
      "constant": true
    },
    {
      "inputs": [
        {
          "internalType": "address",
          "name": "",
          "type": "address"
        }
      ],
      "name": "isDoctor",
      "outputs": [
        {
          "internalType": "bool",
          "name": "",
          "type": "bool"
        }
      ],
      "stateMutability": "view",
      "type": "function",
      "constant": true
    },
    {
      "inputs": [
        {
          "internalType": "uint256",
          "name": "",
          "type": "uint256"
        }
      ],
      "name": "prescriptions",
      "outputs": [
        {
          "internalType": "uint256",
          "name": "id",
          "type": "uint256"
        },
        {
          "internalType": "bytes32",
          "name": "patientHash",
          "type": "bytes32"
        },
        {
          "internalType": "string",
          "name": "medicine",
          "type": "string"
        },
        {
          "internalType": "string",
          "name": "dose",
          "type": "string"
        },
        {
          "internalType": "string",
          "name": "frequency",
          "type": "string"
        },
        {
          "internalType": "string",
          "name": "durationText",
          "type": "string"
        },
        {
          "internalType": "address",
          "name": "doctor",
          "type": "address"
        },
        {
          "internalType": "uint256",
          "name": "createdAt",
          "type": "uint256"
        },
        {
          "internalType": "uint256",
          "name": "expiresAt",
          "type": "uint256"
        }
      ],
      "stateMutability": "view",
      "type": "function",
      "constant": true
    },
    {
      "inputs": [
        {
          "internalType": "bytes32",
          "name": "patientHash",
          "type": "bytes32"
        },
        {
          "internalType": "string",
          "name": "medicine",
          "type": "string"
        },
        {
          "internalType": "string",
          "name": "dose",
          "type": "string"
        },
        {
          "internalType": "string",
          "name": "frequency",
          "type": "string"
        },
        {
          "internalType": "string",
          "name": "durationText",
          "type": "string"
        }
      ],
      "name": "createPrescription",
      "outputs": [
        {
          "internalType": "uint256",
          "name": "",
          "type": "uint256"
        }
      ],
      "stateMutability": "nonpayable",
      "type": "function"
    },
    {
      "inputs": [
        {
          "internalType": "uint256",
          "name": "id",
          "type": "uint256"
        }
      ],
      "name": "getPrescription",
      "outputs": [
        {
          "internalType": "bytes32",
          "name": "patientHash",
          "type": "bytes32"
        },
        {
          "internalType": "string",
          "name": "medicine",
          "type": "string"
        },
        {
          "internalType": "string",
          "name": "dose",
          "type": "string"
        },
        {
          "internalType": "string",
          "name": "frequency",
          "type": "string"
        },
        {
          "internalType": "string",
          "name": "durationText",
          "type": "string"
        },
        {
          "internalType": "address",
          "name": "doctor",
          "type": "address"
        },
        {
          "internalType": "uint256",
          "name": "createdAt",
          "type": "uint256"
        },
        {
          "internalType": "uint256",
          "name": "expiresAt",
          "type": "uint256"
        }
      ],
      "stateMutability": "view",
      "type": "function",
      "constant": true
    },
    {
      "inputs": [
        {
          "internalType": "uint256",
          "name": "id",
          "type": "uint256"
        }
      ],
      "name": "isValid",
      "outputs": [
        {
          "internalType": "bool",
          "name": "",
          "type": "bool"
        }
      ],
      "stateMutability": "view",
      "type": "function",
      "constant": true
    }
  ],
  "bytecode": "0x60806040523480156200001157600080fd5b506040516200129f3803806200129f8339810160408190526200003491620000dd565b60005b8151811015620000a25760016000808484815181106200005b576200005b620001af565b6020908102919091018101516001600160a01b03168252810191909152604001600020805460ff1916911515919091179055806200009981620001c5565b91505062000037565b5050620001ed565b634e487b7160e01b600052604160045260246000fd5b80516001600160a01b0381168114620000d857600080fd5b919050565b60006020808385031215620000f157600080fd5b82516001600160401b03808211156200010957600080fd5b818501915085601f8301126200011e57600080fd5b815181811115620001335762000133620000aa565b8060051b604051601f19603f830116810181811085821117156200015b576200015b620000aa565b6040529182528482019250838101850191888311156200017a57600080fd5b938501935b82851015620001a3576200019385620000c0565b845293850193928501926200017f565b98975050505050505050565b634e487b7160e01b600052603260045260246000fd5b600060018201620001e657634e487b7160e01b600052601160045260246000fd5b5060010190565b6110a280620001fd6000396000f3fe608060405234801561001057600080fd5b50600436106100625760003560e01c806331dfc91b146100675780633f97d995146100985780636c68d41a146100b05780636f16af10146100c3578063996440c6146100ea578063f577a5001461011d575b600080fd5b61007a610075366004610b8d565b610130565b60405161008f99989796959493929190610bec565b60405180910390f35b6100a26202a30081565b60405190815260200161008f565b6100a26100be366004610d17565b6103a5565b6100d66100d1366004610b8d565b6105c0565b60405161008f989796959493929190610dce565b61010d6100f8366004610e4e565b60006020819052908152604090205460ff1681565b604051901515815260200161008f565b61010d61012b366004610b8d565b6108a9565b60026020819052600091825260409091208054600182015492820180549193929161015a90610e7e565b80601f016020809104026020016040519081016040528092919081815260200182805461018690610e7e565b80156101d35780601f106101a8576101008083540402835291602001916101d3565b820191906000526020600020905b8154815290600101906020018083116101b657829003601f168201915b5050505050908060030180546101e890610e7e565b80601f016020809104026020016040519081016040528092919081815260200182805461021490610e7e565b80156102615780601f1061023657610100808354040283529160200191610261565b820191906000526020600020905b81548152906001019060200180831161024457829003601f168201915b50505050509080600401805461027690610e7e565b80601f01602080910402602001604051908101604052809291908181526020018280546102a290610e7e565b80156102ef5780601f106102c4576101008083540402835291602001916102ef565b820191906000526020600020905b8154815290600101906020018083116102d257829003601f168201915b50505050509080600501805461030490610e7e565b80601f016020809104026020016040519081016040528092919081815260200182805461033090610e7e565b801561037d5780601f106103525761010080835404028352916020019161037d565b820191906000526020600020905b81548152906001019060200180831161036057829003601f168201915b505050506006830154600784015460089094015492936001600160a01b039091169290915089565b3360009081526020819052604081205460ff166103f75760405162461bcd60e51b815260206004820152600b60248201526a27b7363c903237b1ba37b960a91b60448201526064015b60405180910390fd5b8561043a5760405162461bcd60e51b8152602060048201526013602482015272092dcecc2d8d2c840e0c2e8d2cadce890c2e6d606b1b60448201526064016103ee565b6001805490600061044a83610ece565b9091555042905060006104606202a30083610ee7565b90506040518061012001604052806001548152602001898152602001888152602001878152602001868152602001858152602001336001600160a01b0316815260200183815260200182815250600260006001548152602001908152602001600020600082015181600001556020820151816001015560408201518160020190816104eb9190610f49565b50606082015160038201906105009082610f49565b50608082015160048201906105159082610f49565b5060a0820151600582019061052a9082610f49565b5060c08201516006820180546001600160a01b0319166001600160a01b0390921691909117905560e0820151600782015561010090910151600890910155600154604051899133917fcc38050ba588735557d1216b2453c5f1d5054be038c68bffbc701fc11b80f3c9906105a9908c908c908c908c908b908b90611009565b60405180910390a450506001549695505050505050565b600060608060608060008060006105d689610b74565b61060f5760405162461bcd60e51b815260206004820152600a602482015269125b9d985b1a5908125160b21b60448201526064016103ee565b6000600260008b815260200190815260200160002090508060010154816002018260030183600401846005018560060160009054906101000a90046001600160a01b03168660070154876008015486805461066990610e7e565b80601f016020809104026020016040519081016040528092919081815260200182805461069590610e7e565b80156106e25780601f106106b7576101008083540402835291602001916106e2565b820191906000526020600020905b8154815290600101906020018083116106c557829003601f168201915b505050505096508580546106f590610e7e565b80601f016020809104026020016040519081016040528092919081815260200182805461072190610e7e565b801561076e5780601f106107435761010080835404028352916020019161076e565b820191906000526020600020905b81548152906001019060200180831161075157829003601f168201915b5050505050955084805461078190610e7e565b80601f01602080910402602001604051908101604052809291908181526020018280546107ad90610e7e565b80156107fa5780601f106107cf576101008083540402835291602001916107fa565b820191906000526020600020905b8154815290600101906020018083116107dd57829003601f168201915b5050505050945083805461080d90610e7e565b80601f016020809104026020016040519081016040528092919081815260200182805461083990610e7e565b80156108865780601f1061085b57610100808354040283529160200191610886565b820191906000526020600020905b81548152906001019060200180831161086957829003601f168201915b505050505093509850985098509850985098509850985050919395975091939597565b60006108b482610b74565b6108c057506000919050565b60006002600084815260200190815260200160002060405180610120016040529081600082015481526020016001820154815260200160028201805461090590610e7e565b80601f016020809104026020016040519081016040528092919081815260200182805461093190610e7e565b801561097e5780601f106109535761010080835404028352916020019161097e565b820191906000526020600020905b81548152906001019060200180831161096157829003601f168201915b5050505050815260200160038201805461099790610e7e565b80601f01602080910402602001604051908101604052809291908181526020018280546109c390610e7e565b8015610a105780601f106109e557610100808354040283529160200191610a10565b820191906000526020600020905b8154815290600101906020018083116109f357829003601f168201915b50505050508152602001600482018054610a2990610e7e565b80601f0160208091040260200160405190810160405280929190818152602001828054610a5590610e7e565b8015610aa25780601f10610a7757610100808354040283529160200191610aa2565b820191906000526020600020905b815481529060010190602001808311610a8557829003601f168201915b50505050508152602001600582018054610abb90610e7e565b80601f0160208091040260200160405190810160405280929190818152602001828054610ae790610e7e565b8015610b345780601f10610b0957610100808354040283529160200191610b34565b820191906000526020600020905b815481529060010190602001808311610b1757829003601f168201915b505050918352505060068201546001600160a01b031660208201526007820154604082015260089091015460609091015261010001514211159392505050565b60008082118015610b8757506001548211155b92915050565b600060208284031215610b9f57600080fd5b5035919050565b6000815180845260005b81811015610bcc57602081850181015186830182015201610bb0565b506000602082860101526020601f19601f83011685010191505092915050565b60006101208b83528a6020840152806040840152610c0c8184018b610ba6565b90508281036060840152610c20818a610ba6565b90508281036080840152610c348189610ba6565b905082810360a0840152610c488188610ba6565b6001600160a01b039690961660c0840152505060e0810192909252610100909101529695505050505050565b634e487b7160e01b600052604160045260246000fd5b600082601f830112610c9b57600080fd5b813567ffffffffffffffff80821115610cb657610cb6610c74565b604051601f8301601f19908116603f01168101908282118183101715610cde57610cde610c74565b81604052838152866020858801011115610cf757600080fd5b836020870160208301376000602085830101528094505050505092915050565b600080600080600060a08688031215610d2f57600080fd5b85359450602086013567ffffffffffffffff80821115610d4e57600080fd5b610d5a89838a01610c8a565b95506040880135915080821115610d7057600080fd5b610d7c89838a01610c8a565b94506060880135915080821115610d9257600080fd5b610d9e89838a01610c8a565b93506080880135915080821115610db457600080fd5b50610dc188828901610c8a565b9150509295509295909350565b60006101008a8352806020840152610de88184018b610ba6565b90508281036040840152610dfc818a610ba6565b90508281036060840152610e108189610ba6565b90508281036080840152610e248188610ba6565b6001600160a01b039690961660a0840152505060c081019290925260e09091015295945050505050565b600060208284031215610e6057600080fd5b81356001600160a01b0381168114610e7757600080fd5b9392505050565b600181811c90821680610e9257607f821691505b602082108103610eb257634e487b7160e01b600052602260045260246000fd5b50919050565b634e487b7160e01b600052601160045260246000fd5b600060018201610ee057610ee0610eb8565b5060010190565b80820180821115610b8757610b87610eb8565b601f821115610f4457600081815260208120601f850160051c81016020861015610f215750805b601f850160051c820191505b81811015610f4057828155600101610f2d565b5050505b505050565b815167ffffffffffffffff811115610f6357610f63610c74565b610f7781610f718454610e7e565b84610efa565b602080601f831160018114610fac5760008415610f945750858301515b600019600386901b1c1916600185901b178555610f40565b600085815260208120601f198616915b82811015610fdb57888601518255948401946001909101908401610fbc565b5085821015610ff95787850151600019600388901b60f8161c191681555b5050505050600190811b01905550565b60c08152600061101c60c0830189610ba6565b828103602084015261102e8189610ba6565b905082810360408401526110428188610ba6565b905082810360608401526110568187610ba6565b6080840195909552505060a0015294935050505056fea264697066735822122097b0231001e46895e4f988c007573878292f7a1ddfd46e23659f0249d0a7d90b64736f6c63430008130033",
  "immutableReferences": {},
  "source": "// SPDX-License-Identifier: MIT\r\npragma solidity ^0.8.19;\r\n\r\n/// @title TrustDose - Simple Prescription (Doctor only)\r\n/// @notice \r\ncontract Prescription {\r\n    uint256 public constant VALIDITY = 48 hours;\r\n\r\n    //list of all doctors\r\n    mapping(address => bool) public isDoctor;\r\n\r\n    //counter\r\n    uint256 private _counter;\r\n\r\n    //table\r\n    struct PrescriptionData {\r\n        uint256 id;\r\n        bytes32 patientHash;\r\n        string  medicine;\r\n        string  dose;\r\n        string  frequency;\r\n        string  durationText;\r\n        address doctor;\r\n        uint256 createdAt;\r\n        uint256 expiresAt;\r\n    }\r\n\r\n    //mapping to store prescriptions\r\n    mapping(uint256 => PrescriptionData) public prescriptions;\r\n\r\n    //creat\r\n    event PrescriptionCreated(\r\n        uint256 indexed id,\r\n        address indexed doctor,\r\n        bytes32 indexed patientHash,\r\n        string medicine,\r\n        string dose,\r\n        string frequency,\r\n        string durationText,\r\n        uint256 createdAt,\r\n        uint256 expiresAt\r\n    );\r\n\r\n    //auth\r\n    constructor(address[] memory _doctors) {\r\n    for (uint256 i = 0; i < _doctors.length; i++) {\r\n        isDoctor[_doctors[i]] = true;\r\n    }\r\n}\r\n\r\n\r\n    //from out\r\n    function createPrescription(\r\n        bytes32 patientHash,\r\n        string memory medicine,\r\n        string memory dose,\r\n        string memory frequency,\r\n        string memory durationText\r\n    ) external returns (uint256) {\r\n\r\n        //requirements\r\n        require(isDoctor[msg.sender], \"Only doctor\");\r\n        require(patientHash != bytes32(0), \"Invalid patientHash\");\r\n\r\n        _counter++;\r\n        uint256 created = block.timestamp;\r\n        uint256 expires = created + VALIDITY;\r\n\r\n        prescriptions[_counter] = PrescriptionData({\r\n            id: _counter,\r\n            patientHash: patientHash,\r\n            medicine: medicine,\r\n            dose: dose,\r\n            frequency: frequency,\r\n            durationText: durationText,\r\n            doctor: msg.sender,\r\n            createdAt: created,\r\n            expiresAt: expires\r\n        });\r\n\r\n        emit PrescriptionCreated(\r\n            _counter,\r\n            msg.sender,\r\n            patientHash,\r\n            medicine,\r\n            dose,\r\n            frequency,\r\n            durationText,\r\n            created,\r\n            expires\r\n        );\r\n\r\n        return _counter;\r\n    }\r\n\r\n    function getPrescription(uint256 id)\r\n        external\r\n        view\r\n        returns (\r\n            bytes32 patientHash,\r\n            string memory medicine,\r\n            string memory dose,\r\n            string memory frequency,\r\n            string memory durationText,\r\n            address doctor,\r\n            uint256 createdAt,\r\n            uint256 expiresAt\r\n        )\r\n    {\r\n        require(_exists(id), \"Invalid ID\");\r\n        PrescriptionData storage p = prescriptions[id];\r\n        return (\r\n            p.patientHash,\r\n            p.medicine,\r\n            p.dose,\r\n            p.frequency,\r\n            p.durationText,\r\n            p.doctor,\r\n            p.createdAt,\r\n            p.expiresAt\r\n        );\r\n    }\r\n\r\n    function isValid(uint256 id) public view returns (bool) {\r\n        if (!_exists(id)) return false;\r\n        PrescriptionData memory p = prescriptions[id];\r\n        return block.timestamp <= p.expiresAt;\r\n    }\r\n\r\n    function _exists(uint256 id) internal view returns (bool) {\r\n        return id > 0 && id <= _counter;\r\n    }\r\n}\r\n",
  "sourcePath": "C:\\Users\\hp\\Desktop\\2025_GP_G29\\contracts\\Prescription.sol",
  "compiler": {
    "name": "solc",
    "version": "0.8.19+commit.7dd6d404.Emscripten.clang"
  },
  "schemaVersion": "3.4.16",
  "updatedAt": "2025-10-26T10:26:20.862Z",
  "networkType": "ethereum",
  "devdoc": {
    "kind": "dev",
    "methods": {},
    "title": "TrustDose - Simple Prescription (Doctor only)",
    "version": 1
  },
  "userdoc": {
    "kind": "user",
    "methods": {},
    "version": 1
  }
}